:020000040800F2
:10000000B02900207D02000833350008B130000817
:1000100031350008B50300080B5800080000000047
:100020000000000000000000000000009D0100082A
:100030000505000800000000F901000875390008F6
:10004000970200089702000897020008970200082C
:10005000970200089702000897020008970200081C
:10006000970200089702000897020008970200080C
:1000700097020008970200089702000897020008FC
:1000800097020008970200089702000897020008EC
:1000900097020008970200089702000897020008DC
:1000A00097020008993A0008970200089702000892
:1000B00097020008970200089702000897020008BC
:1000C00097020008970200089702000897020008AC
:1000D00097020008970200083D43000897020008B5
:1000E000970200089702000897020008970200088C
:1000F000970200089702000897020008970200087C
:10010000970200089702000897020008970200086B
:10011000970200089702000897020008970200085B
:10012000970200089702000897020008970200084B
:10013000970200089702000897020008970200083B
:10014000970200089702000897020008553500083A
:10015000970200089702000897020008970200081B
:10016000970200089702000897020008970200080B
:10017000970200089702000897020008000000009C
:100180009702000897020008DFF80CD000F000F991
:100190000048004789580008B02900202C4B1968F6
:1001A000086800F05AB880F30988BFF36F8F4FF0EA
:1001B000000080F3118870470000000008480068C4
:1001C000006880F308884FF0000080F3148862B65E
:1001D00061B6BFF34F8FBFF36F8F00DF00BF00BF6B
:1001E00008ED00E0DFF80C00016841F470010160E7
:1001F000704700BF88ED00E0EFF30980BFF36F8F19
:10020000134B1A681EF0100F08BF20ED108A20E96A
:10021000F04F106009B44FF0500080F31188BFF325
:100220004F8FBFF36F8F06F071F84FF0000080F32F
:10023000118809BC1968086800F014B81EF0100F86
:1002400008BF00F014B880F30988BFF36F8F7047C0
:1002500020000020EFF30580704730C8B0E8C04FA1
:10026000FFF7A1BF30C8B0E8C04FFFF7E7BFB0EC61
:10027000088AB0EC08CAFFF7E6BF000006488047CE
:1002800006480047FEE7FEE7FEE7FEE7FEE7FEE77B
:10029000FEE7FEE7FEE7FEE7553A000889010008A1
:1002A0002DE9F05F0546002092469B4688460646AB
:1002B000814640241BE0284641464746224600F03E
:1002C00056F853465A46C01A914110D31146184663
:1002D000224600F03DF82D1A67EB01084F462246F2
:1002E0000120002100F034F817EB00094E41201ED8
:1002F000A4F10104DFDC484631462A46434600F0BB
:1003000000B830BCBDE8C09F40EA01039B0703D0A2
:1003100009E008C9121F08C0042AFAD203E011F844
:10032000013B00F8013B521EF9D27047D2B201E006
:1003300000F8012B491EFBD270470022F6E710B5EA
:1003400013460A4604461946FFF7F0FF204610BD43
:10035000202A04DB203A00FA02F100207047914085
:10036000C2F1200320FA03F3194390407047202A7A
:1003700004DB203A21FA02F00021704721FA02F34F
:10038000D040C2F120029140084319467047000056
:10039000064C074D06E0E06840F0010394E80700D2
:1003A00098471034AC42F6D3FFF7F2FE506D0008C8
:1003B000706D0008FEE770B50546D0F87803042696
:1003C000C46994F84E0003281AD0042820D1217B58
:1003D000284604F088FC01281AD1217B284604F025
:1003E0006DFCA16A814214D0628B824211D2091A3B
:1003F000A162216A08442062032084F84E000EE0C6
:10040000237B628B2846216A03F0B8FF84F84E6094
:1004100070BD002084F84E00284604F00BF9C5F8A2
:10042000D4633146D5F8CC03BDE87040002205F016
:1004300013BB0000F8B50546D0F878030127C4695E
:1004400094F84D0001280ED002281AD1617B28466D
:1004500004F049FC0426012814D0022811D100BF61
:1004600084F84D7020E0228B606A0097637B904295
:1004700000D882B22846E16903F090FF022084F898
:100480004D00F8BD208B616A0022814206D9091A0D
:100490006162E3691844E061E2D100E0626284F8DD
:1004A0004D20284604F0C9F8C5F8D4633146D5F884
:1004B000CC03BDE8F840002205F0CEBA10B500220A
:1004C0004FEA020100EB8203521CC3F880130F2A8B
:1004D000F8D300224FF400738418521C84F81C11C6
:1004E0009A42F9D30170417001228270C0F8BC13A6
:1004F000027640238371417680F81C1380F81D2317
:10050000002010BD70477047A1220274212242745E
:100510000022428282820722C28204F0B2B810B561
:1005200090F825100024022903D00421C16301247E
:100530001AE001680A6822F00E020A6001680A687F
:1005400022F001020A6090F84410036C01F01C02D2
:10055000012101FA02F25A6080F82510002180F88A
:100560002410816B01B18847204610BD70B5044648
:1005700000F0F4F80546601C00D0641C00F0EEF8B2
:10058000401BA042FAD370BD2DE9F84FDFF898B1B7
:1005900000234FF0010C4FF0030A4FF00F090BF14D
:1005A000040EB9E00CFA03F4224070D04D68022D1D
:1005B00001D0122D0ED1DD0800EB8508D8F82050AF
:1005C0005E07F70E09FA07F6B5430E69BE402E43E3
:1005D000C8F8206007685E0091F804800AFA06F502
:1005E00008F00308AF4308FA06F848EA0708C0F81D
:1005F00000804F68012F05D0022F03D0112F01D0AA
:10060000122F13D1D0F80880CF6828EA0508B74028
:1006100047EA08078760D0F804800F7928EA0408C1
:10062000C7F300179F4047EA08074760D1F80480E6
:100630006FEA0807BF0706D1C76AA743C8F3C0041B
:100640009C403C43C462C468AC438D68B5402543BC
:10065000C5604C68E4005ED5344C256E45F001055C
:100660002566246E23F0030504F001040094304C49
:100670002E19B4689D072F0F09FA07F5AC43B0F1A6
:10068000904F05D02B4DA84204D101251CE042E03B
:10069000002519E0284DA84201D1022514E0274D7C
:1006A000A84201D103250FE0254DA84201D1042520
:1006B0000AE0244DA84201D1052505E0224DA842BB
:1006C00001D1062500E00725BD402543B560DBF8D4
:1006D00000405D464E689443F60300D514432C60F9
:1006E000DEF8004075464E689443B60300D51443C7
:1006F0002C600D4D08352C684E689443F60200D5E9
:1007000014432C60084D0C352C684E689443B60297
:1007100000D514432C605B1C0A6832FA03F57FF4A1
:1007200041AF00F013B80000000401400010024087
:10073000000001400004004800080048000C004888
:1007400000100048001400480018004818BCBDE81C
:10075000E08F0AB18161704781627047014800688B
:100760007047000018000020D0F8C00204F056BA0C
:10077000D0F8C00204F071BA006804F0D1BD00687E
:1007800004F0D2BD01EB810100EBC10090F85C00E8
:10079000704701EB810100EBC100C06C704710B5E0
:1007A000044690F8B802012809D0012084F8B80264
:1007B000206804F0C4FD002084F8B80210BD0220B7
:1007C00010BD2DE9FE430546DDE90B7095F8B842F2
:1007D000DDF828C0012C1CD001EB81044FF0010989
:1007E00005EBC40485F8B892002684F83D6084F8CF
:1007F0003830A4F8400084F8391084F83F7002F0D3
:100800007F0884F83A805FEA026805D584F83B9057
:1008100004E0022000F00EB884F83B6084F83CC08D
:10082000CDF800C0CDE90170286804F0E9FD85F835
:10083000B862EFE706BCBDE8F883D0F8C00204F068
:100840008DBA2DE9F04101EB8104DDE907E700EB0A
:10085000C404DDF818C084F83B20022684F83F3039
:10086000BCF1000F0AD084F84260002553B1012B7F
:100870002AD0022B0FD0032B13D10CE0032584F8D0
:100880004250F2E7BCF1010F0BD152B9CFB90122AE
:1008900084F8512003E0A2B194F85020A2B184F86A
:1008A0004260C4E911E784F85C50E56484F83910CB
:1008B00084F85D5004F138010068BDE8F04104F0AF
:1008C0000FBE94F85120E9E784F84250E9E70000B0
:1008D0002DE9F04104460068064604F02CFD01288D
:1008E0006FD1206804F0FFFE00286AD0206804F071
:1008F000FAFE800203D521684FF400104861206899
:1009000004F0F1FEC00203D521684FF48010486165
:10091000206804F0E8FE400103D521684FF08060B4
:100920004861206804F0DFFE800702D521680220BC
:100930004861206804F0D7FE800010D5D6F8400446
:1009400020F02E00C6F840042046FFF711FF0121D9
:10095000206804F0ADFE21684FF000504861206827
:1009600004F0C1FEC00102D5204602F00DFB206854
:1009700004F0B9FE000705D5204600F0C2F8216852
:1009800008204861206804F0AEFE800124D520686C
:1009900004F0A2FD074600254FF0010815E000BF56
:1009A00005F00F0108FA01F038420DD006EB4510B2
:1009B000D0F80005E9B20004204603D502F0ABF8F8
:1009C00002E01CE002F0C0F96D1CA068A842E7D864
:1009D00021684FF000704861206804F084FEC04335
:1009E000C0060CD42068816921F010018161204685
:1009F00002F026FB2068816941F010018161BDE8A9
:100A0000F08130B58BB0040003D094F8B90218B16E
:100A100008E001200BB030BD002084F8B802204669
:100A200000F024F8032084F8B902206804F034FCB4
:100A300004F1100128220D466846FFF765FC94E892
:100A40000F0004F0E3FB0121206804F077FE282268
:100A500029466846FFF758FC94E80F0004F0C4FDEF
:100A6000012084F8B9020020D4E7000010B5006826
:100A700086B0B0F1A04F34D14FF4C05000900220A6
:100A8000019000200290032003900A200490694600
:100A90004FF09040FFF778FD134CE06C40F480502D
:100AA000E064E06C00F480500590A06DC0000ED4AE
:100AB000A06D40F08050A065A06D00F080500590C2
:100AC00000F01EFBA06D20F08050A06501E000F05A
:100AD00017FB00220521432000F0ACFA432000F070
:100AE0009DFA06B010BD000000100240D0F8C00210
:100AF00004F054B9D0F8C00204F054B9006804F00E
:100B000004BED0F8C00204F0F2B810B5044690F864
:100B1000B80201280DD0012084F8B802206804F042
:100B2000D7FB0121206804F0BDFB002084F8B80247
:100B300010BD022010BD10B5044690F8B80201287F
:100B400009D0012084F8B802206804F00FFE0020CC
:100B500084F8B80210BD022010BD90F84120202A70
:100B600024D190F84020012A20D0012280F8402092
:100B7000242280F841200268136823F001031360E7
:100B80000268136823F480531360026813680B43F0
:100B9000136001680A6842F001020A60202180F8AF
:100BA0004110002180F8401008467047022070472D
:100BB00090F84120202A22D190F84020012A1ED00E
:100BC000012280F84020242280F841200268136826
:100BD00023F0010313600268136823F4706343EA8F
:100BE0000121116001680A6842F001020A602021B7
:100BF00080F84110002180F840100846704702201C
:100C00007047000070B5040004D094F8410000253E
:100C100010B106E0012070BD84F84050204600F07D
:100C20004DF8242084F841002068016821F001017A
:100C300001606068216820F0706008612068816848
:100C400021F400418160E0680128A06807D040F4E9
:100C5000044021688860E068022803D006E040F480
:100C60000040F6E721684FF4006048602068416862
:100C7000114A114341602068C16821F40041C160FC
:100C8000D4E904010843A16940EA01202168C86051
:100C9000D4E907010843216808602068016841F031
:100CA000010101606564202084F84100256384F817
:100CB0004250002070BD000000800002F0B587B0F7
:100CC000044614216846FFF738FB204F2668204C65
:100CD00012210122032304251E48BE4217D1E66CCF
:100CE00046F00206E664E66C01AF06F002060596E1
:100CF000C026009687E82E006946FFF745FCA06DE8
:100D000040F40010A065A06D00F400101AE0124F2E
:100D1000BE4218D1E66C46F00206E664E66C01AF0E
:100D200006F0020605964FF44066009687E82E000E
:100D30006946FFF729FCA06D40F48000A065A06D16
:100D400000F48000059007B0F0BD000000540040A2
:100D500000100240000400480058004002480168AA
:100D6000491C01607047000018000020094810B5B8
:100D70000168002441F480710160032000F07AF9D9
:100D8000002000F009F808B1012401E000F02CF97E
:100D9000204610BD0020024000B5014687B0002269
:100DA000192000F047F9192000F038F91348016EB6
:100DB00041F400610166006E05A900F40060069030
:100DC000684600F097FE00F0C7FE0D490D4AB0FBE3
:100DD000F1F10D48491E0260416040F2E732002106
:100DE000C0E90321816001F043FB10B1012007B08D
:100DF00000BD054801F06AFBF9E700000010024061
:100E000040420F00002C0140800A00202DE9F041F3
:100E100004004FF0000504D094F83500002618B106
:100E200007E00120BDE8F08184F83460204600F03E
:100E30006BF8022084F835002068016821F0010178
:100E400001601420216800EB85028E506D1C0F2D6F
:100E5000F8D92068816841F004018160D4E901017A
:100E60000843D4E90A1211430843E1690843216A9F
:100E70000843A1690843616A084321684A68214B15
:100E80001A4010434860204602F013F9D4E90310D9
:100E90000143226B6069104301432068026822F01D
:100EA000FE02114301602068016841F00101016008
:100EB000FFF754FC05464FF47A7706E0FFF74EFC47
:100EC000401BB84201D908200EE020688068C0436A
:100ED000C007F3D1FFF742FC054608E0FFF73EFCF0
:100EE000401BB84203D91020A06303209AE7206872
:100EF0008068C043C006F1D4A663012084F83500A1
:100F000000208FE70E0000FC70B586B00446142167
:100F10006846FFF712FA2F492068884258D12E48B8
:100F2000816D41F400718165816D01F4007105915D
:100F3000C16C41F00401C164C16C01F00401059170
:100F4000C16C41F00101C164C16C01F00101059166
:100F5000C16C41F00201C164C16C01F00201059154
:100F6000C16C41F00801C164C06C022500F00800AA
:100F700005904FF4FC7000900024CDE901540B263D
:100F8000CDE9034669461548FFF7FEFA48F2C070FE
:100F90000090CDE90154CDE9034669464FF09040F9
:100FA000FFF7F2FA4FF233200090CDE90154CDE97A
:100FB000034669460A48FFF7E7FA4FF47F4000907E
:100FC000CDE90154CDE9034669460648FFF7DCFA4E
:100FD00006B070BD00240040001002400008004828
:100FE00000040048000C00480B4882B0016E41F03C
:100FF00001010166016E01F001010091816D41F076
:1010000080518165806D002200F0805000900F219A
:10101000901E02B000F00EB80010024000F01F0257
:10102000012191404009800000F1E020C0F800114A
:1010300070470000F0B40E4B1B680C46C3F302234C
:10104000C3F10705042D00D90425191D072901D274
:10105000002300E0DB1E012606FA05F1491E2140AF
:1010600099409E40761E16403143F0BC02F062BAB1
:101070000CED00E0064900F0070208684FF6FF0398
:10108000184040EA0220034A1043086070470000FD
:101090000CED00E00000FA051649B0F5007F086885
:1010A000C0F3412009D0022805D0086820F4C060B0
:1010B00040F480600860002070470128FBD0086879
:1010C00020F4C06040F4007008600B4832220068D1
:1010D00050430A4AB0FBF2F0401C00E0401E4A694F
:1010E000520501D50028F9D148694005E3D5032010
:1010F00070470000007000401C00002040420F00BC
:101100000248416841F480614160704700700040CE
:101110000248006800F4C0607047000000700040A2
:101120000248016841F4807101607047007000401E
:10113000F8B50446FFF712FB06465CB194F8380098
:10114000012809D0012784F8387094F83900002567
:1011500020B10BE00120F8BD0220F8BD84F8385022
:10116000204600F03DF841F2883020642068016894
:10117000A2686FF0FF0321F4706103EB02221143B8
:101180000160206C0090334600222021204602F0AE
:10119000E7F9E8B921680A680F4B1A40237942EA57
:1011A0000362E3681A430A60D4E905121143226816
:1011B00053680A4E3340268A43EA06431943516076
:1011C00021680A6842F001020A60E56384F8397018
:1011D00084F83850F8BD0000EFFFFF00FEF8E0FF94
:1011E00010B586B0044614216846FFF7A6F81349E7
:1011F000206888421FD11248016D41F48071016559
:10120000016D01F480710591C16C41F01001C16460
:10121000C06C694600F0100005904FF47C400090CF
:101220000220019000200290032003900A200490E5
:101230000448FFF7A9F906B010BD0000001000A097
:1012400000100240001000480248016841F004010B
:1012500001607047001002402DE9F05F0646002053
:10126000E14A4FF4807C4FF400444FF4FA454FF4C8
:101270000079B6F5003F0DD0D168F02701F00301E9
:10128000DFF86883DA4B012921D0022931D0032904
:1012900039D133E0D2F8901001F4407161450AD0A1
:1012A00049450ED0B1F5407F03D11168890300D5BF
:1012B000D04800F0A3B9D2F890108907F9D520469C
:1012C000F7E7D2F894108907F3D52846F1E71168BB
:1012D000890718D51168090703D5116801F0F001D5
:1012E00003E0D2F8941007EA1111090958F8211007
:1012F0000AE01168490506D5194605E01168890319
:1013000001D5BD4900E00021CB464FF4804E4FF49B
:1013100000694FF4805A5E457DD02ADC102E7BD0C8
:1013200013DC012E79D0022E78D0042E77D0082E2F
:10133000BFD1D2F8881011F0C00171D0402970D00F
:10134000802915D0C029B4D1B5E7202E6AD0402E0F
:1013500069D0802E68D06645ABD1D2F8881011F4E0
:1013600040315DD0B1F5803F5BD0B1F5003FA0D1F9
:1013700030E1764579D00ADCB6F5806F76D04E45FF
:1013800028D0564528D0B6F5005F92D10AE0A64293
:101390006DD0B6F5803F6BD0B6F5802F02D0B6F594
:1013A000002F86D1D2F8883003F04063B3F1806F0C
:1013B0003BD0B3F1006F1CD0B3F1406F86D1116800
:1013C00089077FF57DAF106800070AD5106800F027
:1013D000F0000AE0484600E0504600F012B902F082
:1013E000E3B8D2F8940007EA1010000958F820007A
:1013F0005FE713689B01FBD5D368DB02F8D5D068A3
:10140000C0F30210401CB1FBF0F0D168C1F306211B
:101410004843D1681AE0B6E043E01AE029E034E03E
:10142000A2E066E04AE094E09FE013681B01DFD58C
:101430001369DB02DCD5D068C0F30210401CB1FB9D
:10144000F0F01169C1F3062148431169C1F341511C
:101450006FE0D2F8881011F0030176D0012948D04E
:1014600002296CD00329C3D125E735E09BE0A9E030
:1014700066E0D2F8881011F00C0175D004297ED0F6
:1014800008295CD00C29B3D115E7D2F8881011F0E7
:10149000300169D0102972D0202950D03029A7D12D
:1014A00009E7D2F8881011F440715DD0614566D02B
:1014B000594544D0B1F5407F9AD1FCE6D2F8881066
:1014C00011F4406150D0B1F5806F58D0494536D005
:1014D000B1F5406F8CD1EEE6D2F8883003F040537E
:1014E000B3F1805F06D0B3F1005F12D0B3F1405F7B
:1014F000B9D144E01369DB0199D5D068C0F302107B
:10150000401CB1FBF0F01169C1F306214843116999
:101510000DE05369DB018AD5D068C0F30210401C8E
:10152000B1FBF0F05169C1F3062148435169C1F3A1
:101530004161491C4900B0FBF1F0BAE605E049E021
:10154000D2F8880010F0004F19D100F05FB800F019
:1015500003BBD2F8881011F4405140D051450ED051
:10156000B1F5005FE9D135E039E0D2F8881011F427
:10157000404134D0714502D0A142DED12AE000F0D2
:101580004AB800F0FBBAD2F8881011F4402126D0F6
:10159000B1F5802F3FF495AEB1F5002F1AD0B1F51B
:1015A000402FCAD187E6D2F8881011F4401116D026
:1015B000B1F5801FEED0B1F5001F0BD0B1F5401F83
:1015C000BBD178E6D2F8881011F0804107D0B1F194
:1015D000804FB2D111684905AFD5184669E600F0D1
:1015E0001FB800F0A7BA000000100240E06C00082D
:1015F0000024F40090D0030000127A0030BCBDE853
:10160000C09F30BCBDE8C05FFFF7E9BE30BCBDE89D
:10161000C05FFFF79CBF30BCBDE8C05FFFF7B1BF44
:1016200030BCBDE8C05FFFF7DCBF00002DE9F84F1C
:10163000044600270088E54D3E46010504F1200BD5
:101640001DD5606E78B1B0F5800F11D0B0F5000FE8
:1016500004D0B0F5400F22D001270FE0E86840F435
:101660008030E8601BE00021201D02F005F803E057
:101670000021584602F096F8070010D03E46208818
:10168000C00426D5A06EC0B1B0F1807F1AD0B0F1F1
:10169000007F0DD0B0F1407F19D0012718E0D5F8B8
:1016A0008800616E20F440000843C5F88800E6E732
:1016B000E86840F48030E86009E00021201D01F076
:1016C000DBFF03E00021584602F06CF80746F7B153
:1016D0003E46206880033AD5A86D4FF00008C00050
:1016E00009D4A86D40F08050A865A86D4FF001089E
:1016F00000F080500090DFF8D8A2DAF8001041F432
:101700008071CAF80010FFF729F8814610E0D5F87B
:101710008800A16E20F040700843C5F88800D8E723
:10172000FFF71CF8A0EB0900022801D9032705E008
:10173000DAF80000C005F3D5002F7CD04FEA070689
:10174000B8F1000F03D0A86D20F08050A865207874
:10175000C00707D0D5F88800A16B20F0030008432C
:10176000C5F888002078800707D5D5F88800E16B98
:1017700020F00C000843C5F888002078400707D502
:10178000D5F88800216C20F030000843C5F88800A7
:101790002078000707D5D5F88800616C20F0C000DC
:1017A0000843C5F888002078C00607D5D5F888001A
:1017B000A16C20F440700843C5F8880020788006AA
:1017C00007D5D5F88800E16C20F440600843C5F8DF
:1017D00088002088800507D5D5F88800E16D20F4C1
:1017E00040200843C5F888002088400507D5D5F873
:1017F0008800216E20F440100843C5F88800207846
:10180000400607D5D5F88800216D20F440500843E4
:10181000C5F888002078000607D5D5F88800616DE6
:1018200020F440400843C5F888002088C00509D549
:10183000D5F8880000E01CE0A16D20F4403008439A
:10184000C5F8880020884FF0006780044FF080685A
:101850004FD5D5F88800E16E20F040600843C5F808
:101860008800E06EB8423CD1E86840F48010E8603F
:101870003FE0D5F8900010F4407015D0D4F88410F3
:10188000814211D0D5F89000D5F8901020F4407026
:1018900041F48031C5F89010D5F8901021F48031D2
:1018A000C5F89010C5F89000C00710D0FEF756FF9D
:1018B000074641F2883906E0FEF750FFC11B494553
:1018C00001D903263CE7D5F890008007F4D5D5F878
:1018D0009000D4F8841020F440700843C5F89000BC
:1018E0002EE7404505D10121201D01F0C5FE00B1C4
:1018F00006462068000317D5D5F88800216F20F030
:1019000040600843C5F88800206FB84204D1E868F9
:1019100040F48010E86007E0404505D10121201D1A
:1019200001F0AAFE00B106462068400317D5D5F89D
:101930008800616F20F040600843C5F88800606F40
:10194000B84204D1E86840F48010E86007E0404500
:1019500005D10121201D01F08FFE00B1064620882F
:1019600040041AD5D5F88800A16F20F040500843F4
:10197000C5F88800A06FB0F1805F03D0B0F1005FC0
:1019800005D00AE00221201D01F076FE03E00221CD
:10199000584601F007FF00B106462088000407D52D
:1019A000D5F88800E16F20F080400843C5F8880032
:1019B0002068C00307D555F8880FD4F8801020F0B0
:1019C000004008432860304600F004B80010024090
:1019D0000070004018BCBDE8E08F00002DE9F04722
:1019E0000F46050058D03F4E306800F00700B8425F
:1019F00009D2306820F0070038433060306800F0CA
:101A00000700B84248D12878374CC0072CD0686806
:101A1000032811D0022812D0216898B14905002965
:101A20003ADAA16821F003010143A160FEF796FEB6
:101A3000804641F2883910E021688901EFE721688A
:101A40008903ECE78907EAE7FEF788FEA0EB0801C7
:101A5000494502D90320BDE8F087A068696800F015
:101A60000C00B0EB810FEFD12878800705D5A06876
:101A7000A96820F0F0000843A060306800F007007B
:101A8000B8420BD9306820F0070038433060306826
:101A900000F00700B84201D00120DCE728784007B9
:101AA00005D5A068E96820F4E0600843A0602878C4
:101AB000000706D5A068296920F4605040EAC100FB
:101AC000A06000F05BF8A168084AC1F30311515C03
:101AD00001F01F01C84006490860BDE8F04700203A
:101AE000FFF75AB90020024000100240D06C0008F5
:101AF0001C0000200F2202600C4A936803F00303CD
:101B00004360936803F0F0038360936803F4E06339
:101B1000C36092684FF4E06303EAD20202610448B2
:101B2000006800F0070008607047000000100240E5
:101B3000002002400548064900688968054AC1F34B
:101B40000221515C01F01F01C84070471C000020B9
:101B500000100240106D00080548064900688968B9
:101B6000054AC1F3C221515C01F01F01C840704712
:101B70001C00002000100240106D000870B52549BF
:101B8000002318468A68CC6812F00C0204F00306A1
:101B9000214C4FEA640509D00C2A05D0042A26D02E
:101BA000082A00D1284670BD012E10D10B681B07F2
:101BB00004D4D1F89430C3F3032302E00B68C3F3D9
:101BC0000313164E56F823307AB10C2AEBD1C868AD
:101BD00000F00302C868C0F30210401C022A08D0BB
:101BE000032A09D0B3FBF0F008E0184670BD204688
:101BF00070BDB4FBF0F001E0B5FBF0F0CA68C96855
:101C0000C2F306225043C1F34161491C4900B0FBB5
:101C1000F1F070BD001002400024F400E06C0008F8
:101C20002DE9F84305007CD0FD4CA06800F00C06BF
:101C3000E06800F003072878C00661D576B10C2E65
:101C400001D1012F0AD0A8690028206878D040F07F
:101C500001002060FEF782FD804659E02068800781
:101C600002D5A8690028DED0286A2168090703D5B3
:101C7000216801F0F00104E0D4F89410F02202EAA7
:101C80001111884215D901F011FE002849D12068B0
:101C900040F0080020602068296A20F0F000084326
:101CA00020606068E96920F47F4040EA01206060BC
:101CB00015E0206840F0080020602068296A20F0C4
:101CC000F000084320606068E96920F47F4040EA42
:101CD00001206060286A01F0E9FD0028D6D1FFF7F5
:101CE0004DFFA168CF4AC1F30311515C01F01F0100
:101CF000C840CD4908600020FFF74EF800287DD18C
:101D00002FE000BFFEF72AFDA0EB0800022876D8DE
:101D100020688007F6D5206840F008002060206821
:101D200001E0BBE00CE0296A20F0F00008432060ED
:101D30006068E96920F47F4040EA0120606010E0BB
:101D400020F001002060FEF709FD804606E000BF9C
:101D5000FEF704FDA0EB08000228D8D82068800711
:101D6000F6D42878C00740D0082E18D00C2E01D108
:101D7000032F14D06868B0F5803F17D0B0F5A02FBE
:101D8000206817D020F480302060206820F4802064
:101D900020606868E0B1FEF7E1FC804614E020684E
:101DA000800322D56868002878D01EE0206840F4BF
:101DB0008030EDE740F480202060F7E7FEF7CEFCAE
:101DC000A0EB08006428A2D820688003F6D50CE0B8
:101DD000FEF7C4FC804605E0FEF7C0FCA0EB08005F
:101DE000642894D820688003F6D4287880073BD5EF
:101DF000042E11D00C2E04D1022F01E036E1A1E017
:101E00000AD0E868002820681ED040F48070206066
:101E1000FEF7A4FC07460CE0206840050CD5E868F6
:101E20000028C1D008E000BFFEF798FCC01B0228C4
:101E300093D820684005F7D56068297C20F0F850D9
:101E400040EA016060600FE020F480702060FEF7DF
:101E500085FC074605E000BFFEF780FCC01B02289A
:101E600070D820684005F7D42878000729D568691C
:101E70000028D4F8940012D040F00100C4F8940077
:101E8000FEF76CFC074604E0FEF768FCC01B022866
:101E900058D8D4F894008007F6D512E0EDE020F091
:101EA0000100C4F89400FEF759FC074605E000BFA6
:101EB000FEF754FCC01B022844D8D4F894008007D5
:101EC000F6D42878400768D5A06D0027C00008D454
:101ED000A06D40F08050A065A06D012700F08050FB
:101EE000009052480168C90512D40168814641F446
:101EF00080710160FEF732FC804605E0FEF72EFCA3
:101F0000A0EB080002281DD8D9F80000C005F5D5BF
:101F1000A868012817D00528D4F8900018D020F020
:101F20000100C4F89000D4F8900020F0040000BF35
:101F3000C4F89000A86841F28839D0B1FEF70EFCD1
:101F4000804611E06BE0D4F8900040F00100EFE72C
:101F500040F00400C4F89000F5E700BFFEF7FEFB78
:101F6000A0EB080149455AD8D4F890008007F5D570
:101F70000EE0FEF7F3FB804606E000BFFEF7EEFB47
:101F8000A0EB0801494570D8D4F890008007F5D43B
:101F90001FB1A06D20F08050A065A86AF0B30C2E90
:101FA0006BD00228206820F08070206004D0206868
:101FB00010F0205F47D04AE0FEF7D0FB064604E071
:101FC000FEF7CCFB801B02284FD820688001F7D495
:101FD000286BE96A000110380843696BAA6B090293
:101FE000120941EA42410843A98F114A490802EB0C
:101FF0004151084395F840104908120102EB416134
:102000000843E060206840F080702060E06840F0A5
:102010008070E060FEF7A2FB054610E02BE024E0B4
:1020200000100240D06C00081C000020007000402E
:102030000000E0FFFEF792FB401B022815D8206845
:102040008001F7D517E0E06820F00300E060E06869
:102050000B490840E060FEF781FB054608E000BF41
:10206000FEF77CFB401B022802D90320BDE8F88361
:1020700020688001F4D40020F8E70120F6E7000092
:10208000FFFFEEFE2DE9F04104000CD094F87D0036
:10209000002620B984F87C60204600F0CDF8204668
:1020A00001F042FC10B10120BDE8F081022084F86B
:1020B0007D00E06820B101280ED002280ED000205B
:1020C000A2684FF400612AB1012A09D0022A0AD07D
:1020D000032A0AD000250BE01020F1E72020EFE7CB
:1020E0004FF4806504E00D4602E00D4640F001002B
:1020F0004D4B4D4A27682033974201D09F4202D171
:10210000494F3F1F00E0494F3860E069E8B120685F
:10211000904201D0984201D1084601E04FF480502E
:10212000FFF79AF8E16900EB800040004902B0FB3C
:10213000F1F10A22B1FBF2F0B1FBF2F302FB131151
:102140002062082901D9401C206260684FF40071A8
:10215000E8B3022864D0E06B012800D00021206899
:102160000268334B1A400260226B60681043D4E966
:102170000D231A4310430843616A28430843216929
:10218000084361690843218C40EA015120680268D4
:1021900011430160206841684EF20F029143416093
:1021A00021684868A2691043D4E90A231A431043FE
:1021B0004860206881681F4A11408160A16C206DD1
:1021C000226C0843E16C521E1143084300E027E0F3
:1021D000616C6FF0FF0202EB0121084321688B68FC
:1021E000184388602068C1684FF220031940C1601D
:1021F000D4E915010843E16D02EB0121B4F8602038
:1022000041EA024108432168CA681043C860C4F823
:102210008060012084F87D0084F87C60002043E722
:10222000E06B01289AD09AE704540140005801401D
:1022300010C005FF0080F8FF2DE9F04F0746006849
:102240002749284C0026DFF8A0B0284D87B04FF072
:1022500002084FF0030A4FF00D09884221D1286887
:1022600038B9216E41F400112166216E01F400118C
:102270000591401C28607420CDE90008CDE9026A70
:102280006946CDF810905846FEF77EF94FF400707D
:102290000090CDE90186CDE9036969465846FEF70D
:1022A00073F90F4938682031884216D1286838B947
:1022B000216E41F400112166216E01F40011059197
:1022C000401C28608020CDE90008CDE9026A6946FB
:1022D000CDF810905846FEF757F907B000F008B84F
:1022E000045401400010024000100048100000207B
:1022F00030BCBDE8C08F2DE9F041040005D00025B9
:10230000A56294F85D0018B107E00120BDE8F081F6
:1023100084F85C50204600F045F8022384F85D30D4
:102320002068016821F040010160E0684FF4E06638
:10233000B04201D9002101E04FF48051B0F5706F37
:1023400002D0B04200D0A562276B012227B9B0426B
:1023500001D9236300E02263D4E901031843D4E9DF
:10236000043633431843238B03F400731843E369A3
:102370001843236A1843A36A184323681860636BE1
:10238000606AA66918430427E36807EA16463343E0
:102390001843084321684860256684F85D200020C2
:1023A000B4E7000010B586B0044614216846FDF776
:1023B000C4FF1249206888421ED11148816D41F442
:1023C00080418165816D01F480410591C16C41F0CE
:1023D0000801C164C06C694600F0080005901A202D
:1023E000009002200190002002900320039005201D
:1023F00004900448FEF7C8F806B010BD003800404D
:1024000000100240000C0048704770477047000001
:1024100070B590F83C20012A24D0012480F83C407B
:10242000022280F83D200268536895680E4EB24241
:1024300002D00E4EB24203D123F470064B683343F0
:1024400023F070060B688968334325F08005294323
:1024500053600268916080F83D40002180F83C1094
:10246000084670BD022070BD002C014000340140C0
:1024700010B5040003D094F83D0010B107E001202E
:1024800010BD002084F83C00204600F00DF802202A
:1024900084F83D00211D206801F004FB012084F830
:1024A0003D00002010BD000008B50068B0F1804F6D
:1024B00008D10548816D41F001018165806D00F012
:1024C0000100009008BD0000001002400168CA68C9
:1024D00042F00102CA600068826807490A40062A81
:1024E00008D082680A40B2F5803F03D0016841F00D
:1024F00001010160002070470700010070B504462B
:1025000090F83C00012817D0012584F83C500220A7
:1025100084F83D0020688268324E324022F47F42C7
:1025200082600868502839D00DDC202855D005DCA1
:1025300098B3102843D150E0022070BD30284CD011
:1025400040283CD141E0602830D070280CD0B0F554
:10255000805F03D0B0F5005F31D112E02068816860
:10256000204A7032114016E0CB68D1E90121206881
:1025700001F0F8FA21688868304040F07700886000
:102580001DE0CB68D1E90121206801F0EBFA206859
:10259000816841F48041816011E01EE0CA684968A9
:1025A000206801F079FC5021206806E0CA6849687B
:1025B000206801F082FC6021206801F0DDFA84F8D7
:1025C0003D50002084F83C0070BDCA68496820680E
:1025D00001F062FC40212068EFE7226801461046C6
:1025E000EBE7000088FFFEFF704770B50446006807
:1025F00001694FF00005C943890715D4C168C94373
:10260000890711D4E91E01610120207720688069C3
:102610008007204602D0FFF7E7FF04E000F0A7F8AC
:10262000204600F055F9257720680169C94349071C
:1026300017D4C168C943490713D46FF0040101617D
:10264000022020772068806910F4407F204602D065
:10265000FFF7CAFF04E000F08AF8204600F038F9DE
:10266000257720680169C943090716D4C168C943A1
:10267000090712D46FF00801016104202077206857
:10268000C0698007204602D0FFF7AEFF04E000F0EB
:102690006EF8204600F01CF9257720680169C943CF
:1026A000C90617D4C168C943C90613D46FF0100115
:1026B0000161082020772068C06910F4407F20461F
:1026C00002D0FFF791FF04E000F051F8204600F03F
:1026D000FFF8257720680169C943C90708D1C16897
:1026E000C943C90704D1891E0161204600F0F2F8F0
:1026F00020680169C943090609D4C168C9430906AC
:1027000005D46FF0800101612046FFF77EFE20684E
:102710000169C943C90509D4C168C943090605D47B
:102720006FF4807101612046FFF76EFE2068016939
:10273000C943490609D4C168C943490605D46FF0A5
:1027400040010161204600F0CFF820680169C943CB
:1027500089060BD4C168C943890607D46FF02001EC
:1027600001612046BDE87040FFF750BE70BD704764
:1027700070B5044690F83C000D4601280ED00126A5
:1027800084F83C60022084F83D000C2A45D007DC28
:102790005AB1042A1BD0082A78D12CE0022070BD3F
:1027A000102A4ED0142A71D15DE0206801F0ECF9B6
:1027B0002068816941F0080181612068816921F008
:1027C00004018161206881692A69114311E0206850
:1027D00001F028FA2068816941F400618161206874
:1027E000816921F480618161206881692A6941EAF7
:1027F000022181614AE0206801F05CFA2068C16929
:1028000041F00801C1612068C16921F00401C16182
:102810002068C1692A69114311E0206801F092FA29
:102820002068C16941F40061C1612068C16921F477
:102830008061C1612068C1692A6941EA0221C161E0
:1028400024E0206801F0B8FA2068416D41F00801E9
:1028500041652068416D21F0040141652068416DAA
:102860002A69114311E0206801F0DEFA2068416D09
:1028700041F4006141652068416D21F4806141654A
:102880002068416D2A6941EA0221416584F83D6072
:10289000002084F83C0070BD10B5040003D094F80B
:1028A0003D0010B107E0012010BD002084F83C007D
:1028B000204600F00CF8022084F83D00211D20681D
:1028C00001F0F0F8012084F83D00002010BD7047B1
:1028D0007047000000680349884201D1FEF73EBA04
:1028E00070470000002C014070477047704700009F
:1028F0002DE9F04102680446D0691168936810F030
:102900000F0F4FF000055BD003F0010601F4907744
:10291000374369D0C70707D0CF0505D50127176210
:10292000626F42F001026267820708D5DA0706D0BB
:10293000276802223A62626F42F00402626742072D
:1029400008D5DA0706D0236804221A62626F42F0C3
:102950000202626702070AD501F02002324306D064
:10296000236808221A62626F42F008026267626F8F
:10297000002A32D0800605D5880603D5216E09B11C
:1029800020468847606F000703D4206880684006AF
:1029900025D5204601F03FFB20688168490619D5FE
:1029A000816821F040018160E06E98B12049816327
:1029B000E06EFDF7B4FD00280FD0E06E816B06E0FD
:1029C000860611D58E060FD5216E1EE02046BDE885
:1029D000F04108472046FFF789FFBDE8F081204617
:1029E000FFF784FF6567F8E7C60209D55B0207D5E4
:1029F0004FF4801010622046BDE8F041FFF775BF2C
:102A0000030605D50B0603D5616E0029DED1E4E788
:102A10004006E2D54806E0D51168204621F0400185
:102A20001160202184F87110656600F073F8D4E716
:102A30000340000810B5040003D094F8710010B1F1
:102A400007E0012010BD002084F87000204600F04F
:102A500027F8242084F871002068016821F0010122
:102A60000160204601F0E8FA0128EBD0606A10B15D
:102A7000204601F034FA2068416821F49041416019
:102A80002068816821F02A0181602068016841F096
:102A9000010101602046BDE8104001F084BA000049
:102AA00010B586B0044614216846FDF746FC164969
:102AB0002068884226D11548816D41F40031816536
:102AC000816D01F400310591C16C41F00801C164D0
:102AD000C06C694600F0080005906020009002205C
:102AE00001900120029003200390072004900848E1
:102AF000FDF74AFD002205212620FEF79BFA26203D
:102B0000FEF78CFA06B010BD0044004000100240F1
:102B1000000C004870472DE9F05F074600680E463C
:102B200000EB4114D4F808054FF0040B420701EB09
:102B300086004FF0050A4FF0100807EBC00508D5D6
:102B4000C4F808B5D4F80C0540F00200C4F80C0530
:102B500030E0D4F80805800601D5202028E0D4F81C
:102B600008054FF0080900070FD5D4F80C0540F010
:102B70000200C4F80C0585F85DA0C4F80885C4F807
:102B80000895386802F0DBFB14E0D4F8080540052E
:102B900010D5D4F80C0540F00200C4F80C053868D4
:102BA00002F0CDFBC4F8088585F85D904FF4806095
:102BB000C4F80805D4F8080580050ED5D4F80C052E
:102BC00040F00200C4F80C05314604F5A1643868F1
:102BD00002F0B5FB4FF4007090E0D4F808054FF018
:102BE0000001C0074FF0010237D0386930B1A86C3E
:102BF000D4F81035C3F31203C01AE86485F85D20D9
:102C0000A965C4F8082595F83F0020B1022802D034
:102C100003280FD01AE0D4F80C0540F00200C4F8E5
:102C20000C05314604F5A164386802F088FBC4F84D
:102C300000800BE0D4F8000540F00050C4F8000517
:102C400085F85C2031463846FDF7F7FD15F8500F42
:102C500080F00100287000F074B8D4F808058007EF
:102C600035D5D4F80C0520F00200C4F80C0595F811
:102C70005D000223012808D0052809D006280AD0C3
:102C8000082808D003281FD015E085F85C2012E042
:102C900085F85CA00FE0A86D401CA865032813D937
:102CA000A96585F85CB0D4F8000520F0804040F0BC
:102CB0000040C4F80005C4F8083595F85C2031469A
:102CC0003846FDF7BAFDC6E785F85C30EBE7D4F887
:102CD0000805000614D5D4F80C0540F00200C4F82D
:102CE0000C05A86D3146401CA865062085F85D00DE
:102CF00004F5A164386802F022FB80202060AAE776
:102D0000D4F80805C006A6D595F83F00032803D0DF
:102D100020B1022802D011E0A96505E0A965386953
:102D200060B9032085F85D00D4F80C0540F002007E
:102D3000C4F80C053146386802F001FBC4F8088578
:102D400089E730BCBDE8C09F2DE9F047026802EB7F
:102D50004114D4F808254FF00403520709D5C4F8EC
:102D60000835D4F80C0540F00200C4F80C05BDE8A5
:102D7000F087D4F8082501EB810596064FF0000294
:102D800000EBC5054FF0020C15D52023C4F808351B
:102D900095F83D30012BEAD185F83D2085F85CC0DF
:102DA000D4F80C2542F00202C4F80C250068BDE8F6
:102DB000F04702F0C4BAD4F8086577064FF0010670
:102DC00011D585F85D3085F83D60AA65D4F80C25ED
:102DD00042F00202C4F80C25006804F5A16402F078
:102DE000AEFA402010E0D4F80875BF050ED5D4F82F
:102DF0000C2542F00202C4F80C25006804F5A16419
:102E000002F09DFA4FF400702060B0E7D4F8087526
:102E1000FF070FD0AA65D4F80C2542F00202C4F8CF
:102E20000C25006804F5A16402F089FA266085F893
:102E30005D609CE7D4F808754FF005095FEA0778F4
:102E40004FF008070DD5C4F80875D4F80C2542F0EA
:102E50000202C4F80C25006802F071FA85F85D9052
:102E600085E7D4F808854FF0100A5FEAC86818D5DE
:102E7000AA65032285F85D2095F83D2022B995F8D2
:102E80003C200AB985F83D60D4F80C2542F00202D6
:102E9000C4F80C25006804F5A16402F050FA50460D
:102EA000B2E7D4F808855FEA08680FD5D4F80C2596
:102EB00042F00202C4F80C25006804F5A16402F097
:102EC0003EFA062085F85D0080209DE7D4F808854D
:102ED0005FEA485812D5D4F80C2542F00202C4F833
:102EE0000C25006804F5A16402F029FAC4F800A0DA
:102EF0004FF48060206085F85D7038E7D4F808757D
:102F0000BF0796D5D4F80C7527F00207C4F80C75E6
:102F100095F85D70012F0AD0032F15D0042F13D020
:102F2000052F14D0062F15D0082F13D025E085F8D3
:102F30005C6095F83F20022A1FD195F8512082F05D
:102F4000010285F8512018E085F85CC015E085F88D
:102F50005C9012E0AE6D761CAE65032E03D9AA65B7
:102F600085F85C3001E085F85CC0D4F8002522F0DB
:102F7000804242F00042C4F80025C4F808C595F824
:102F80005C20FDF75AFCF2E67CB504680546D4F8EF
:102F900040040190D4F8400420F02E0000900198E5
:102FA00080070DD50198C00706D0A06920F0005118
:102FB000A1612846FDF7D8FB009840F00200009080
:102FC0000198000732D5009840F008000090019861
:102FD00040071DD5A869022803D0E86803280CD053
:102FE0000FE00198C0F341400228286803D0012176
:102FF00002F05EFB05E00221FAE74EF66020C4F81D
:1030000004042846FDF776FD2846FDF7ADFB0DE0EC
:103010002846FDF76BFDD4F8400420F02E00C4F8DC
:1030200040042868816941F000518161019880065F
:10303000009802D540F020000090C4F840047CBD08
:103040002DE9F041024600680646016AC1F3434398
:1030500001F00F07C1F30A14022B25D1002C23D055
:1030600007EB870102EBC105696C00291CD02246E1
:1030700002F03DFB686C20446864E86C2044E8641E
:1030800006EB4710D0F81015084A11420CD0D0F8C2
:10309000001521F0804141F00041C0F8001515F8FD
:1030A000500F80F001002870BDE8F0810000F81F8B
:1030B000FEE770B50446FDF751FB05464FF47A76FE
:1030C00008E0FDF74BFB401BB04203D90120A06391
:1030D000032070BD20688068C0438006F1D40020C2
:1030E00070BD000028B100224FF400710248FDF7C6
:1030F00030BB0122F8E70000000800482DE9F04F3E
:1031000087B014216846FDF718F96948C16C41F091
:103110001001C164C16C01F010010591C16C41F056
:103120000401C164C16C01F004010591C16C41F05E
:103130008001C164C16C01F080010591C16C41F056
:103140000101C164C16C01F001010591C16C41F044
:103150000201C164C16C01F002010591C16C41F032
:103160000801C164C06C002200F00800059040F224
:1031700009115048FDF7EDFADFF83CB100220C21AF
:103180005846FDF7E6FA012251024C48FDF7E1FAF4
:1031900000224FF400614948FDF7DBFA002280214C
:1031A0004748FDF7D6FA4FF0080A02270125002408
:1031B000CDF800A00397CDE9015469463D48FDF7DD
:1031C000E3F9404E4FF41050CDE9000669460294F1
:1031D0003A48FDF7D9F90720CDE900046946374898
:1031E0000294FDF7D1F92F208DE891004FF090481F
:1031F00069464046FDF7C8F91020CDE9000669464A
:1032000002944046FDF7C0F90420CDE900054FF0D7
:103210000308CDE9025869465846FDF7B5F94FF461
:103220008079CDE90095CDE9025869462148FDF73E
:10323000ABF94FF420600090CDE9015469461F4876
:103240000394FDF7A1F90520CDE900066946029433
:103250001B48FDF799F98020CDE90005CDE902482A
:1032600069461748FDF790F9CDF800A0CDE9015463
:10327000694658460394FDF787F9CDF80090CDE9EB
:10328000016469465846FDF77FF90095CDE9015480
:10329000694608480394FDF777F90097CDE9016482
:1032A00069460448FDF770F907B000F00DB800005A
:1032B00000100240001000480004004800080048C8
:1032C000000C00480000121030BCBDE8C08F0000A8
:1032D0000E4810B50C4901600D49416000210122E2
:1032E000C0E90212016141618161C1610162FDF7C2
:1032F00089FC00210548FDF730FCBDE810400021A5
:103300000248FDF755BC000000540040A800002012
:10331000EC9C90100E4810B50C4901600D494160BD
:1033200000210122C0E90212016141618161C16194
:103330000162FDF767FC00210548FDF70EFCBDE8C2
:10334000104000210248FDF733BC00000058004047
:10335000F4000020EC9C90100A480949016000210B
:103360000C224160C0E90212016141618161C161C9
:10337000016201638162C1624162FDF747BD0000E5
:10338000002400404001002070B5214800241F495E
:103390000463C0E900144026C0E90D64C46384607E
:1033A00004611C494461C0E90641C460446284620E
:1033B0000821C46201250164C0E91154C464046594
:1033C0004465C0E916450466FEF75CFE0F491048E7
:1033D00020318430016003214160C0E90C468463E0
:1033E000C46304618461C0E90254446284621821A8
:1033F000C4620164C0E91154C46404654465C0E951
:1034000016450466BDE87040FEF73CBE045401401A
:10341000C001002000EE02000E480D494FF440723A
:1034200001604FF4827141600021C0E902124FF443
:1034300000720161C0E90512C161016207224162A7
:10344000C0E90A12016308214163FEF754BF00007E
:1034500000380040C802002010B58EB00024079448
:10346000089409940A940B940C941C2168460D94BA
:10347000FCF763FF17484FF0804101604FF4FA51A9
:10348000C0E90114C821C0E903148461FEF7F0FF0C
:103490004FF48050079007A90E48FFF72FF80D480A
:1034A000FFF7FAF90B940BA90A480D94FEF7B0FF49
:1034B000602000900520CDE90104002269460548FE
:1034C0000494FFF755F9042269460248FFF750F9C2
:1034D0000EB010BD2C0300200948084901604FF4CC
:1034E00016514160002181600C22C160C0E90412C4
:1034F0008161C16101624162FFF79CBA00440040F2
:103500006C03002010B501220649074801F042FB78
:103510000649054801F01DFEBDE81040024801F0D3
:103520005BBE0000ED510008E40300208000002095
:10353000FEE770470907090E002806DA00F00F00C1
:1035400000F1E02080F8141D704700F1E02080F8C1
:10355000001470470148FDF7BBB90000BC0700200C
:103560002DE9F041984616460F460446069D08E0B0
:10357000681C06D0FDF7F2F8A0EB0800A8420AD8B4
:103580004DB120688068384000D00120B042EFD1B2
:103590000020BDE8F081042084F83900E06B40F0A1
:1035A0000100E0630120F4E710B503460020304C31
:1035B000304AB3F5006F03D0B3F5805F09D03FE028
:1035C000D2F8883003F44003B3F5400F08D1204609
:1035D00010BDD2F8883003F04073B3F1407FF6D0CD
:1035E000B3F5000F1AD0B3F1007F17D043B3B3F592
:1035F000800F02D0B3F1807FEAD15369DB03E7D5B6
:10360000D068C0F30210401CB1FBF0F35069C0F366
:1036100006215069800329D511200DE0D368DB0312
:10362000D6D5D068C0F30210401CB1FBF0F3D068CF
:10363000C0F30621D068EDE74B43B3FBF0F010BDBB
:103640001369DB03FBD5D068C0F30210401CB1FB4B
:10365000F0F310691169C0F30620890301D5112127
:1036600000E007214343B3FBF1F010BD0720E3E77F
:1036700068FF1F00001002402DE9F041444C054650
:103680008846E0680026810728680DD0E16801F0CF
:103690000301814216D1A8B1E0686968C0F3021045
:1036A000401C88420ED120E0012804D0022805D019
:1036B000032807D108E02168890701E0216849054E
:1036C000002907DB01265FE02168890302D4216815
:1036D0004903F5E7E1686A686FF00F0321F07301B1
:1036E00003EB021211430143E160206820F0806087
:1036F0002060FDF733F8074605E000BFFDF72EF820
:10370000C01B022837D820680001F7D4B8F1000F99
:1037100018D0B8F1010F1ED0287D4FF07E4140082F
:1037200001EB4060A96840EA01202169194A114073
:1037300008432061206840F080602060FDF70EF8AB
:1037400007461AE0A868E9680002090940EA414012
:103750002169114AEBE7288A1049400801EB4050E3
:10376000A96840EA012021690D4AE0E7FCF7F6FF6D
:10377000C01B022801D9032606E020680001F5D508
:103780002069A969084320613046BDE8F081000046
:1037900000100240FF80FFF9FF80FDFF0000E0FF06
:1037A000FF809FFF2DE9F0413D4C06468846E068CA
:1037B0000025810730680DD0E16801F003018142E6
:1037C00016D1A8B1E0687168C0F30210401C8842AD
:1037D0000ED120E0012804D0022805D0032807D10B
:1037E00008E02168890701E021684905002907DB15
:1037F000012551E02168890302D421684903F5E7D6
:10380000E16872686FF00F0321F0730103EB02129D
:1038100011430143E160206820F080502060FCF7F4
:103820009DFF074605E000BFFCF798FFC01B02287C
:1038300029D820688000F7D4B8F1000F15D0307C6B
:103840004FF07E41400801EB4060B16840EA012042
:103850006169144A114008436061206840F080505B
:103860002060FCF77BFF07460FE0B068F1680002BC
:10387000090940EA414061690B4AEBE7FCF76EFF3A
:10388000C01B022801D9032506E020688000F5D579
:1038900060697169084360612846BDE8F0810000F5
:1038A00000100240FF80FFF9FF80FDFFF8B51C4DBE
:1038B00006460024A86DC00002D5FDF729FC0DE0E6
:1038C000A86D40F08050A865A86D00F08050009071
:1038D000FDF71EFCA96D21F08051A965B0F5007FB0
:1038E00004D0802E07D94FF003040AE0802E08D9B7
:1038F000A02E01D804E001D1022402E0702E00D1F4
:1039000001240848016821F0070121430160006893
:1039100000F00700A04201D00120F8BD0020F8BD52
:10392000001002400020024010B50E4941F6583206
:1039300003680968B1FBF2F189001C68002224F4D5
:1039400080341C6031B103681B68491EDB03F9D465
:10395000104610BD50F8801F41F040010160032265
:10396000F6E700001C000020FFF7CCFD012002F06C
:1039700015F8FBE710B5502080F31188BFF34F8F87
:10398000BFF36F8F03F046F818B104494FF0805031
:103990000860002080F3118810BD000004ED00E0F5
:1039A000F0B5B9B0442122A8FCF7C7FC142133A814
:1039B000FCF7C3FC88216846FCF7BFFCFDF7B0FBB1
:1039C000224850F8901F21F01801016001251C20A9
:1039D0002795249500242290CDE9285402266020C2
:1039E000CDE92C652A9028200727CDE92E50CDE976
:1039F0003076329622A8FEF713F90F203390032079
:103A0000CDE934043694042133A83794FDF7E6FF5A
:103A10000F94149419940E48159400906C0260044D
:103A20001B9021941820CDE9025001954FF4881085
:103A3000CDE90660CDE904766846FDF7F7FD20463E
:103A4000FDF72AFBFDF700FC39B0F0BD0010024085
:103A5000C22802000D48016841F4700101600C4861
:103A6000016841F001010160002181600268094B99
:103A70001A4002608214C260026822F4802202604E
:103A800081610249C00380390860704788ED00E019
:103A900000100240FFFFF6EA0148FEF7A6BD000055
:103AA000800A00202DE9F0470268264B264D274E5C
:103AB000274F284C4FF0804A984209D0504507D0F4
:103AC000A84205D0B04203D0B84201D0A04204D1F0
:103AD00022F0700C4A6842EA0C02DFF87CC0DFF882
:103AE0007C80DFF87C9098420FD050450DD0A842E2
:103AF0000BD0B04209D0B84207D0A04205D06045F3
:103B000003D0404501D0484503D122F44075CA682E
:103B10002A434D6922F080022A4302608A68C26209
:103B20000A688262984207D0A04205D0604503D05F
:103B3000404501D0484501D1096901630121416136
:103B4000BDE8F087002C0140000400400008004060
:103B5000000C00400034014000400140004401409E
:103B60000048014010B5846842EA032224F47F44EF
:103B70000A432243826010BD826822F070020A4329
:103B800042F00701816070472DE9F043026A22F09C
:103B900001020262056A436882691C4C25F0020535
:103BA00022400C6822F0030214438A68194E2A430B
:103BB000174D194FDFF864C0DFF86490A84207D0B2
:103BC000B04205D0B84203D0604501D0484506D187
:103BD00022F00808CA6842EA080222F00402A84259
:103BE00007D0B04205D0B84203D0604501D0484567
:103BF00005D14D6923F440731D438B692B4343600A
:103C00008461496841630262BDE8F0838FFFFEFF73
:103C1000002C0140003401400040014000440140BC
:103C200000480140F0B5026A22F010020262056A03
:103C300042688369194C1B4E23400C6823F440737F
:103C400043EA042425F020038D6843EA0513144D4C
:103C5000A84201D0B04206D1CF6823F0800343EAE6
:103C6000071323F04003A8420AD0B04208D00E4DFB
:103C7000A84205D00D4DA84202D00D4DA84207D153
:103C80004D6922F4406242EA85028D6942EA85026A
:103C900042608461496881630362F0BDFF8FFFFE6B
:103CA000002C01400034014000400140004401402C
:103CB00000480140F0B5026A22F480720262056A8F
:103CC0004368C269194C1B4E22400C6822F0030263
:103CD000144325F400728D6842EA0522144DA8426F
:103CE00001D0B04206D1CF6822F4006242EA072236
:103CF00022F48062A8420AD0B04208D00E4DA842F9
:103D000005D00E4DA84202D00D4DA84207D14D69F5
:103D100023F4405343EA05138D6943EA05134360D6
:103D2000C4614968C1630262F0BD00008FFFFEFFFD
:103D3000002C01400034014000400140004401409B
:103D40000048014030B5026A22F480520262046ADF
:103D50004268C369124D24F400542B400D6823F4CB
:103D6000407343EA05238D6844EA05340D4DA842AB
:103D70000BD00D4DA84208D00C4DA84205D00C4DDB
:103D8000A84202D00B4DA84204D14D6922F48042D2
:103D900042EA85124260C36149680164046230BD31
:103DA000FF8FFFFE002C0140003401400040014025
:103DB000004401400048014030B5026A22F48032DC
:103DC0000262046A4268436D114D2B400D681D4329
:103DD00024F400330C8943EA04430E4CA0420BD078
:103DE0000D4CA04208D00D4CA04205D00C4CA04276
:103DF00002D00C4CA04204D14C6922F4803242EA39
:103E000004224260456549688165036230BD000057
:103E10008FFFFEFF002C01400034014000400140B4
:103E2000004401400048014030B5026A22F480128B
:103E30000262046A4268436D114D24F400142B4061
:103E40000D6843EA05230D8944EA05540D4DA84247
:103E50000BD00D4DA84208D00C4DA84205D00C4DFA
:103E6000A84202D00B4DA84204D14D6922F4802211
:103E700042EA8522426043654968C165046230BDFB
:103E8000FF8FFFFE002C0140003401400040014044
:103E9000004401400048014010B5036A046A24F060
:103EA00001040462846924F0F00444EA021423F05B
:103EB0000A020A438461026210BD10B5036A23F04E
:103EC000100303628369046A23F4704343EA0232F5
:103ED00024F0A00343EA01118261016210BD90F851
:103EE0002410C90706D001684A68836A22F40032A8
:103EF0001A434A6090F82410890706D501684A6879
:103F0000C36A22F480321A434A6090F824104907A9
:103F100006D501684A68036B22F480221A434A607E
:103F200090F82410090706D501684A68436B22F40B
:103F300000421A434A6090F82410C90606D5016869
:103F40008A68836B22F480521A438A6090F82410A6
:103F5000890606D501688A68C36B22F400521A43A9
:103F60008A6090F82410490611D501684A68036CEC
:103F700022F480121A434A60016CB1F5801F06D109
:103F800001684A68436C22F4C0021A434A6090F800
:103F90002410090606D501684A68806C22F40022C4
:103FA00002434A607047F8B5002604464667FCF7AE
:103FB000D5FB0546206800686FF07E47000708D5EE
:103FC0002B4600224FF400112046009700F084F9A0
:103FD00060B92068006840070AD52B4600224FF4DC
:103FE00080012046009700F077F908B10320F8BD62
:103FF000202084F8710084F8720084F8706000203A
:10400000F8BD10B5806A0021A0F85A10A0F852102F
:10401000FEF76CFC10BD01680A6822F490720A6019
:1040200001688A6822F001028A60202180F87210FB
:1040300000210166704700002DE9F0410446016847
:1040400080682369E66918436369102500273343B4
:104050001843954A0B68954E334003430B60206824
:104060004168E36821F44051194341602168A06927
:10407000914201D0236A18438B6823F430630343D1
:104080008B608B4B21688B4899420DD1D0F888000A
:1040900010F0030006D001285AD0022856D0032879
:1040A00059D157E0012556E0834B99420BD1D0F806
:1040B000880010F00C0047D0042849D0082845D0CB
:1040C0000C2848D146E07D4B99420BD1D0F88800AE
:1040D00010F0300038D010283AD0202836D03028C0
:1040E00039D137E0764B99420BD1D0F8880010F0E7
:1040F000C00029D040282BD0802827D0C0282AD122
:1041000028E0704B99420ED1D0F8880010F440702E
:104110001AD0B0F5807F1BD0B0F5007F16D0B0F577
:10412000407F18D116E0914215D1D0F8880010F4E4
:10413000406009D0B0F5806F0AD0B0F5006F05D0AF
:10414000B0F5406F07D105E0002504E0022502E04C
:10415000042500E008255C4B00264FF40040914206
:104160003DD135B1022D07D0042D07D0082D10D137
:1041700007E0FDF7DFFC03E0184602E0FDF7FEFC78
:10418000A8B3626802EB4201814202D8B0EB023F61
:1041900001D9012775E0DFF834815DB1022D0CD023
:1041A000042D13D0082DF4D150082905401846F1EC
:1041B000000105E0FDF7BEFC0AE050084449F5E7C0
:1041C0000023FCF76DF8A0F5407156E0FDF7D6FC32
:1041D0006268010E0302500818187141F0E7E169A6
:1041E0004FF6EF7881422FD1092DD2D200E048E07E
:1041F000DFE805F006092005230505052600C8E7C8
:10420000FDF798FC01E0FDF7A7FC4100D4F804009D
:1042100001EB5001B1FBF0F080B2A0F1100141457B
:10422000B7D84FF6F0710140C0F342000143206857
:10423000C16026E027496068EAE7FDF79FFCE4E7F4
:104240004FF480316068E3E7092DA2D2DFE805F082
:1042500006091E052205050525009AE7FDF76AFCFB
:1042600001E0FDF779FC0146606801EB500100BFF9
:10427000B1FBF0F080B2A0F11001414589D821686E
:10428000C860266638466666BDE8F081606803EB64
:104290005001EDE7FDF772FCE5E7616800EB5100C6
:1042A000B0FBF1F0E6E7000000800040F369FFEFAB
:1042B0000038014000100240004400400048004027
:1042C000004C0040005000400024F400FFFC0F00B0
:1042D000000024F40048E8012DE9F0419846174613
:1042E0000E460446069D1DE0681C1BD02DB1FCF750
:1042F00035FAA0EB0800A84214D92068016821F41F
:10430000D07101602068816821F001018160202066
:1043100084F8710084F87200002084F87000032093
:10432000BDE8F0812068C06936EA000004D00020B2
:10433000B842D9D00020F3E70120F9E70148FEF7A1
:10434000D7BA00006C03002010B500224FF6FF73AF
:1043500000EB8204B4F88043240409D49A4205D0C7
:1043600000EB820041F40041C0F88013D0B210BDD0
:10437000521CD2B20B2AEBD31A46F7E77FB51C4684
:10438000012501AE0023009586E80E0002232A468F
:10439000214600F04EFD04B0002070BD7FB51D46E3
:1043A00090F81D33089C03B100240123CDE90031AE
:1043B000CDE9022402230022294600F03AFD04B090
:1043C000002070BD70B50446D0F87803C16920465E
:1043D0004031FCF799F8050004D1D4F8C823022134
:1043E00020469047284670BD70B50546D0F8780342
:1043F0000026C469217839B1284600F01FF92178D8
:10440000284600F0AFF92670217B39B1284600F02C
:1044100015F9217B284600F0A5F92673617B39B197
:10442000284600F00BF9617B284600F09BF9667383
:10443000D5F87803C06920B101F0F8F9D5F8780310
:10444000C661002070BDFEB50227054601233A462D
:10445000394600F065F90646FF287ED00146284619
:1044600000F085FE502001F063FAD5F87813044679
:10447000C86106EB860000EBC60005EB400090F833
:104480004A130A0603D56170B0F84C036081617865
:104490002846FFF759FF2070014695F81D036389F0
:1044A00003228DE80D0095F81C336278284600F051
:1044B000D8FC21780022284600F08BFC00231A4605
:1044C0000A21284600F02CF9FF2854D000EB800187
:1044D00001EBC00005EB400090F84A130A0604D532
:1044E000E173B0F84C13618303E0A173B0F84C138F
:1044F000218390F852130A0604D5E173B0F85403EF
:10450000608303E0A173B0F854032083A17B2846A5
:10451000FFF71AFF6073E17B2846FFF715FF207352
:10452000208B95F81D1302260091CDE9016095F8C6
:104530001C33A27B617B284600F093FC608B95F8CE
:104540001D130091CDE9016095F81C33E27B217BBE
:10455000284600F086FC002000E00CE084F84C00C7
:104560000246617B284600F034FC217B002228466D
:1045700000F02FFC00273846FEBD70472DE9F041C2
:104580000546D0F8780301270026C4694FF00408D7
:1045900094F84C0005284AD2DFE800F00305163BEA
:1045A0004200002743E02122A16C2A7420226A7471
:1045B0006E82AE8207222846EA8200F062F848B98D
:1045C000022084F84C0032E004F140012846FBF759
:1045D0009BFF20B101282AD084F84C8027E084F882
:1045E0004C60A06C94F84410027991421FD194F869
:1045F0004610827991421AD194F84510427991423D
:1046000015D1216C0068814211D12846FFF7B5FF12
:104610000DE02846FBF70EFF2846FBF7CCFE06E030
:104620000021284600F00FF808B984F84C6038469D
:10463000BDE8F081704700207047704710B500F06A
:10464000DDFA002010BD8278012A07D1022202740F
:1046500001224274002242828182C28200221146DB
:1046600000F00FB87FB51C46012501AE0023009570
:1046700086E80E002A46214600F0DBFB04B000204D
:1046800070BD70B50446012580782E46012802D001
:1046900002281ED10DE0A160A28126760220A07022
:1046A0000321C4F8D4130022D4F8CC0301F0D4F9C8
:1046B0000FE0204600F006F905004FF0000004D09E
:1046C000032D02D0022D03D003E0A670207600E077
:1046D000A670284670BD7FB51D4690F81D33089C16
:1046E00003B100240123CDE90031CDE902240023E8
:1046F0001A46294600F09DFB04B0002070BD1FB58E
:1047000000231446CDE900310822CDE902231A46E0
:10471000214600F08EFB04B0002010BDFBF726BF41
:1047200070B50546002005F54D7500BF00EB80040F
:1047300004EBC00405EB4404E67B0A348E4201D04E
:10474000FF2909D1A679964201D0FF2A04D1E47944
:104750009C4206D0FF2B04D0401CC0B20228E5D3F7
:10476000FF2070BD0B2907D200EB8100B0F8801349
:10477000C1F30E01C0F880130020704730B4857873
:10478000029C012D0FD141F080010174062141747A
:1047900003214282B1EB122F02D140F2094100E025
:1047A00000218182C482224630BC1946FFF769BFCE
:1047B0000A8803781A440A80017808447047F8B5DB
:1047C0000E4600F11C05009104462B464FF4007282
:1047D0000021FFF7D3FF070005D13246294604F533
:1047E0004D7000F048FB3846F8BD38B50D460091D5
:1047F000044600F58E734FF480720021FFF7BEFF70
:10480000002839D194F81C1184F8221394F81D1152
:1048100084F82313B4F81E11A4F8241394F820117B
:1048200084F8261394F8211184F8271394F82211A0
:1048300084F8281394F8231184F82913082D1BD920
:10484000B4F82411A4F82A13B4F82611A4F82C13F0
:10485000B4F82811A4F82E1394F82A1184F8301310
:1048600094F82B1184F8311394F82C1184F8321336
:1048700094F82D1184F8331338BDF8B51C4616464C
:10488000009341F4407200F58E731D460021FFF73E
:1048900075FF002814D16978032911D129788A1E5F
:1048A000A24200D814460021A2B2AD1C04E06B5C09
:1048B000891C06F8013B89B29142F8D3002131707E
:1048C000F8BD00002DE9F84F04460126007E0B27B5
:1048D0000325B0464FF009094FF0070A4FF00D0BC2
:1048E0000C2819D2DFE800F0BA060E303C465366B9
:1048F00071808DA4627904F110012046FFF7FFFE5C
:1049000002202BE06179204600F0EDF9012804D067
:10491000042817D0022815D0A0E0207CE18A00F0FE
:10492000800031B1802801D1257678E005202076FD
:1049300075E0802803D100BF84F818906FE084F8F8
:1049400018A06CE027766AE0D4F8BC03E0812379F4
:10495000A2892046A168FFF785FE042020767DE02D
:104960002179204600F0BFF90128E5D0052850D173
:10497000032654E0CDF800806379A2892046A1681F
:10498000FFF7A9FED4F8BC03E0810620E6E76179D1
:10499000204600F0A8F90128D1D0052804D002282B
:1049A000C4D0042803D059E00C202076E0E7277615
:1049B000022634E00022237911462046FFF752FEFA
:1049C000D4F8BC03E0810820C8E72179204600F034
:1049D0008AF9012804D00428B4D00528C8D03DE0C5
:1049E00084F818B000261AE0CDF800800022637920
:1049F00011462046FFF76FFED4F8BC03E0810A2081
:104A0000ACE76179204600F06EF9012804D0022855
:104A100092D0042896D021E0002684F818B0C4F87B
:104A2000D45329460022D4F8CC0301F015F815E040
:104A3000607E401CC0B26076022807D8204600F095
:104A4000E8F984F8188084F8028007E0D4F8C823D5
:104A5000062120469047002060760226304600F06E
:104A600000B818BCBDE8E08F2DE9FE4304460126DE
:104A7000407805254FF00008374604F58E72082867
:104A800047D2DFE800F004171F474F57626E082136
:104A90002046FFF7AAFE002876D194F82903A071DA
:104AA000677094F81D130091CDE90180454694F894
:104AB0001C331CE012212046FFF797FE002863D12B
:104AC00002202DE00121204600F05CFB00285BD194
:104AD0000220FFF723FE84F81C7303206070A07986
:104AE00094F81D13CDE900183B4645460290217904
:104AF0008022204600F0B5F9A07994F81D130091AA
:104B0000CDE9015094F81C3361790022204600F071
:104B1000A8F939E009212046FFF751FE00BB042027
:104B2000607031E0B4F836132046FFF748FEB8B99C
:104B3000657029E094F83013062721B1FF23204641
:104B4000FFF79BFE60B9677016E094F831130727F2
:104B50000029F8D0FF232046FFF78FFE00B96770C9
:104B600012E094F8321331B1FF232046FFF785FE9F
:104B700050B9002608E00026C4F8D4532946002284
:104B8000D4F8CC0300F068FF304600F000B806BC53
:104B9000BDE8F88330B587B00D46040029D084F80D
:104BA000C0230020C4F87803C4F87C032046FBF738
:104BB00085FC0DB1C4F8C8530F49D1E90001CDE916
:104BC0000501002105A800F0F5FE0B49C4F8CC034F
:104BD000142208316846FBF797FB2146684600F02F
:104BE00069FFC4F8D003204600F090F8002007B019
:104BF00030BD0220FBE70000186D000810B500244E
:104C0000D0F8C403FBF7CBFD30B1012801D0022856
:104C100001D0022400E00124204610BD70B50446F6
:104C20000078012520B194F81F03012809D00AE07B
:104C300084F81E53D4F8C8232AB104212046904793
:104C400001E002202070C4F8D45329460022D4F891
:104C5000CC0300F001FF002070BD10B5044600F049
:104C6000D8F821792046FFF77DFD61792046FFF7CE
:104C700079FD002084F81E03D4F8C82312B1052161
:104C800020469047204600F0B4F803202070012110
:104C9000C4F8D4130022D4F8CC0300F0DDFE0020C9
:104CA00010BD10B590F8C003012802D10846FEF7E8
:104CB00019FAC820FBF75AFC002010BDD0F8C40335
:104CC000FBF767BD10B50124D0F8C403FBF757FD0F
:104CD00020B1012805D0022803D101E0002400E022
:104CE0000224204610BDD0F8C403FBF74BBDD0F81A
:104CF000BC13491CC0F8BC1301780B2905D1D0F8AE
:104D00007813002901D089690847704710B5044617
:104D100090F8C00301281CD10F484FF0A041002299
:104D2000C0F8C042C4F8C4030160082181600321B7
:104D3000C0E903120221C0E90612FBF762FE08B1C6
:104D4000FBF7E1FB0448FBF717FD0146204600F0A6
:104D50003DF8002010BD0000BC07002010B5012167
:104D6000C0F8D413D0F8CC03002200F075FE002068
:104D700010BDFEB508AC94E8E0008DE8E00000242A
:104D8000D0F8C403FBF71DFD30B1012801D0022883
:104D900001D0022400E001242046FEBD002180F85D
:104DA0001F137047012180F81F13704710B50024AE
:104DB000D0F8C403FBF7A2FE30B1012801D00228CD
:104DC00001D0022400E00124204610BDC0F8BC132D
:104DD0007047D0F8C40301EB810100EBC10090F8EB
:104DE0003B1011B180F8502001E080F851200020E4
:104DF000704710B50024D0F8C403FBF786FE30B12D
:104E0000012801D0022801D0022400E0012420461C
:104E100010BD10B50024D0F8C403FBF78CFE30B1F0
:104E2000012801D0022801D0022400E001242046FC
:104E300010BD2DE9FF410AAC94E8E0108DE8E010C8
:104E40000024D0F8C403FBF7FCFC30B1012801D0EA
:104E5000022801D0022400E0012404B02046BDE86D
:104E6000F081FEB508AF97E870008DE87000FFF79D
:104E700080FF0020FEBD2DE9F84105460B782B7020
:104E80004B786B704B886B800B792B714B796B7106
:104E90008B79AB71CB790846EB710027097A2972BF
:104EA000092A54D90921ADF800104BE06946FFF7F3
:104EB0007FFC4178042943D107EB870101EBC7014F
:104EC00005EB4108017888F80A10417888F80B1042
:104ED000817888F80C10C17888F80D10017988F86D
:104EE0000E10417988F80F10817988F81010C17977
:104EF00008F10A0488F81110017A2172002615E0E1
:104F00006946FFF755FC417805290FD108EBC6012A
:104F100002780A7542784A7582788A75C278CA75AD
:104F200082880A838279761C8A76F6B22179B14228
:104F300004D96A88BDF800108A42E1D87F1CFFB20C
:104F4000022F04D26988BDF800209142AED8BDE896
:104F5000F88100002DE9FE43022204468DF800206E
:104F600094F81F13002031B9237823B12378032B41
:104F700001D00323237023780027012505264FF055
:104F800008094FF00D080C2B1CD2DFE803F00618BF
:104F90001CC0CB4AAA59616B79B994F81E0300284A
:104FA00010D02570C820FFF7B9FB2046FFF7FEFEA2
:104FB000C4F8D45300222946D4F8CC038EE001294A
:104FC00000D12270AEE06420FFF7A8FB2046FFF777
:104FD00079FE84F81D03267000212046FFF7B4F9FE
:104FE000607180212046FFF7AFF920710146A0795A
:104FF00094F81D230092CDE9017094F81C338022AF
:105000002046FFF72EFFA07994F81D130091CDE9FB
:10501000017094F81C33617900222046FFF721FFCC
:105020001EE02046FFF720FD00287BD184F8207386
:1050300094F83303012801D007205FE048465DE083
:10504000D4F8C823EAB301212046904748463EE001
:1050500094F83913204600F0A3F808B9092020700D
:10506000294636E094F83B034FF00A06800605D542
:105070000121204600F0A2F80028F1D12670EFE7C8
:10508000D4F87C1309B3C4F8787394F8432300BFB1
:1050900004EB8001D1F874130B79934201D1C4F869
:1050A0007813401C10F0FF00F2D0D4F8780368B1F8
:1050B00081682046884748B9062020700321204691
:1050C00000E02FE0D4F8C823904701E0404620706C
:1050D0003146C4F8D4130022D4F8CC0300F0BCFC51
:1050E00020E0D4F878030028F0D0016920468847F2
:1050F0008DF800009DF80000A0B90B20207011E091
:10510000D4F8780370B14169204688470AE0204608
:10511000FBF7D4F9D4F8780320B1C168204688475A
:10512000C4F87873002000F000B806BCBDE8F8832E
:105130000EB504464FF0FF352A466846D4F8CC1326
:1051400000F03CFC00981028F6D12046FFF702FF43
:10515000F2E7002211B1D0F87C3313B102221046DD
:1051600070470123C0F87C33C0F87413F7E7024698
:10517000002092F838338B4202D982F8201370470E
:10518000022070478278012A06D10022027405238A
:10519000437441828282C28200221146FFF771BAB3
:1051A0008278012A06D100220274092343744182C5
:1051B0008282C28200221146FFF763BA8278012AF6
:1051C00006D1002202740323437441828282C28288
:1051D00000221146FFF755BA10B50446FFF709FE45
:1051E00001212046FFF75DFD002010BD01290AD0F6
:1051F0000548022906D0042903D0052903D103213B
:1052000000E00121017070470C00002010B5044639
:1052100004990B9801290BD0E06840F04000E06051
:10522000204600F01DF84FF48030A063002010BD30
:10523000A16B21F48031A163E168084A1140E1606B
:10524000E16821F44011E160012803D1E06840F4F5
:105250008010E060204600F003F8E7E7BFFFBDFFE5
:1052600001220C4902E0521C8A420BD80369002B30
:10527000F9DA026942F001020261012204E0521CE3
:105280008A4201D9032070470369DB07F7D1002068
:1052900070470000400D0300816821F0010181602A
:1052A0000020704708B5D0F8402422F02E0200926A
:1052B000D20405D4012909D1009941F4805103E0B9
:1052C00021B9009921F48051C0F84014002008BD94
:1052D000816841F0010181600020704700211022A7
:1052E0000261054A491C914201D9032070470369B4
:1052F000DB06F7D400207047400D03000022202376
:1053000043EA811101610549521C8A4201D90320F7
:10531000704703699B06F7D400207047400D0300D7
:10532000D0F8080480B2704708B5D0F84004009067
:10533000C0F3414008BD406900F00100704700EB38
:105340004111D1F800254FF47A73C2F381426AB15A
:10535000022A0BD0D1F8002542F08042C1F8002586
:10536000D0F8100410F47F0F2ED009E0D1F80025FA
:1053700042F08042C1F80025C06A10F47F0F07D0C8
:10538000D1F8000540F00040C1F80005002070474A
:10539000D1F8000520F00040C1F80005D1F8000563
:1053A00040F00040C1F80005D1F8000520F40040AD
:1053B000C1F80005012002E0401C9842E6D8D1F86F
:1053C0000025002AF8DBE1E7D1F8000520F00040D5
:1053D000C1F80005D1F8000540F00040C1F8000513
:1053E000D1F8000520F40040C1F80005012002E0DA
:1053F000401C9842CAD8D1F80025002AF8DBC5E73E
:105400002DE9F0430026DDE9078500EB4114771E06
:10541000DDF82490C4F80875CDB1012D26D0022DF9
:1054200015D0032D1BD00126D0F8187401F00F0CF5
:10543000012101FA0CF10F43C0F81874816941F0A1
:105440000071816110061ED54FF400401CE040F24F
:105450009D4706E0D4F80C7547F4807710E040F2E1
:105460009D67C4F80C751706F4D4DDE740F22527D4
:10547000C4F80C751706D7D5D4F80C7547F4C07767
:10548000C4F80C75D0E70020B8F1020F18D0002145
:105490004FF0FE5707EA83534FF4F04707EAC22262
:1054A00013434FF4402202EA85421343C9F30A0230
:1054B000134303430B43C4F80035032D03D008E026
:1054C0004FF40031E4E7D4F8000540F00050C4F890
:1054D00000053046BDE8F083D0F8140480B2704770
:1054E00030B54D780A694FF480745AB10B891A446B
:1054F000521EB2FBF3F292B2A24204D91B02224620
:105500000B6100E00122CB789BB30B8953430B6105
:10551000C3F312046FF0604303EAC24214438A7A71
:105520004FF0C04303EA427200EB45131443C3F843
:105530001045D0F80824D3F8004542F3000224F0C7
:105540000054C3F80045D3F80045521C44EA4272A7
:10555000C3F80025D3F80045224A1460146824F0EB
:1055600080441460CC78002C146805D044F40044C6
:1055700004E0FFE70B69CBE724F4004414601468EF
:1055800044F0004414601268C3F80025CA783ABB9E
:105590000A692AB3CB7933B1012B0FD0022B02D089
:1055A000032B17D10AE0D21CC36AC2F38F029BB24D
:1055B00093420FD2826942F020020AE0D21CD0F856
:1055C0001034C2F38F029BB2934203D2826942F03D
:1055D000806282610A8A93B24A78C96800F005F94C
:1055E000002030BD140000202DE9F04100251746B1
:1055F0000446C0F8005E806B20F40010A063A06B2E
:1056000020F40030A0634FF0A048032B07D12046C0
:10561000444504D0D0F8000440F0040103E0D4F87D
:10562000000420F004012046C4F800141021FFF704
:1056300065FE2046FFF752FE0020461E07E000BF31
:1056400004EB4011C1F80865C1F80C55401C8742B5
:10565000F6D801212046FFF725FEC820FAF786FF7D
:10566000A5616661444505D1802060620B48A06257
:105670000B4805E04FF4007060620A48A0620A48D7
:10568000C4F80001A06940F01000A061A0690749BA
:105690000843A0610020BDE8F081000080006000A8
:1056A000E0004000000200010003E000080020A329
:1056B000D0F8002422F00302C0F80024D0F800241F
:1056C00001F003031A43C0F80024012902D0022983
:1056D00003D006E04BF6803101E041F27071C0F872
:1056E0000414002070474169806908407047D21C4B
:1056F00010B59308002200F5805002E00468521CA7
:1057000010C19A42FAD3084610BD38B50446D0F805
:10571000400420F02E00009040F48070C4F8400453
:10572000642004F58864FAF721FF009820F4807063
:1057300020600A20FAF71AFF002038BD10B5C268B1
:1057400022F0C042C260012902D029B1012010BD5F
:10575000C16841F0005102E0C16841F08041C16080
:105760003220FAF703FF002010BD000030B50446D8
:105770008068002520F00100A06010212046FFF77E
:10578000BDFD2046FFF7AAFD5FF0000004EB4011CD
:10579000D1F8002522F0802242F08042C1F8002595
:1057A000401C0F28F2D900204FF47A7304EB40110B
:1057B000D1F8002522F4004242F04042C1F8002511
:1057C0006D1C9D4203D8D1F80025002AF8DB401C4F
:1057D0000F28EBD94FF0FF30C4F814046061A068C3
:1057E00040F00100A060002030BD10B5DB1C9C081B
:1057F00000EB0230002300F5805002E004C9026093
:105800005B1CA342FAD3002010BDFEE702E008C8EB
:10581000121F08C1002AFAD170477047002001E02A
:1058200001C1121F002AFBD17047000010B50028EB
:1058300021D0114B0022001F196803E0814203D8D8
:105840000A4649680029F9D152B11368841A9C426A
:1058500004D1006818441060104602E0506000E077
:10586000186039B102680B1A934203D10B681A44CD
:1058700002604968416010BDA0000020EFF3058080
:10588000002800D0012070478AB0FBF76FFAFEF7BE
:1058900087F8FDF733FCFDF71BFDFDF73BFDFDF73A
:1058A0005BFD1D481B4901220160FF21C0E9011277
:1058B0000021C0E9031241618161FBF739FCFDF76A
:1058C00063FDFDF7A9FDFDF707FEFDF7C5FD1422F9
:1058D00012496846FAF718FD0021684600F0EAF818
:1058E0000F4C0E4D103D2060D5E90001CDE90501BA
:1058F000002105A800F05EF86060D5E90201CDE95D
:105900000701002107A800F055F8A06000F04DF84D
:10591000FEE70000001000A07C010020BC6C000825
:105920000000002001460020842900D0C81C7047D8
:10593000F0B50B30154D20F007010024144A0FE09C
:1059400003688B420BD38B4205D95E1A4318476814
:10595000C3E9006700E04368136002C004E0021D71
:1059600010680028ECD12046002802D1286808B130
:105970000020F0BD064A07481060074A121A22F0BC
:105980000702C0E9002401202860D7E7A400002016
:10599000A0000020B4230020B025002010B500B9DD
:1059A000012000F02BFC002010BD10B500F072FCAF
:1059B000002010BD03C8002200F050BD2DE9FF41BA
:1059C0000D004FF00006CDE9016507461ED000240A
:1059D0000396501C1FD002B11446FFF74FFF6946D3
:1059E0004FF01008E8B103AA2846091D00F04EFF49
:1059F000012813D000960398E8B114494FF0805065
:105A00000860BFF34F8FBFF36F8F14E080203146E3
:105A10002A46009011E04FF0FF34DEE7CDF8008019
:105A2000E9E722462846091D00F094FE012808D027
:105A300054B1402000909DE8070087E8070000F07F
:105A400007B8CDF80080F6E70020F3E704ED00E0AA
:105A500003BCBDE8FC81000037B5054682B00020DC
:105A60000090140000D10124FFF708FF4FF000035D
:105A700088B16A4603A9284600F00EFE012811D11C
:105A8000009890B10A494FF080500860BFF34F8FE3
:105A9000BFF36F8F09E0224603A9284600F04CFDB2
:105AA000012802D0FF2005B030BD0020FBE7000038
:105AB00004ED00E03EB504460D46B0F90800FFF7DE
:105AC00031FF02A9CDE90001208A2B4682B2D4E938
:105AD000001000F063FF012801D000203EBD0298B5
