:020000040800F2
:1000000090060020410200087D0200087F020008DF
:100010008102000883020008850200080000000039
:10002000000000000000000000000000870200083F
:1000300089020008000000008B0200088D02000801
:100040008F0200088F0200088F0200088F0200084C
:100050008F0200088F0200088F0200088F0200083C
:100060008F0200088F0200088F0200088F0200082C
:100070008F0200088F0200088F0200088F0200081C
:100080008F0200088F0200088F0200088F0200080C
:100090008F0200088F0200088F0200088F020008FC
:1000A0008F0200088F0200088F0200088F020008EC
:1000B0008F020008D50900088F0200088F0200088F
:1000C0008F0200088F0200088F0200088F020008CC
:1000D0008F0200088F0200088F0200088F020008BC
:1000E0008F0200088F0200088F0200088F020008AC
:1000F0008F0200088F0200088F0200088F0200089C
:100100008F0200088F0200088F0200088F0200088B
:100110008F0200088F0200088F0200088F0200087B
:100120008F0200088F0200088F0200088F0200086B
:100130008F0200088F0200088F0200088F0200085B
:100140008F0200088F0200088F0200088F0200084B
:100150008F0200088F0200088F0200088F0200083B
:100160008F0200088F0200088F0200088F0200082B
:100170008F0200088F0200088F02000800000000B4
:100180008F0200088F02000800F002F800F049F822
:100190000AA090E8000C82448344AAF10107DA45E2
:1001A00001D100F03EF8AFF2090EBAE80F0013F0EB
:1001B000010F18BFFB1A43F0010318472411000078
:1001C00044110000103A24BF78C878C1FAD8520709
:1001D00024BF30C830C144BF04680C6070470000C1
:1001E0000023002400250026103A28BF78C1FBD840
:1001F000520728BF30C148BF0B6070471FB500F0E1
:10020000F7FF9DE8030000F0E1F800F041F9040079
:100210000020002100F0D6FF401C60601FBD10B51B
:1002200010BD00F05BF91146FFF7E8FF00F032FE69
:1002300000F079F903B4FFF7F2FF03BC00F0EAF92C
:1002400016481749174B99423CBF50F8042B41F808
:10025000042BF8D314494FF000028B4238BF43F807
:10026000042BFAD3DFF84400016841F47001016007
:10027000BFF34F8FBFF36F8F0D480047FEE7FEE7D8
:10028000FEE7FEE7FEE7FEE7FEE7FEE7FEE7FEE746
:1002900008480949094A0A4B704700001014000831
:1002A00000000020300000209006002088ED00E0D3
:1002B0008901000890000020900600209002002094
:1002C0009002002070B5064600F064F8056806F15B
:1002D0000B0020F00704B4429CBF002070BD2B46E9
:1002E0006A68BAB11068A04210D304F108018842CC
:1002F0003CBF5068586007D35168101941601168BD
:10030000091B016058601460101D70BD13465268CF
:10031000002AE7D12146284600F044F80028DED123
:1003200070BD10B5044600F02DF80068005D0007B0
:1003300004D5DF2C02D0A4F1200010BD204610BD52
:1003400010B5431C02E010F8011B71B18107FAD10E
:100350004FF0013202C88C1A8C4314EAC211F9D052
:10036000C01A0A0603D0C01E10BDC01A10BD0A0470
:1003700001D0801E10BD0902FCD0401E10BD704788
:100380007047704710B500F083F8001D10BD00BF26
:10039000350E000000487047380000207047704755
:1003A0007047704738B504460A4600206946AFF3E7
:1003B0000080002808BF38BD02460099204600F0A2
:1003C0006BF8012038BD012000F080B8F8B5AFF31C
:1003D0000080054600200C46102000BF0646A819E4
:1003E000A0420DD9324669460020AFF300800700D5
:1003F00008BF00F06BF80098A04218BF0546C4196A
:10040000FFF7C8FF05600746F01D20F007004619FA
:10041000284600F00AF8B44208BFF8BDA21B3146D6
:100420003868BDE8F84000F037B800210160C0E945
:10043000011070471020704770B50446051FFFF784
:10044000A9FF0068002C14BF446870BD002C18BFC1
:10045000AC423CBF20466468F8D301680A18AA423F
:1004600018BF456003D12A68054611440160286819
:100470004119A1421CBF6C6070BD61686960216850
:100480000844286070BD000000487047300000201C
:100490000048704750000020034640688C46002802
:1004A00018BF88423CBF03464068F8D31868184418
:1004B000884207D00CF1030020F00700001D411A0C
:1004C000521A0146081D0A60FFF7B6BF10B500F0CA
:1004D00039F8BDE8104000F02FB870477546FFF7B7
:1004E000D3FFAE4605006946534620F00700854617
:1004F00018B020B5FFF7CCFEBDE820404FF0000655
:100500004FF000074FF000084FF0000B21F00701FB
:10051000AC46ACE8C009ACE8C009ACE8C009ACE83E
:10052000C0098D46704710B50446AFF300802046E1
:10053000BDE81040FFF77EBE002801D000F06AB889
:100540007047000010B5012805D0002103A000F07D
:1005500067F8012010BD09A1F8E700005349475290
:10056000544D454D3A204F7574206F662068656183
:1005700070206D656D6F7279000000003A2048654B
:100580006170206D656D6F727920636F7272757026
:10059000746564004FF0013C50F8042B51F8043BA3
:1005A0009A4221D1A2EB0C03934313EACC1317D147
:1005B00050F8042B51F8043B9A4215D1A2EB0C03DE
:1005C000934313EACC130BD150F8042B51F8043B9E
:1005D0009A4209D1A2EB0C03934313EACC13DBD06C
:1005E0004FF00000704700BFD01A01BAB1FA81F194
:1005F00001F0180122FA01F0CB40C1F12001DBB279
:10060000C0B2C01A2CFA01F3D11A914311EAC311F6
:10061000E6D1704701491820ABBEFEE72600020074
:1006200070B505460C460A2000E06D1C00F011F87C
:1006300035B128780028F8D102E0641C00F009F8F0
:1006400014B120780028F8D1BDE870400A20AFF33B
:10065000008008B569468DF800000320ABBE08BDD8
:100660000348406920F480700149486170470000E8
:10067000001000480348406940F480700149486117
:1006800070470000001000481348C06C40F00100A3
:100690001149C8644FF09040006800204FF090412D
:1006A00008600846006840F00200086008460068DC
:1006B00040F0080008600846006A20F00F00086259
:1006C0000846006A40F0010008620846006A40F0EF
:1006D0001000086270470000001002402348806D3F
:1006E00040F00100214988658804006A20F011006B
:1006F000890408620846006820F001000860084686
:10070000806920F0030088610846806920F4407009
:100710008861C820C8620420486388634FF4FA5097
:1007200088620006806940F0080088610846806998
:1007300040F4006088610846806940F0600088618C
:100740000846806940F4C04088610846006A40F06D
:10075000010008620846006A40F01000086208467E
:10076000006840F00100086070470000001002407F
:100770002348C06C40F012002149C8646FF030007B
:10078000204908600846006840F0100008601D48D5
:100790000830006820F030001A4908310860084627
:1007A000006840F030000860081F006820F0040076
:1007B000091F086013480C30006820F03000114910
:1007C0000C3108606FF440300F490860084600683B
:1007D00040F4803008600846806820F4403088602B
:1007E0000846806840F4403088600846406820F43D
:1007F000807048600846C06820F44030C860704788
:1008000000100240000400480010004870B5044683
:100810002046FFF795FD05462A462146014800F08F
:1008200025FA70BD004400400348006820F0040031
:10083000014908607047000014040048034800683C
:1008400040F00400014908607047000014040048AB
:100850005E49096821F007015C4A11601146096888
:1008600041F0020111605A49096841F48071584A07
:10087000116000BF5649096801F480610029F9D070
:1008800010205349496821F0F851514A51601146EE
:10089000496841EA006151601146096821F08071A0
:1008A000116000BF4A49096801F00071B1F1007F91
:1008B000F8D04749C96821F00301454AD160114683
:1008C000C96841F00201D1601146C96821F4FE41B6
:1008D00041F4A051D1601146C96821F0700141F086
:1008E0001001D1601146C96821F0C061D160114684
:1008F000C96841F08071D1601146096841F080718A
:10090000116000BF3249096801F000710029F9D077
:100910002F49896821F003012D4A916011468968A9
:1009200041F00301916000BF2949896801F00C0181
:100930000C29F9D12649896821F0F001244A9160F7
:100940001146896821F4E06191601146896821F4BB
:10095000605191601146096821F08061116000BF0B
:100960001B49096801F08061B1F1806FF8D0184926
:10097000096921F4FE41164A11611146096941F4E1
:10098000C05111611146096941F4003111611146EC
:10099000096941F4803111611146096841F08061B3
:1009A000116000BF0A49096801F080610029F9D08F
:1009B00007498831096821F44001054AC2F88810C6
:1009C0001146096E41F40011116670470020024083
:1009D0000010024010B50A48006800F0010038B16C
:1009E0000848006800F098F90748006800F094F99A
:1009F0000348006820F001000149086010BD0000B4
:100A0000100400402C0000202800002010B500F049
:100A100025FA2F48806D40F002002D498865084670
:100A2000C06C40F00400C8642A48006820F0400010
:100A30002849086027482030006840F040002549D8
:100A4000203108602448006820F011002249086025
:100A500021482038006820F001001F492039086033
:100A60004FF448701C490C3108604FF4FA50091FCC
:100A700008601D20002809DB00F01F0201219140C1
:100A80004209920002F1E022C2F8001100BF1248B0
:100A90000C38006840F001000F490C3908600E481E
:100AA0002038006840F004000B49203908600A48EB
:100AB0001438006840F001000749143908600648FE
:100AC0002038006840F0010003492039086010BD5B
:100AD0000010024000080048200400401A48C06C82
:100AE00040F008001849C8641848006820F47050A5
:100AF000164908600846006840F420500860134812
:100B00002030006840F0EE601049203108600F4846
:100B10000830006840F470500C4908310860081D26
:100B2000006820F47050091D08600846006840F411
:100B3000A05008600548001D006820F060000349CF
:100B4000091D08607047000000100240000C0048BA
:100B500000B50D48806D40F400300B4988650A48A7
:100B60008830006820F00C00C1F888000846D0F8F2
:100B7000880040F00400C1F88800FFF7AFFF034889
:100B800000F010F800BD00000010024000440040DA
:100B9000642242430723B2FBF3F100BF4A1E111E39
:100BA000FCD17047016821F001010160016821F06A
:100BB00010210160016821F400410160416821F4C5
:100BC0004051416042F28D01C160016841F00C0169
:100BD00001601E4988421BD1016841F0200101607B
:100BE000016821F040010160016821F010010160FD
:100BF000016821F080010160016821F480710160C9
:100C0000016821F040010160016821F001010160EB
:100C10000F49884209D1016A41F0400101620D4942
:100C2000096841F0C0010B4A1160016841F00101FF
:100C3000016000BFC16901F400110029FAD000BFB2
:100C4000C16901F480010029FAD07047004C0040CE
:100C50000044004008380140014600BFC86900F068
:100C600020000028FAD0888CC0B27047F0B5044646
:100C70000E46174600250CE000BFE06900F080003A
:100C80000028FAD0705D20854FF49670FFF780FF42
:100C90006D1CBD42F0D300BFE06900F040000028A9
:100CA000FAD0E06920F04000E061F0BD017B03294B
:100CB00002D0017B022900D170470168497C02689B
:100CC00011700021017300BFF6E770B505460E46AE
:100CD0001820FFF7F7FA04463146284600F008F8D6
:100CE00020600020A060012020712073204670BD8C
:100CF00070B506460D461820FFF7E4FA04464FF09B
:100D0000FF30E06000202074607425706560A6608C
:100D10006061204670BD00002DE9F0410446206866
:100D200000F03DFA064606F0E00706F01F05FF2E2C
:100D300003D14FF0FF30BDE8F081402F15D004DC27
:100D4000002F6AD0202F6DD104E0802F3CD0A02F3F
:100D500068D146E0052D03DD02202073C01EEAE7BE
:100D60002946204600F0CAF95FE0002D12DD206818
:100D7000C06800280EDA20680078401E21680870DC
:100D8000681E2168C8602079012801D001202071E7
:100D90000020D0E72068C06800280BDD20680078BC
:100DA000401E216808702068C068401E2168C86025
:100DB0000020C0E70DB90020BDE72068C068401ED4
:100DC0002168C8600020B6E720684069401C21689F
:100DD000486120680078216808742068C560002098
:100DE000A9E720684069012803DD03202073001F64
:100DF000A1E72068C06800280DDB20684069401E1C
:100E0000216848612068007C216808702068C068FB
:100E1000401E2168C86000208DE705A0FFF7F6FCA2
:100E2000002088E70220207300BF00BF002082E777
:100E3000456E6420686173206265656E207265612D
:100E40006368656400000000014608784A689042C3
:100E500001D1012070470020FCE7000010B51421EB
:100E60000848FFF732FF0849086001200968486117
:100E700013210648FFF729FF054908600220096889
:100E8000486110BD00000020280000201400002050
:100E90002C0000201FB572B6FFF7DAFCFFF768FCE4
:100EA000FFF756FEFFF7F0FBFFF718FCFFF7AEFD6C
:100EB00062B67AA0FFF7AAFC8248FFF7A7FC824837
:100EC000FFF7A4FCE8E000240020019002900390CA
:100ED0007EA0FFF79BFC302000900FE07C48FFF7DE
:100EE000BBFE0090012269467948FFF7BFFE9DF8DE
:100EF0000000FFF716FA01A90855641C9DF80000D0
:100F00000D28EBD173A0FFF781FCA01E01A9085C9E
:100F1000582855D09DF80400422804D16E48006836
:100F200000F04BF944E09DF80400502804D16A48D1
:100F3000006800F025F93BE09DF80400432804D147
:100F400065480068FFF7B2FE32E09DF804005228C1
:100F500011D161480068007B10B35F480068806869
:100F6000002825DD5C4800688068411E5A480068FA
:100F700000F0C4F81CE09DF804004C2811D156483C
:100F80000068007B60B154480068806805280FDA6B
:100F9000514800688068411C4F48006800F0AEF876
:100FA00006E09DF804004E2802D04CA0FFF72EFC6E
:100FB0009DF80500422804D14F48006800F0FDF874
:100FC00044E09DF80500502804D14B48006800F02B
:100FD000D7F83BE09DF80500432804D14648006857
:100FE000FFF764FE32E09DF80500522811D1424817
:100FF0000068007B10B3404800688068002825DD49
:101000003D4800688068411E3B48006800F076F863
:101010001CE09DF804004C2811D137480068007B83
:1010200060B135480068806805280FDA32480068EA
:101030008068411C3048006800F060F806E09DF8C8
:1010400005004E2802D025A0FFF7E0FB22480068EB
:10105000007B30B1012813D0022807D0032814D117
:1010600009E0FFF707FBFFF7DFFB13E0FFF7E6FB05
:10107000FFF7F6FA0EE0FFF7E1FBFFF7FBFA09E0F6
:10108000FFF7EEFAFFF7D0FB04E0FFF7E9FAFFF70E
:10109000CBFB00BF00BF00BF15E7000057656C63C6
:1010A0006F6D6520746F2074686520536572766F6C
:1010B00020436F6E74726F6C2073797374656D0D5D
:1010C0000A000000FC110008741200083E00000035
:1010D000004400400A0D0000280000204F76657291
:1010E00072696465204E6F7420417661696C61623B
:1010F0006C650A0D000000002C00002070B504464D
:101100000D46204600F03CF82946204600F004F841
:101110002046FFF7CBFD70BD30B58468621A002A07
:1011200001DB144600E05442144D04FB05F3426910
:10113000012A0FD19207126A22F001022C052262C5
:10114000042202EB810262632246126A42F001022B
:10115000226212E04269022A0FD15207126A22F07B
:1011600010024FF080442262042202EB8102A2634B
:101170002246126A42F01002226230BD0024F400BE
:10118000017902290AD0016809780268517401685E
:10119000097902681170012101730171704700B56E
:1011A00003461846FFF750FE08B1FF2000BD19782E
:1011B000481C18709868405CF8E7002102681170BC
:1011C0000173704710B500290AD00878002807D0AD
:1011D00005487844FFF7DEF9002801D0002010BD53
:1011E0000248784410BD00002E01000026010000D6
:1011F0004FF04070E1EE100A70470000546865201F
:1012000073797374656D2073696D756C74616E6547
:101210006F75736C7920636F6E74726F6C7320746A
:10122000776F20736572766F732E0A0D4561636860
:1012300020736572766F2068617320612064656435
:1012400069636174656420636F6D6D616E642073A2
:1012500063726970742074686174206861732062BD
:1012600065656E207072656C6F616465642E0A0D31
:1012700000000000596F75206172652061626C6525
:1012800020746F2053544152542C205041555345E3
:101290002C20616E6420434F4E54494E55452074B6
:1012A000686520657865637574696F6E2E0A0D4FE9
:1012B00072206D6F7665206569746865722073654C
:1012C00072766F204C454654206F72205249474831
:1012D00054203120706F736974696F6E2E0A0D008F
:1012E000101400080000002030000000C4010008B5
:1012F000401400083000002060060000E0010008F3
:101300001001000043000000F8FFFFFF00404040D4
:1013100040404040404041414141414040404040C8
:101320004040404040404040404040404005020274
:101330000202020202020202020202020220202033
:10134000202020202020200202020202020290908F
:10135000909090901010101010101010101010108D
:1013600010101010101010100202020202028888E1
:1013700088888888080808080808080808080808ED
:1013800008080808080808080202020240000000D5
:10139000000000000000000000000000000000004D
:1013A000000000000000000000000000000000003D
:1013B000000000000000000000000000000000002D
:1013C000000000000000000000000000000000001D
:1013D000000000000000000000000000000000000D
:1013E00000000000000000000000000000000000FD
:1013F00000000000000000000000000000000000ED
:1014000000000000000000000000000000000000DC
:1014100020252023802124A0202240234022235F56
:101420005F5F200025202523802124A02022402347
:101430004022235F5F5F25000000000000000000E5
:040000050800018965
:00000001FF
