:020000040800F2
:100000009006002079020008B5020008B702000837
:10001000B9020008BB020008BD0200080000000091
:10002000000000000000000000000000BF02000807
:10003000C102000800000000C3020008C502000859
:10004000C7020008C7020008C7020008C70200086C
:10005000C7020008C7020008C7020008C70200085C
:10006000C7020008C7020008C7020008C70200084C
:10007000C7020008C7020008C7020008C70200083C
:10008000C7020008C7020008C7020008C70200082C
:10009000C7020008C7020008C7020008C70200081C
:1000A000C7020008C7020008C7020008C70200080C
:1000B000C70200081D0F0008C7020008C702000899
:1000C000C7020008C7020008C7020008C7020008EC
:1000D000C7020008C7020008C7020008C7020008DC
:1000E000C7020008C7020008C7020008C7020008CC
:1000F000C7020008C7020008C7020008C7020008BC
:10010000C7020008C7020008690F0008C7020008FC
:10011000C7020008C7020008C7020008C70200089B
:10012000C7020008C7020008C7020008C70200088B
:10013000C7020008C7020008C7020008C70200087B
:10014000C7020008C7020008C7020008C70200086B
:10015000C7020008C7020008C7020008C70200085B
:10016000C7020008C7020008C7020008C70200084B
:10017000C7020008C7020008C7020008000000000C
:10018000C7020008C702000800F002F800F065F896
:100190000AA090E8000C82448344AAF10107DA45E2
:1001A00001D100F05AF8AFF2090EBAE80F0013F0CF
:1001B000010F18BFFB1A43F0010318472416000073
:1001C00044160000103A24BF78C878C1FAD8520704
:1001D00024BF30C830C144BF04680C6070470000C1
:1001E0000023002400250026103A28BF78C1FBD840
:1001F000520728BF30C148BF0B607047692900F023
:100200002581642900F02281752900F01F816F2962
:1002100000F0BA81782900F0DF810368DB0928BF8C
:1002200041F08001632900F0E683E32900F0F983BF
:10023000002070471FB501F039FA9DE8030000F077
:10024000FDFA00F06FFC04000020002101F018FA14
:10025000401C60601FBD10B510BD00F03DFC114694
:10026000FFF7E8FF01F0E0F800F060FC03B4FFF7EF
:10027000F2FF03BC00F090FC16481749174B994257
:100280003CBF50F8042B41F8042BF8D314494FF02D
:1002900000028B4238BF43F8042BFAD3DFF8440046
:1002A000016841F470010160BFF34F8FBFF36F8F9E
:1002B0000D480047FEE7FEE7FEE7FEE7FEE7FEE744
:1002C000FEE7FEE7FEE7FEE708480949094A0A4B50
:1002D00070470000101900080000002030000020C6
:1002E0009006002088ED00E08901000890000020C1
:1002F00090060020900200209002002070B5064673
:1003000000F080FA056806F10B0020F00704B44203
:100310009CBF002070BD2B466A68BAB11068A0422D
:1003200010D304F1080188423CBF5068586007D3DD
:100330005168101941601168091B01605860146010
:10034000101D70BD13465268002AE7D12146284689
:1003500000F060FA0028DED170BD00000FB41CB5BB
:10036000084B06AA7B4469460090059800F021FBE3
:1003700004460020694600F02FFB20461CBC5DF8B7
:1003800014FB00007106000070B504468569006822
:10039000C10601D5302600E02026C00707D070BD79
:1003A000D4E9012130469047206A401C20626D1E2E
:1003B000F6D570BD70B5044685690078C00707D1D1
:1003C00070BDD4E9012120209047206A401C2062A2
:1003D0006D1EF6D570BD09684A0501D540B270475B
:1003E000C905FCD500B2704709684A0501D5C0B2FD
:1003F0007047C905FCD580B2704770B50C460546FC
:10040000012A05D02878800600D5EA69002302E099
:10041000012305E05B1C934202D2E05C0028F9D185
:10042000A869E618C01AA861286A184428622846F4
:10043000FFF7AAFF04E0D5E9012114F8010B90476A
:10044000B442F8D32846FFF7B5FF70BD2DE9F0415F
:100450000646002410687529314616A510D0FFF70E
:10046000BAFF002802DA404213A507E031688A0784
:1004700001D512A502E0490704D511A5012401E028
:10048000FFF7B2FF00210A2206F1240709E0B0FBC2
:10049000F2FCB0FBF2F302FB1C003030785418463B
:1004A000491C0028F3D123462A463046BDE8F041D6
:1004B00000F021BA000000002D0000002B00000019
:1004C000200000002DE9FF5F15468A460446DFF84C
:1004D000AC80F8440027D8E900103E46CDE9001072
:1004E00010E03AF816106A4602A800F0A6FA411C7D
:1004F00007D02178890603D5E269391891420DD8D1
:100500000744761C2078800602D5E069B84205DDF4
:10051000AE42E6DB3AF816000028E2D1A069C01B23
:10052000A0612046FFF730FFD8E90010CDE90010A8
:10053000002017E03AF818106A4602A800F07DFA89
:10054000B0F1FF3F81460BD000250DF1080B05E00F
:10055000D4E901211BF8050090476D1C4D45F7D3E8
:1005600008F10100B0428046E4DB206A3844206292
:100570002046FFF71FFF00F003B80000E211000063
:100580003FBCBDE8C09F000070B50446214610681E
:10059000FFF72AFF002104F1240505E000F007021F
:1005A0003032C0086A54491C0028F7D12068002363
:1005B00007A2050707D5800600D421B1E069012311
:1005C00004A2401EE0612046BDE8704000F093B9EF
:1005D000000000003000000070B504460D462146C2
:1005E0001068FFF701FF2188090502D50F4A7A44F8
:1005F00002E00E4A7A440E32002104F1240305E0A1
:1006000000F00F060009965D5E54491C0028F7D1E2
:1006100020780023000704D5702D02D009B10223F1
:1006200011322046BDE8704000F065B9CE100000E0
:100630002DE9F05F894604464FF0000ADFF874B1F7
:10064000FB44C0F820A02046E1688847002874D009
:10065000252806D0D4E901219047206A401C206259
:10066000F1E700265F462046E168884720280546D6
:1006700007DB312D05D2781910F8200C08B106439C
:10068000F1E7B00701D526F00406C4F81CA0002746
:10069000C4F818A02A2D09D0284600F0D9FD38B397
:1006A00004EB8708303DC8F8185019E059F8041BCE
:1006B000204604EB87029161E1688847012F0546D7
:1006C00018D1E069002820DA26F020061DE0D8F8CD
:1006D000180000EB800005EB40003038C8F8180027
:1006E0002046E1688847054600F0B2FD0028EED1BB
:1006F000012F0AD02E2D08D12046E16888477F1CA3
:100700000546022F46F02006C4DBA069002803DA64
:10071000404246F00106A061F00701D026F0100625
:100720006C2D0BD0682D09D04C2D39D06A2D35D0C9
:10073000742D35D07A2D33D016E038E0E1682F469D
:1007400020468847B842054609D16C2F26D04FF481
:100750008060E168064320468847054604E06C2F28
:100760001AD04FF4807006430DB3A5F1410019284B
:1007700002D8203546F400664A46294620462660BF
:100780004E46FFF73BFD80B101280BD0F61D26F049
:10079000070000F1080956E74020E4E78020D8E789
:1007A0000020D6E706F104094DE7284652E7206A03
:1007B00000F002B8A410000030BCBDE8C09F10B526
:1007C000431C02E010F8011B71B18107FAD14FF010
:1007D000013202C88C1A8C4314EAC211F9D0C01A33
:1007E0000A0603D0C01E10BDC01A10BD0A0401D0F5
:1007F000801E10BD0902FCD0401E10BD704770471E
:10080000704700000048704738000020704770476C
:100810007047704738B504460A4600206946AFF372
:100820000080002808BF38BD02460099204600F02D
:1008300031F9012038BD012000F046B9F8B5AFF319
:100840000080054600200C46102000BF0646A8196F
:10085000A0420DD9324669460020AFF30080070060
:1008600008BF00F031F90098A04218BF0546C4192E
:10087000FFF7C8FF05600746F01D20F00700461986
:10088000284600F00AF8B44208BFF8BDA21B314662
:100890003868BDE8F84000F0FDB800210160C0E90B
:1008A000011070471020704770B50446051FFFF710
:1008B000A9FF0068002C14BF446870BD002C18BF4D
:1008C000AC423CBF20466468F8D301680A18AA42CB
:1008D00018BF456003D12A680546114401602868A5
:1008E0004119A1421CBF6C6070BD616869602168DC
:1008F0000844286070BD2DE9F0470D4699469246A0
:10090000044600F124080168880604D5E06921F056
:100910001001216000E00120A84201DD471B00E03A
:100920000027A1697A1902EB0900081AA061207852
:10093000C00602D42046FFF727FD002608E0D4E9D0
:1009400001211AF806009047206A401C761C20629C
:100950004E45F4DB2078C0060AD52046FFF714FD8B
:1009600006E0D4E9012130209047206A401C206233
:10097000381EA7F10107F4DC07E0D4E9012118F8DB
:1009800005009047206A401C2062281EA5F1010541
:10099000F3DC2046FFF70EFD2078000602D502208A
:1009A000BDE8F0870120FBE701694A1C0261087875
:1009B000704700B58FB0CDE901310021059105499F
:1009C0007944CDE9031011466846FFF731FE0FB0B8
:1009D00000BD0000E5FFFFFF0A6802F8010B0A6096
:1009E000704710B5436913B1AFF3008001E0FFF722
:1009F00004FD012010BD127800F124010A700022CC
:100A00004A700122EDE711684FF0FF32E9E710B5B7
:100A1000436913B1AFF3008001E0FFF753FD0120FC
:100A200010BD128800F1240182840022C2840122B8
:100A3000EDE711684FF0FF32E9E770B516460C4656
:100A4000054600F01FF8036893F80101012806D05D
:100A5000FF2C0FD8185D68B101202C7070BDD3F841
:100A600007013246214603F2071303442846BDE836
:100A7000704018474FF0FF3070BD000000487047CD
:100A80003000002010B500F04DF8001D10BD00BF73
:100A9000F10B0000034640688C46002818BF8842CE
:100AA0003CBF03464068F8D318681844884207D012
:100AB0000CF1030020F00700001D411A521A0146F4
:100AC000081D0A60FFF7F0BE10B500F03DF8BDE864
:100AD000104000F034B870477546FFF7CFFFAE46C0
:100AE00005006946534620F00700854618B020B53A
:100AF000FFF7EAFBBDE820404FF000064FF000078B
:100B00004FF000084FF0000B21F00701AC46ACE8B5
:100B1000C009ACE8C009ACE8C009ACE8C0098D4622
:100B200070470000004870475000002010B5044690
:100B3000AFF300802046BDE81040FFF797BB0028C8
:100B400001D000F029B8704710B5012805D0002168
:100B500003A000F027F8012010BD09A1F8E700006C
:100B600053494752544D454D3A204F7574206F6696
:100B70002068656170206D656D6F727900000000FE
:100B80003A2048656170206D656D6F727920636FE2
:100B9000727275707465640001491820ABBEFEE77F
:100BA0002600020070B505460C460A2000E06D1CC8
:100BB00000F052F835B128780028F8D102E0641C22
:100BC00000F04AF814B120780028F8D1BDE8704050
:100BD0000A2000F041B800004FF0013C50F8042B0F
:100BE00051F8043B9A4221D1A2EB0C03934313EA40
:100BF000CC1317D150F8042B51F8043B9A4215D16D
:100C0000A2EB0C03934313EACC130BD150F8042B43
:100C100051F8043B9A4209D1A2EB0C03934313EA27
:100C2000CC13DBD04FF00000704700BFD01A01BAE0
:100C3000B1FA81F101F0180122FA01F0CB40C1F1C3
:100C40002001DBB2C0B2C01A2CFA01F3D11A9143D1
:100C500011EAC311E6D1704708B569468DF8000066
:100C60000320ABBE08BD00000348406920F480703B
:100C7000014948617047000000100048034840697E
:100C800080F48070014948617047000000100048FE
:100C90002348C06C40F012002149C8646FF0300056
:100CA000204908600846006840F0100008601D48B0
:100CB0000830006820F030001A4908310860084602
:100CC000006840F030000860081F006820F0040051
:100CD000091F086013480C30006820F030001149EB
:100CE0000C3108606FF440300F4908600846006816
:100CF00040F4803008600846806820F44030886006
:100D00000846806840F4403088600846406820F417
:100D1000807048600846C06820F44030C860704762
:100D200000100240000400480010004870B504465E
:100D30002046FFF744FD05462A462146014800F0BB
:100D400067FA70BD0044004070B588B004460D4697
:100D500000262A4621466846FFF700FB0646324633
:100D60006946024800F054FA08B070BD00440040E3
:100D70000348006820F00400014908607047000043
:100D8000140400480348006880F00400014908602A
:100D900070470000140400485E49096821F007010B
:100DA0005C4A11601146096841F0020111605A491C
:100DB000096841F48071584A116000BF56490968BA
:100DC00001F480610029F9D010205349496821F0CD
:100DD000F851514A51601146496841EA0061516039
:100DE0001146096821F08071116000BF4A49096805
:100DF00001F00071B1F1007FF8D04749C96821F0D6
:100E00000301454AD1601146C96841F00201D16031
:100E10001146C96821F4FE4141F4A051D160114648
:100E2000C96821F0700141F01001D1601146C96814
:100E300021F0C061D1601146C96841F08071D16074
:100E40001146096841F08071116000BF324909689C
:100E500001F000710029F9D02F49896821F00301C0
:100E60002D4A91601146896841F00301916000BFED
:100E70002949896801F00C010C29F9D126498968B2
:100E800021F0F001244A91601146896821F4E06163
:100E900091601146896821F460519160114609689A
:100EA00021F08061116000BF1B49096801F0806179
:100EB000B1F1806FF8D01849096921F4FE41164A52
:100EC00011611146096941F4C05111611146096966
:100ED00041F4003111611146096941F48031116119
:100EE0001146096841F08061116000BF0A49096834
:100EF00001F080610029F9D007498831096821F49F
:100F00004001054AC2F888101146096E41F40011EB
:100F100011667047002002400010024010B51048D2
:100F2000006800F0010098B1FFF72CFF0D48006841
:100F300000F0B6F9401C38B909481038006820F0B4
:100F40000100074910390860002005491431086084
:100F50000348006820F001000149086010BD00004E
:100F6000100400401400002010B51048006800F084
:100F7000010098B1FFF782FE0D48006800F090F97B
:100F8000401C38B909481038006820F001000749B2
:100F900010390860002005491431086003480068D2
:100FA00020F001000149086010BD0000100C004055
:100FB0002C00002010B500F01FFA2D48806D40F085
:100FC00002002B4988650846C06C40F01000C864D8
:100FD0002848006820F00800264908600846006A92
:100FE00040F0080008622448006820F0010022490F
:100FF000086021482038006820F001001E4920398F
:1010000008601D480838006820F003001A490839B4
:1010100008600846006819490840174908390860FF
:101020004FF4487014490C3108604FF4FA50091F0E
:1010300008601D20002809DB00F01F0201219140FB
:101040004209920002F1E022C2F8001100BF0A48F2
:101050000C38006840F0010007490C390860064868
:101060002038006840F0040003492039086010BDB2
:101070000010024000100048200400408FFFFEFFD7
:101080001A48C06C40F008001849C8641848006845
:1010900020F47050164908600846006840F420505B
:1010A000086013482030006840F0EE60104920319D
:1010B00008600F480830006840F470500C4908314F
:1010C0000860081D006820F47050091D086008467B
:1010D000006840F4A05008600548001D006820F03A
:1010E00060000349091D08607047000000100240BD
:1010F000000C004800B50D48806D40F400300B49ED
:1011000088650A488830006820F00C00C1F8880023
:101110000846D0F8880040F00400C1F88800FFF7C6
:10112000AFFF034800F010F800BD000000100240BF
:1011300000440040642242430723B2FBF3F100BFA6
:101140004A1E111EFCD17047016821F001010160A7
:10115000016821F010210160016821F40041016063
:10116000416821F44051416042F28D01C160016843
:1011700041F00C0101601E4988421BD1016841F019
:1011800020010160016821F040010160016821F047
:1011900010010160016821F080010160016821F403
:1011A00080710160016821F040010160016821F057
:1011B000010101600F49884209D1016A41F04001F3
:1011C00001620D49096841F0C0010B4A11600168D4
:1011D00041F00101016000BFC16901F40011002963
:1011E000FAD000BFC16901F480010029FAD070472C
:1011F000004C00400044004008380140014600BF58
:10120000C86900F020000028FAD0888CC0B270476E
:10121000F0B504460E46174600250CE000BFE06915
:1012200000F080000028FAD0705D20854FF49670A1
:10123000FFF780FF6D1CBD42F0D300BFE06900F0F6
:1012400040000028FAD0E06920F04000E061F0BDE5
:1012500030380A2801D2012070470020704770B54D
:1012600005460E460C20FFF749F80446666000204C
:101270002070A560204670BD70B505460E460C2056
:10128000FFF73CF8044631462846FFF7E8FF2060A8
:101290004FF0FF30A06000202071204670BD00009C
:1012A0002DE9F0410446206800F06CF9064606F08E
:1012B000E00706F01F05FF2E03D14FF0FF30BDE819
:1012C000F081202F06D0402F09D0802F3AD0A02FB8
:1012D0004DD141E0294629A0FFF736FD4BE0002D16
:1012E0000FDDA06800280CDA20680078401E216815
:1012F0000870294625A0FFF727FD681EA060002082
:10130000DDE7A06800280DDD20680078401E216818
:1013100008701EA0A168FFF717FDA068401EA0601E
:101320000020CCE72DB9294618A0FFF70DFD0020BD
:10133000C5E716A0A168FFF707FDA068401EA060E2
:101340000020BCE7206800782071A560217915A0F5
:10135000FFF7FAFC0020B2E7A068002805DB20793F
:1013600021680870A068401EA0600020A7E718A0B0
:10137000FFF7DCFC00BF00BF0020A0E74D6F7665E3
:1013800020746F2025640A0D000000005761697405
:10139000696E6720666F72202564206379636C65CF
:1013A000730A0D004C6F6F7020706F696E746572F8
:1013B0002073617665642E20546F70206F66206CF8
:1013C0006F6F7020697320307825580D0A00000077
:1013D000436F6D6D616E64204572726F72210A0DEC
:1013E00000000000014608784A68904201D10120BF
:1013F00070470020FCE7000010B513210248FFF7FA
:101400003BFF0249086010BD0000002014000020CE
:1014100010B513210248FFF72FFF0249086010BDE5
:10142000180000202C0000201FB572B6FFF7B4FC96
:10143000FFF72EFCFFF75EFEFFF7BCFD62B600F083
:10144000E7F83AA0FFF772FC4248FFF76FFC42480A
:10145000FFF76CFC68E00024FFF78AFCFFF704FC50
:101460003EA0FFF763FC302000900DE03C48FFF702
:10147000C5FE0090012269463948FFF7C9FE9DF874
:10148000000001A90855641C9DF800000D28EDD14D
:1014900034A0FFF74BFC9DF80400422803D09DF8D0
:1014A0000400622802D100F09FF818E09DF80400C3
:1014B000502803D09DF80400702802D100F0BCF839
:1014C0000DE09DF80400432803D09DF80400632834
:1014D00002D100F065F802E023A0FFF727FC9DF899
:1014E0000500422803D09DF80500622802D100F0D3
:1014F0008FF818E09DF80500502803D09DF80500EE
:10150000702802D100F0AAF80DE09DF805004328EC
:1015100003D09DF80500632802D100F053F802E0E3
:1015200011A0FFF703FC00BF95E7000057656C634F
:101530006F6D6520746F2074686520536572766FD7
:1015400020436F6E74726F6C2073797374656D0DC8
:101550000A000000FC160008741700083E00000096
:10156000004400400A0D00004F76657272696465A0
:10157000204E6F7420417661696C61626C650A0D62
:101580000000000000B503461846FFF72BFF08B126
:10159000FF2000BD1978481C18709868405CF8E777
:1015A0000748006840F001000549086004480C380D
:1015B000006840F0010002490C39086070470000E3
:1015C0000C0400400748006840F00100054908602D
:1015D00004480C38006840F0010002490C390860EA
:1015E000704700000C0C004010B5FFF705FF0748DE
:1015F000006840F001000549086004480C380068A4
:1016000040F0010001490C39086010BD0C04004095
:1016100010B5FFF7FDFE0748006840F001000549DE
:10162000086004480C38006840F0010001490C399A
:10163000086010BD0C0C00400748006820F0010055
:101640000549086004480C38006820F00100024990
:101650000C390860704700000C040040074800681F
:1016600020F001000549086004480C38006820F0AB
:10167000010002490C390860704700000C0C004062
:1016800010B500290AD00878002807D0054878440A
:10169000FFF7A2FA002801D0002010BD02487844CC
:1016A00010BD0000720100006A0100004FF04070A0
:1016B000E1EE100A7047000000000000000000008A
:1016C0003031323334353637383941424344454678
:1016D0004030580030313233343536373839616272
:1016E0006364656640307800040000080000000074
:1016F0000000000200010000100000005468652096
:1017000073797374656D2073696D756C74616E6542
:101710006F75736C7920636F6E74726F6C73207465
:10172000776F20736572766F732E0A0D456163685B
:1017300020736572766F2068617320612064656430
:1017400069636174656420636F6D6D616E6420739D
:1017500063726970742074686174206861732062B8
:1017600065656E207072656C6F616465642E0A0D2C
:1017700000000000596F75206172652061626C6520
:1017800020746F2053544152542C205041555345DE
:101790002C20616E6420434F4E54494E55452074B1
:1017A000686520657865637574696F6E2E0A0D4FE4
:1017B00072206D6F76652065697468657220736547
:1017C00072766F204C454654206F7220524947482C
:1017D00054203120706F736974696F6E2E0A0D008A
:1017E000101900080000002030000000C4010008AB
:1017F000401900083000002060060000E0010008E9
:101800001001000043000000F8FFFFFF00404040CF
:1018100040404040404041414141414040404040C3
:10182000404040404040404040404040400502026F
:10183000020202020202020202020202022020202E
:10184000202020202020200202020202020290908A
:101850009090909010101010101010101010101088
:1018600010101010101010100202020202028888DC
:1018700088888888080808080808080808080808E8
:1018800008080808080808080202020240000000D0
:101890000000000000000000000000000000000048
:1018A0000000000000000000000000000000000038
:1018B0000000000000000000000000000000000028
:1018C0000000000000000000000000000000000018
:1018D0000000000000000000000000000000000008
:1018E00000000000000000000000000000000000F8
:1018F00000000000000000000000000000000000E8
:1019000000000000000000000000000000000000D7
:1019100025202523802124A0202240234022235F4C
:101920005F5F25000000000020252023802124A0E7
:10193000202240234022235F5F5F2400000000003C
:040000050800018965
:00000001FF
