:020000040800F2
:100000009817002071020008AD020008AF02000836
:10001000B1020008B3020008B502000800000000A9
:10002000000000000000000000000000B70200080F
:10003000B902000800000000BB020008BD02000871
:10004000BF020008BF020008BF020008BF0200088C
:10005000BF020008BF020008BF020008BF0200087C
:10006000BF020008BF020008BF020008BF0200086C
:10007000BF020008BF020008BF020008BF0200085C
:10008000BF020008BF020008BF020008BF0200084C
:10009000BF020008BF020008BF020008BF0200083C
:1000A000BF020008BF020008BF020008BF0200082C
:1000B000A5060008BF020008BF020008BF02000832
:1000C000BF020008BF020008BF020008BF0200080C
:1000D000BF020008BF020008BF020008BF020008FC
:1000E000BF020008BF020008BF020008BF020008EC
:1000F000BF020008BF020008BF020008BF020008DC
:10010000BF020008BF020008BF020008BF020008CB
:10011000BF020008BF020008BF020008BF020008BB
:10012000BF020008BF020008BF020008BF020008AB
:10013000BF020008BF020008BF020008BF0200089B
:10014000BF020008BF020008BF020008BF0200088B
:10015000BF020008BF020008BF020008BF0200087B
:10016000BF020008BF020008BF020008BF0200086B
:10017000BF020008BF020008BF0200080000000024
:10018000BF020008BF02000800F002F800F060F8AB
:100190000AA090E8000C82448344AAF10107DA45E2
:1001A00001D100F055F8AFF2090EBAE80F0013F0D4
:1001B000010F18BFFB1A43F001031847B4090000F0
:1001C000D409000010F8013B0A4413F0030408BFEF
:1001D00010F8014B1D1108BF10F8015B641E05D01B
:1001E00010F8016B641E01F8016BF9D1002D15D0D8
:1001F00010F8014B03F00C030C2BA1EB04040ABF15
:1002000010F8013BA4EB8314A4EB032405F10103D4
:1002100014F8016B5B1E01F8016BF9D5914238BFF0
:1002200010F8013BD1D3704700230024002500269D
:10023000103A28BF78C1FBD8520728BF30C148BF49
:100240000B6070471FB500F08DFC1FBD10B510BDD1
:1002500000F072F81146FFF7F5FF00F0EFFB00F039
:1002600090F803B4FFF7F2FF03BC00F097F800002A
:1002700016481749174B99423CBF50F8042B41F8D8
:10028000042BF8D314494FF000028B4238BF43F8D7
:10029000042BFAD3DFF84400016841F470010160D7
:1002A000BFF34F8FBFF36F8F0D480047FEE7FEE7A8
:1002B000FEE7FEE7FEE7FEE7FEE7FEE7FEE7FEE716
:1002C00008480949094A0A4B70470000900B00088A
:1002D000000000208C0100209817002088ED00E02D
:1002E0008901000898110020981700209813002019
:1002F0009813002010B5431C02E010F8011B71B1E7
:100300008107FAD14FF0013202C88C1A8C4314EAEB
:10031000C211F9D0C01A0A0603D0C01E10BDC01AFF
:1003200010BD0A0401D0801E10BD0902FCD0401E81
:1003300010BD704770477047754600F02BF8AE4609
:1003400005006946534620F00700854618B020B5E1
:10035000FFF7B6FFBDE820404FF000064FF0000762
:100360004FF000084FF0000B21F00701AC46ACE85D
:10037000C009ACE8C009ACE8C009ACE8C0098D46CA
:10038000704710B50446AFF300802046BDE810402A
:10039000FFF767BF00487047381100200149182057
:1003A000ABBEFEE726000200704700000E48C06C9E
:1003B00040F001000C49C8644FF09040006820F004
:1003C00003004FF0904108600846006840F00200CA
:1003D00008600846006A20F00F0008620846006ABC
:1003E00040F00100086270470010024010B504465A
:1003F0001E48806D40F001001C49886500F038F807
:100400004FF08040006A20F001004FF08041086208
:100410000846C462806920F00F0088610846806940
:1004200040F0010088610846806920F00A00886178
:100430000846006840F0040008600846C06840F0C4
:100440000300C8600846006A40F0010008621C20F2
:10045000002809DB00F01F020121914042099200AF
:1004600002F1E022C2F8001100BF10BD00100240EE
:100470002348C06C40F012002149C8646FF030007E
:10048000204908600846006840F0100008601D48D8
:100490000830006820F030001A490831086008462A
:1004A000006840F030000860081F006820F0040079
:1004B000091F086013480C30006820F03000114913
:1004C0000C3108606FF440300F490860084600683E
:1004D00040F4803008600846806820F4403088602E
:1004E0000846806840F4403088600846406820F440
:1004F000807048600846C06820F44030C86070478B
:100500000010024000040048001000480348006842
:1005100040F00400014908607047000014040048DE
:100520005E49096821F007015C4A116011460968BB
:1005300041F0020111605A49096841F48071584A3A
:10054000116000BF5649096801F480610029F9D0A3
:1005500010205349496821F0F851514A5160114621
:10056000496841EA006151601146096821F08071D3
:10057000116000BF4A49096801F00071B1F1007FC4
:10058000F8D04749C96821F00301454AD1601146B6
:10059000C96841F00201D1601146C96821F4FE41E9
:1005A00041F4A051D1601146C96821F0700141F0B9
:1005B0001001D1601146C96821F0C061D1601146B7
:1005C000C96841F08071D1601146096841F08071BD
:1005D000116000BF3249096801F000710029F9D0AB
:1005E0002F49896821F003012D4A916011468968DD
:1005F00041F00301916000BF2949896801F00C01B5
:100600000C29F9D12649896821F0F001244A91602A
:100610001146896821F4E06191601146896821F4EE
:10062000605191601146096821F08061116000BF3E
:100630001B49096801F08061B1F1806FF8D0184959
:10064000096921F4FE41164A11611146096941F414
:10065000C05111611146096941F40031116111461F
:10066000096941F4803111611146096841F08061E6
:10067000116000BF0A49096801F080610029F9D0C2
:1006800007498831096821F44001054AC2F88810F9
:100690001146096E41F400111166704700200240B6
:1006A000001002400EB54FF08040006900F00200DB
:1006B00002280CD114480EC8684600F01DFA1248F2
:1006C0009DE80E000EC00120104908600FE04FF0B9
:1006D0008040006900F0010048B1FFF717FF4FF0BC
:1006E0008040006820F001004FF0804108604FF02A
:1006F0008040006920F003004FF0804108614FF016
:10070000FF30024908600EBD2C11002004000020BB
:100710001A48C06C40F008001849C86418480068BE
:1007200020F47050164908600846006840F42050D4
:10073000086013482030006840F0EE601049203116
:1007400008600F480830006840F470500C490831C8
:100750000860081D006820F47050091D08600846F4
:10076000006840F4A05008600548001D006820F0B3
:1007700060000349091D0860704700000010024036
:10078000000C004800B50D48806D40F400300B4966
:1007900088650A488830006820F00C00C1F888009D
:1007A0000846D0F8880040F00400C1F88800FFF740
:1007B000AFFF034800F010F800BD00000010024039
:1007C00000440040642242430723B2FBF3F100BF20
:1007D0004A1E111EFCD17047016821F00101016021
:1007E000016821F010210160016821F400410160DD
:1007F000416821F44051416042F28D01C1600168BD
:1008000041F00C0101601E4988421BD1016841F092
:1008100020010160016821F040010160016821F0C0
:1008200010010160016821F080010160016821F47C
:1008300080710160016821F040010160016821F0D0
:10084000010101600F49884209D1016A41F040016C
:1008500001620D49096841F0C0010B4A116001684D
:1008600041F00101016000BFC16901F400110029DC
:10087000FAD000BFC16901F480010029FAD07047A5
:10088000004C00400044004008380140014600BFD1
:10089000C86900F020000028FAD0888CC0B27047E8
:1008A000F0B504460E46174600250CE000BFE0698F
:1008B00000F080000028FAD0705D20854FF496701B
:1008C000FFF780FF6D1CBD42F0D300BFE06900F070
:1008D00040000028FAD0E06920F04000E061F0BD5F
:1008E00068B526480068002846D1202224A12C485B
:1008F000FFF7D6FF25222BA12948FFF7D1FF284873
:10090000FFF7C4FF05460CE02548FFF7BFFF05468B
:100910002E4909680DF801502C480068401C2B49ED
:1009200008600D2DF0D12A48FFF7E4FC0646324658
:1009300027491B48FFF7B4FF4E2C01D06E2C06D17F
:10094000142224A11648FFF7ABFF002068BD592CE4
:1009500001D0792C08D1142226A11148FFF7A0FF5D
:10096000012006490860F1E716222BA10C48FFF789
:1009700097FFFFF7B5FFE9E700BFE7E78401002035
:10098000212157656C636F6D6520546F2054686535
:10099000204D61696E204D656E756521210D0A003F
:1009A00000440040507265737320656E7465722058
:1009B0006F6E63652076616C75657320617265206A
:1009C000656E74657265643A20000000880100203D
:1009D000220100204578697474696E672050726F37
:1009E0006772616D2E2E2E2E2E2E0D0A0D0A0A0A0A
:1009F0000000000052756E6E696E672054686520B5
:100A0000506F737420546573742E2E2E2E2E2E0D5F
:100A10000A0D0A0A0A000000496E76616C696420BA
:100A2000526573706F6E73652057617320456E74E5
:100A3000657265640D0A0D0A0A0A000008B572B6EF
:100A4000FFF76EFDFFF7B2FCFFF712FD1748FFF747
:100A5000CDFCFFF797FE62B626E0192214A11B48D1
:100A6000FFF71EFF1948FFF711FF009000BF9DF828
:100A700000000D28FBD1012269461448FFF710FF42
:100A8000022213A11148FFF70BFFFFF729FF06E031
:100A9000142210A10D48FFF703FF002008BD1548E0
:100AA00000680128F4D000BFD7E7000000127A00E8
:100AB000507265737320656E74657220746F206365
:100AC0006F6E74696E75650A0D0000000044004089
:100AD0000A0D00004578697474696E672050726F62
:100AE0006772616D2E2E2E2E2E2E0D0A0D0A0A0A09
:100AF0000A0A0000840100200FB54FF08041496BC5
:100B00009DF80C2001AB43F822109DF80C10012930
:100B100018D112490968B1F57A7F13DADDE90121AC
:100B2000891A5022B1FBF2F20D490C4B1B6841F8B7
:100B300023200A490968491C084A116000214FF026
:100B4000804251629DF80C1081F001018DF80C106B
:100B500001A90EC980E80E000FBD000000000020B2
:100B60008C0100204FF04070E1EE100A7047000049
:100B7000900B0008000000208C010000C401000858
:100B8000B80C00088C0100200C1600002802000898
:100B9000A20001203920212154686520506F737410
:100BA00020686173206661696C65642064756520E6
:100BB000746F206E6F2070756C7365207365656E41
:100BC00020696E203130306D7321210D0A02201E04
:100BD0000A0A0020576F756C6420596F75204C69A4
:100BE0006B6520546F20526572756E2074557012BB
:100BF000726F6772616D3F202859206F72204E29F5
:100C00003A38332121343014617265206375727271
:100C1000656E746C79207573696E673A202364651C
:100C20006661756C7420626F756E6473206F6620E8
:100C30002A2A20393530206D6963726F7365636FBE
:100C40001712268FE1141128419F120AA142009E1B
:100C500012796A226C9E11D230076368616E6765F3
:100C600065415D819E72209E200A456E74657220EA
:100C7000275927D0240B62652042726F756768740C
:100C80001231D8500B4F535420746573742C202AA2
:100C9000274E272E3004656E64BE4270F81008207F
:100CA000636F6D706C65DA552D156F8407B60300A0
:080CB000001A0482000000009C
:040000050800018965
:00000001FF
