:020000040800F2
:10000000D01900204D020008890200088B02000868
:100010008D0200088F020008910200080000000015
:100020000000000000000000000000009302000833
:1000300095020008000000009702000899020008DD
:100040009B0200089B0200089B0200089B0200081C
:100050009B0200089B0200089B0200089B0200080C
:100060009B0200089B0200089B0200089B020008FC
:100070009B0200089B0200089B0200089B020008EC
:100080009B0200089B0200089B0200089B020008DC
:100090009B0200089B0200089B0200089B020008CC
:1000A0009B0200089B0200089B0200089B020008BC
:1000B000951000089B0200089B0200089B020008A4
:1000C0009B0200089B0200089B0200089B0200089C
:1000D0009B0200089B0200089B0200089B0200088C
:1000E0009B0200089B0200089B0200089B0200087C
:1000F0009B0200089B0200089B0200089B0200086C
:100100009B0200089B0200089B0200089B0200085B
:100110009B0200089B0200089B0200089B0200084B
:100120009B0200089B0200089B0200089B0200083B
:100130009B0200089B0200089B0200089B0200082B
:100140009B0200089B0200089B0200089B0200081B
:100150009B0200089B0200089B0200089B0200080B
:100160009B0200089B0200089B0200089B020008FB
:100170009B0200089B0200089B0200080000000090
:100180009B0200089B02000800F002F800F04EF805
:100190000AA090E8000C82448344AAF10107DA45E2
:1001A00001D100F043F8AFF2090EBAE80F0013F0E6
:1001B000010F18BFFB1A43F001031847182F000066
:1001C000382F0000103A24BF78C878C1FAD85207F7
:1001D00024BF30C830C144BF04680C6070470000C1
:1001E0000023002400250026103A28BF78C1FBD840
:1001F000520728BF30C148BF0B607047642900F028
:100200000F81002070471FB502F040FE9DE80300FB
:1002100000F0ACF900F08EF904000020002102F09B
:1002200087F8401C60601FBD10B510BD00F0C1FA1A
:100230001146FFF7E8FF01F0F3FF00F0DFFA03B427
:10024000FFF7F2FF03BC00F00FFB00001648174950
:10025000174B99423CBF50F8042B41F8042BF8D3BC
:1002600014494FF000028B4238BF43F8042BFAD3F5
:10027000DFF84400016841F470010160BFF34F8F63
:10028000BFF36F8F0D480047FEE7FEE7FEE7FEE78E
:10029000FEE7FEE7FEE7FEE7FEE7FEE7084809495E
:1002A000094A0A4B70470000043200080000002091
:1002B00078000020D019002088ED00E089010008B6
:1002C000D0130020D0190020D0150020D015002018
:1002D00010B500F02FF9001D10BD00BF5520000023
:1002E00070B5064600F022F9056806F10B0020F013
:1002F0000704B4429CBF002070BD2B466A68BAB1A7
:100300001068A04210D304F1080188423CBF506835
:10031000586007D35168101941601168091B0160CA
:1003200058601460101D70BD13465268002AE7D152
:100330002146284600F006F90028DED170BD70B5D0
:100340000446051F00F0F2F80068002C14BF446852
:1003500070BD002C18BFAC423CBF20466468F8D387
:1003600001680A18AA4218BF456003D12A680546E9
:100370001144016028684119A1421CBF6C6070BD26
:100380006168696021680844286070BD0FB41CB5BD
:10039000084B06AA7B4469460090059800F085F951
:1003A00004460020694600F093F920461CBC5DF825
:1003B00014FB0000390300002DE9F0410E4604460D
:1003C000002020622046E168884730B3252805D008
:1003D000D4E901219047206A401CF2E7E1682046F9
:1003E00000278847050018D0A5F14100192802D838
:1003F00020354FF400673246294620462760FFF734
:10040000FDFE40B1012804D0F61D26F0070608368F
:10041000D8E7361DD6E72846DAE7206ABDE8F0813E
:100420002DE9F0410646002410687529314616A5CD
:1004300010D0AFF30080002802DA404213A507E095
:1004400031688A0701D512A502E0490704D511A534
:10045000012401E0AFF3008000210A2206F1240705
:1004600009E0B0FBF2FCB0FBF2F302FB1C00303001
:1004700078541846491C0028F3D123462A463046B2
:10048000BDE8F04100F0B3B8000000002D0000000E
:100490002B0000002000000010B5431C02E010F803
:1004A000011B71B18107FAD14FF0013202C88C1AD9
:1004B0008C4314EAC211F9D0C01A0A0603D0C01E38
:1004C00010BDC01A10BD0A0401D0801E10BD090263
:1004D000FCD0401E10BD4FF0000200B513469446FC
:1004E0009646203922BFA0E80C50A0E80C50B1F18C
:1004F0002001BFF4F7AF090728BFA0E80C5048BFA0
:100500000CC05DF804EB890028BF40F8042B08BF3D
:10051000704748BF20F8022B11F0804F18BF00F839
:10052000012B7047704770477047000000487047C4
:1005300074130020004870478C13002070477047E8
:100540007047704738B504460A4600206946AFF345
:100550000080002808BF38BD02460099204600F000
:10056000C5F8012038BD012000F0DAB8F8B5AFF3C6
:100570000080054600200C46102000BF0646A81942
:10058000A0420DD9324669460020AFF30080070033
:1005900008BF00F0C5F80098A04218BF0546C4196E
:1005A000FFF7C4FF05600746F01D20F0070046195D
:1005B000284600F00AF8B44208BFF8BDA21B314635
:1005C0003868BDE8F84000F091B800210160C0E94A
:1005D000011070471020704710B500F083F80068D4
:1005E00010BD10B5044600F07DF8046010BD2DE983
:1005F000F0470D4699469246044600F124080168EA
:10060000880604D5E06921F01001216000E0012096
:10061000A84201DD471B00E00027A1697A1902EB1F
:100620000900081AA0612078C00602D42046AFF362
:100630000080002608E0D4E901211AF8060090475E
:10064000206A401C761C20624E45F4DB2078C006F0
:100650000AD52046AFF3008006E0D4E9012130201E
:100660009047206A401C2062381EA7F10107F4DC85
:1006700007E0D4E9012118F805009047206A401CE2
:100680002062281EA5F10105F3DC2046AFF30080AF
:100690002078000602D50220BDE8F0870120FBE7A4
:1006A00001694A1C02610878704700B58FB0CDE936
:1006B00001310021059105497944CDE90310114626
:1006C0006846FFF779FE0FB000BD0000E5FFFFFFB1
:1006D0000A6802F8010B0A60704700000048704782
:1006E0006C130020004870476C13002003464068DC
:1006F0008C46002818BF88423CBF03464068F8D3A8
:1007000018681844884207D00CF1030020F0070055
:10071000001D411A521A0146081D0A60FFF70FBE5C
:1007200010B500F079F8BDE8104000F070B8000096
:100730004FF0013C50F8042B51F8043B9A4221D170
:10074000A2EB0C03934313EACC1317D150F8042BFC
:1007500051F8043B9A4215D1A2EB0C03934313EAE0
:10076000CC130BD150F8042B51F8043B9A4209D119
:10077000A2EB0C03934313EACC13DBD04FF0000041
:10078000704700BFD01A01BAB1FA81F101F0180127
:1007900022FA01F0CB40C1F12001DBB2C0B2C01A95
:1007A0002CFA01F3D11A914311EAC311E6D1704733
:1007B00070477546FFF792FFAE46050069465346FF
:1007C00020F00700854618B020B5FFF767FDBDE8AB
:1007D00020404FF000064FF000074FF000084FF0A8
:1007E000000B21F00701AC46ACE8C009ACE8C00939
:1007F000ACE8C009ACE8C0098D46704710B50446A6
:10080000AFF300802046BDE81040FFF718BD002878
:1008100001D000F029B8704710B5012805D000219B
:1008200003A000F027F8012010BD09A1F8E700009F
:1008300053494752544D454D3A204F7574206F66C9
:100840002068656170206D656D6F72790000000031
:100850003A2048656170206D656D6F727920636F15
:10086000727275707465640001491820ABBEFEE7B2
:100870002600020070B505460C460A2000E06D1CFB
:1008800000F011F835B128780028F8D102E0641C96
:1008900000F009F814B120780028F8D1BDE87040C4
:1008A0000A20AFF3008008B569468DF800000320E8
:1008B000ABBE08BD0348406980F4807001494861BF
:1008C00070470000001000480E48C06C40F0010066
:1008D0000C49C8644FF09040006820F003004FF0CE
:1008E000904108600846006840F002000860084631
:1008F000006A20F00F0008620846006A40F001001C
:10090000086270470010024001461F48806D40F0A9
:1009100001001D4A90659004006A20F001009204D5
:1009200010621046006820F0010010601046C1629D
:10093000806920F00F0090611046806940F001004E
:1009400090611046806920F00A00906110460068AE
:1009500040F0040010601046006840F00200106093
:100960001046C06840F00300D0601C20002809DB5E
:1009700000F01F0301229A4043099B0003F1E0238A
:10098000C3F8002100BF7047001002402348C06C2C
:1009900040F012002149C8646FF03000204908601F
:1009A0000846006840F0100008601D4808300068E4
:1009B00020F030001A49083108600846006840F00D
:1009C00030000860081F006820F00400091F08605C
:1009D00013480C30006820F0300011490C310860D9
:1009E0006FF440300F4908600846006840F48030DA
:1009F00008600846806820F44030886008468068B7
:100A000040F4403088600846406820F480704860B8
:100A10000846C06820F44030C860704700100240AB
:100A2000000400480010004870B500F061FC064664
:100A3000304600F04DFC0546681C90B934A000F02B
:100A40000BFA3CA000F008FA424800F017FC0446FC
:100A500003E0404800F012FC04460D2CF9D10120BF
:100A600070BD012D01D140F2B6363BA000F0F4F983
:100A700000BF384800F002FC0D28FAD100F024FA3B
:100A800002E03CA000F0E8F93B48006820B93B4890
:100A9000D0F89C0F0028F4D025A000F0DDF93648EE
:100AA0000068401C20B900F029FA00F0A7F8D7E749
:100AB00000F024FA32A000F0CFF937A000F0CCF912
:100AC000304600F03DF93D4800F0C6F91EE02148EF
:100AD00000F0D4FB0446592C01D0792C05D100201C
:100AE0002649C1F89C0F0120BAE74E2C01D06E2C8C
:100AF00006D1112232A1174800F0CAFB0020AFE74F
:100B00001E2236A1134800F0C3FB00BFDFE7000040
:100B1000596F7572206C6F77657220626F756E64A5
:100B2000206973206F7574206F662072616E67652F
:100B30000A0D0000507265737320656E7465722033
:100B4000746F20726573746172742E2E2E2E2E0AAD
:100B50000D00000000440040507265737320656E04
:100B600074657220746F2073746172742E2E2E2E31
:100B70002E0A0D002E000000040000207800002046
:100B8000504F5354207465737420506173736564BF
:100B900021210D0A0000000048657265206973205C
:100BA0006120486973746F6772616D206F6620748D
:100BB000686520646174610D0A0A0000400000202D
:100BC0004578697474696E672050726F6772616DE1
:100BD0002E2E2E2E2E2E0D0A00000000496E76615C
:100BE0006C696420526573706F6E73652057617312
:100BF00020456E74657265640D0A000070B51A4870
:100C0000FFF74AFC05462A461749184800F040FB02
:100C10001748FFF741FC05462A461549134800F0DE
:100C200037FB124800F02AFB044618E0592C01D08B
:100C3000792C00D114E04E2C01D06E2C06D111225B
:100C40000CA10A4800F024FB002070BD1E2210A158
:100C5000064800F01DFB054800F010FB0446E5E7E0
:100C600000BF00BFF1E70000080000200044004082
:100C7000400000204578697474696E672050726F77
:100C80006772616D2E2E2E2E2E2E0D0A0000000092
:100C9000496E76616C696420526573706F6E73651E
:100CA0002057617320456E74657265640D0A0000FB
:100CB0002DE9F0412DED0C8B06460D460027002452
:100CC0002DE0691E081B01F098FD41EC1D0BB0EEF4
:100CD0004D1AF0EE6D1A9FED150B00F07DFBB0EE96
:100CE00040BAF0EE60BA315DA1F1300001F085FD4F
:100CF00041EC1C0B53EC1B2B01F0D2FD41EC190B0A
:100D0000384601F07AFD41EC1A0B53EC192B01F037
:100D100031FB41EC180B01F041FD0746641CAC426D
:100D2000CFDB384600F006B8BDE8F08100000000D7
:100D300000002440BDEC088BBDEC04CBFFF7F4BFF2
:100D40002DE9F05F80462820FFF7CAFA04462820E4
:100D5000FFF7C6FA07464FF00009002508F1640ABC
:100D60004FF47A71334800F08FF800262BE03046BC
:100D700001F04EFA404525D9304601F049FA504578
:100D800020D256B90025304601F042FA81460120B2
:100D900044F8250047F8259014E0304601F038FA71
:100DA000484505D154F82500401C44F8250009E0C9
:100DB000304601F02DFA81466D1C012044F82500D3
:100DC00047F82590761CB6F57A7FD0DB00261BE02D
:100DD00054F82600B8B157F8262017A11748FFF796
:100DE000D5FA83465A461549154800F051FA54F889
:100DF000262014A11148FFF7C9FA83465A460F4925
:100E00000F4800F045FA761C0A2EE1DB282138460F
:100E1000FFF761FB28212046FFF75DFB2046FFF727
:100E20008EFA3846FFF78BFA08A000F015F800F0AC
:100E30000FB8000078000020256409004C13002042
:100E40000044004025640D0A000000000A00000074
:100E500030BCBDE8C09F000070B504462046FFF7D7
:100E60001BFB05462A462146014800F011FA70BDD9
:100E7000004400400348006840F004000149086055
:100E8000704700001404004830B50246002318E003
:100E9000002012E052F82050441C52F82440A54291
:100EA0000AD952F82040451C52F8255042F82050EB
:100EB000451C42F8254000BF401C4C1E8442E9DC22
:100EC0005B1C8B42E4DB30BD00200A4908600A4904
:100ED0000860486008724FF0804148620846006A26
:100EE00040F0010008620846006840F00100086018
:100EF0007047000000000020181000204FF08040D4
:100F0000006820F001004FF0804108607047000049
:100F10005E49096821F007015C4A116011460968C1
:100F200041F0020111605A49096841F48071584A40
:100F3000116000BF5649096801F480610029F9D0A9
:100F400010205349496821F0F851514A5160114627
:100F5000496841EA006151601146096821F08071D9
:100F6000116000BF4A49096801F00071B1F1007FCA
:100F7000F8D04749C96821F00301454AD1601146BC
:100F8000C96841F00201D1601146C96821F4FE41EF
:100F900041F4A051D1601146C96821F0700141F0BF
:100FA0001001D1601146C96821F0C061D1601146BD
:100FB000C96841F08071D1601146096841F08071C3
:100FC000116000BF3249096801F000710029F9D0B1
:100FD0002F49896821F003012D4A916011468968E3
:100FE00041F00301916000BF2949896801F00C01BB
:100FF0000C29F9D12649896821F0F001244A916031
:101000001146896821F4E06191601146896821F4F4
:10101000605191601146096821F08061116000BF44
:101020001B49096801F08061B1F1806FF8D018495F
:10103000096921F4FE41164A11611146096941F41A
:10104000C05111611146096941F400311161114625
:10105000096941F4803111611146096841F08061EC
:10106000116000BF0A49096801F080610029F9D0C8
:1010700007498831096821F44001054AC2F88810FF
:101080001146096E41F400111166704700200240BC
:10109000001002400EB54FF08040006900F00200E1
:1010A00002280BD114480EC8684601F00BF912480B
:1010B0009DE80E000EC0FFF7FDFB13E04FF08040EF
:1010C000006900F0010068B1FFF7D4FE4FF08040E6
:1010D000006820F001004FF0804108604FF0FF30C1
:1010E000064908604FF08040006920F003004FF08F
:1010F000804108610EBD000018100020040000208F
:101100001A48C06C40F008001849C86418480068C4
:1011100020F47050164908600846006840F42050DA
:10112000086013482030006840F0EE60104920311C
:1011300008600F480830006840F470500C490831CE
:101140000860081D006820F47050091D08600846FA
:10115000006840F4A05008600548001D006820F0B9
:1011600060000349091D086070470000001002403C
:10117000000C004800B50D48806D40F400300B496C
:1011800088650A488830006820F00C00C1F88800A3
:101190000846D0F8880040F00400C1F88800FFF746
:1011A000AFFF034800F010F800BD0000001002403F
:1011B00000440040642242430723B2FBF3F100BF26
:1011C0004A1E111EFCD17047016821F00101016027
:1011D000016821F010210160016821F400410160E3
:1011E000416821F44051416042F28D01C1600168C3
:1011F00041F00C0101601E4988421BD1016841F099
:1012000020010160016821F040010160016821F0C6
:1012100010010160016821F080010160016821F482
:1012200080710160016821F040010160016821F0D6
:10123000010101600F49884209D1016A41F0400172
:1012400001620D49096841F0C0010B4A1160016853
:1012500041F00101016000BFC16901F400110029E2
:10126000FAD000BFC16901F480010029FAD07047AB
:10127000004C00400044004008380140014600BFD7
:10128000C86900F020000028FAD0888CC0B27047EE
:10129000F0B504460E46174600250CE000BFE06995
:1012A00000F080000028FAD0705D20854FF4967021
:1012B000FFF780FF6D1CBD42F0D300BFE06900F076
:1012C00040000028FAD0E06920F04000E061F0BD65
:1012D0000146322905DB42F2DE60814201DC00205A
:1012E000704709B90120FBE74FF0FF30F8E7000035
:1012F00038B5002518A0FFF7AFFD2148FFF7ACFD7A
:101300002048FFF7A9FD13221FA12448FFF7C0FFC3
:10131000302000906C4613E02048FFF7AFFF0090AC
:10132000012221461D48FFF7B3FFFEF7D1FF0068F9
:101330002178405C202803D12078194948556D1C3C
:101340009DF800000D28E7D116A0FFF785FD29467E
:101350001348FFF7ADFC38BD57656C636F6D6520B2
:10136000746F2074686520496E70757420436170D5
:10137000747572652073797374656D0D0A000000D1
:101380001830000860300008456E746572206C6F7C
:1013900077657220626F756E643A200000440040E9
:1013A000710000200A0D000003B40198410000986C
:1013B00050EAC12018BF04204A0D18BF40F00100B8
:1013C00040F2FF72B2EB515F08BF40F0020001280B
:1013D00008BF052002B070472DE9F04D2DED040B3C
:1013E0002DED0E8B96B0DDE92550279CDDF890A001
:1013F00025F0004624F00048BAF1000F14BF012187
:10140000002101EB4502FC4953184A1093422AD3AC
:10141000002814BF0123002303EB44030B44F749C6
:101420008B4220D358EA00019FEDF59B76D0DFF880
:10143000D8B35D4503D1BAF1000F05D188E0BAF108
:10144000000F08BF002100D0012101EB450111F57B
:10145000001F08D8002814BF0121002101EB44011E
:1014600011F5001F0BD99DED261B9DED240B16B029
:1014700000F0DABD04B0BDE8F04D00F081BE0027F9
:10148000002DBCBFE149884521DAE1498845A8BF64
:1014900002271CDAC3451ADCDE4901EB2851142966
:1014A00008DDC1F1340220FA02F101FA02F28242AF
:1014B0000DD108E058B9C1F1140228FA02F101FA7D
:1014C00002F2424503D101F00101C1F1020756EADF
:1014D0000A0124D1002C22DA002D18BF022F01D0DE
:1014E000012F0AD00220FFF77CF816B000F0A2BD51
:1014F00004B0BDE8F04D00F02BBE0220FFF771F8FC
:1015000000F026FE51EC100B00F028FF41EC100B10
:1015100016B000F095BD04B0BDE8F08D18E09FED69
:10152000BEAB9FEDBF8B002871D1B848804522D15A
:1015300005F1804010F5801008BFBAF1000F07D008
:10154000B3450ADC002CA8BF9DED260BE0DA0DE0C8
:10155000B0EE490AF0EE690ADAE7002C06DA9DEDF2
:10156000260B51EC100B00F0F9FE6FE0AE4878440A
:1015700090ED000BCCE7D8454DD1002C48DA2EB1C8
:1015800086423AD1BAF1000F42D126E0BAF1000FFB
:1015900013D00220FFF725F800F00EFE8DED020BB0
:1015A0009DED240B8DED000B10EE900A039961F375
:1015B0001E0003909DED020BAAE78DED02AB9DEDA1
:1015C000240B1AEE901A10EE900A8DED000B61F3C9
:1015D0001E0003909DED020B9AE78DED028B9DEDB1
:1015E000240B18EE901A10EE900A8DED000B61F3AB
:1015F0001E0003909DED020B8AE709DA9DED240B96
:1016000051EC190B53EC102B00F070FF1EE020E0A2
:101610009DED240B7CE786421BDAB4F1804F0DD0A0
:10162000A4F10050B0F1FF5013D1002D11DB9DED5E
:10163000240B51EC100B00F00DFE07E09DED240B88
:1016400053EC102B51EC100B00F0C2BC41EC100B12
:101650005EE79DED240B51EC100B00F0CDFDBAF1CF
:10166000000FCDE90E0142D19FED710B46B3A6F1FB
:10167000E040B0F17F600CD05E4538D1002D00DA3B
:10168000A7B3022F0CBF01204FF0FF3001F0B5F8D7
:10169000DCE7002D01DD002C0DDA002D01DD002C32
:1016A0001FDB002D16DA002C14DB012F08BF9FED85
:1016B000620B3FF42DAFB0EE4A0AF0EE6A0A27E75C
:1016C000022F18BF002D0CD0012F0AD1002DFFF6DC
:1016D0001FAF06E0002DB8BF002C08DA012F3FF441
:1016E00017AFB0EE480AF0EE680A11E71BE00120E0
:1016F00000EBE57050EA070115D0791EB0EE498A7B
:10170000F0EE698A084308BF9FED4D8B4E480025D7
:10171000804570DD4D494E48884514DDB0420DDBF3
:10172000002C19DB2FE00120FEF75BFF16B000F064
:101730008DBC04B0BDE8F04D00F02EBDB34502DC19
:10174000002C09DC1FE0864202DA002C1BDA03E0E1
:101750005E452BDD002C16DD0220FEF742FF00F077
:101760002BFD8DED020B53EC1A2B51EC180B01F0F5
:1017700097F8CDE900010399019861F31E000390E9
:101780009DED020BC4E60220FEF72BFF00F024FDC6
:1017900010EE901A18EE900A8DED020B8DED008B75
:1017A00061F31E0003909DED020BB1E69DED0E0B63
:1017B00053EC192B51EC100B01F07EFA9FED260B28
:1017C000CDE9080153EC102B9DED080B51EC100BEB
:1017D00001F066F89FED221B53EC112B01F094F9F8
:1017E0009DED081B53EC112B01F05AF89FED1E1BC9
:1017F00053EC112B3CE08CE0FFFF1F00FFFF0F00BC
:10180000000000000000F03F0000F03F0000F07F0B
:101810000000404301FCFFFF000000000000F07FDB
:1018200000000000000000009E1A00000000000000
:101830000000000000000080000000000000F0FF39
:10184000000000000000F0BF0000E0410000F04395
:10185000FFFFEF3F00000000000000000000D03F4D
:10186000555555555555D53F000000000000E03F47
:1018700001F04AF99DED080B41EC1A0B53EC102BCB
:1018800051EC100B01F00CF853EC1A2B01F008F896
:1018900041EC1A0B9FEDFE0B53EC102B9DED080B4A
:1018A00051EC100B00F0FCFF41EC1B0B9FEDFA0B11
:1018B00051EC1A0B53EC102B00F0F2FF41EC1A0B19
:1018C0009FEDF70B53EC102B9DED080B51EC100B1B
:1018D00000F0E6FF53EC1A2B01F0EEF941EC1A0B85
:1018E00051EC1B0B53EC1A2B00F044FD0690CDE994
:1018F00006519DED060B53EC1B2B51EC100B01F028
:10190000DBF953EC1A2B01F0FFF841EC100B00F05F
:10191000A1B90020B6F5801F0EDA9FEDE30B53EC62
:10192000102B9DED0E0B51EC100B00F0B9FFCDE923
:101930000E016FF034000E4600EB2650A0F2FF3788
:10194000C6F31300DA4940F07F6646F040568842FD
:10195000D8BF002408DDD7498142C8BF012403DC79
:101960000024A6F580167F1CD348784400EBC40001
:101970000F9690ED00CB9DED0E0B53EC1C2B51EC14
:10198000100B01F099F99DED0E0B41EC1B0B53EC84
:101990001C2B51EC100B00F0EDFC41EC100B51EC4A
:1019A000190B53EC102B00F0A1FD41EC1D0B51EC79
:1019B0001B0B53EC1D2B00F073FF41EC1A0BBF48BF
:1019C0008DED10AB7844109590ED000B4FF000506A
:1019D00040EA660000EB84408DED080B00F5002026
:1019E00009909DED080B53EC1C2B51EC100B01F0F2
:1019F00063F99DED0E1B53EC112B01F085F841ECC2
:101A0000100B53EC102B9DED100B51EC100B00F054
:101A100047FF9DED080B41EC1C0B53EC102B9DED8B
:101A2000100B51EC100B00F03BFF53EC1B2B01F0A3
:101A30006BF853EC1C2B01F03FF953EC1D2B00F01D
:101A40002FFF41EC1C0B53EC1A2B51EC1A0B00F03E
:101A500027FF41EC1B0B9A480621B0EE4B0AF0EE33
:101A60006B0A784400F0F8FAB0EE401AF0EE601A13
:101A7000B0EE41DAF0EE61DA53EC1B2B51EC1B0BAC
:101A800000F00EFF53EC1D2B00F00AFF9DED100B34
:101A900041EC1B0B53EC1A2B51EC100B00F06AFCC1
:101AA00053EC1C2B00F0FCFE53EC1B2B00F062FCF3
:101AB0009DED100B41EC1B0B53EC102B51EC100B5C
:101AC00000F0EEFE41EC1D0B9FED7FEB53EC1E2B67
:101AD00000F050FC53EC1B2B00F04CFC0890CDE9BF
:101AE00008519DED080B53EC1E2B51EC100B01F02F
:101AF000E3F853EC1D2B01F0DFF853EC1B2B01F046
:101B000003F89DED080B41EC1D0B53EC102B9DEDE4
:101B1000100B51EC100B00F0C3FE41EC1B0B53EC0F
:101B20001A2B51EC1D0B00F0BBFE9DED080B41EC98
:101B30001A0B53EC102B51EC1C0B00F0B1FE53ECC4
:101B40001A2B00F017FC41EC1A0B51EC1B0B53EC59
:101B50001A2B00F00FFC0C90CDE90C519DED0C0BF5
:101B600053EC1B2B51EC100B01F0A6F853EC1A2B85
:101B700000F0CAFF41EC1B0B9FED550B53EC102BF3
:101B80009DED0C0B51EC100B00F08AFE41EC1A0B92
:101B90009FED510B51EC1B0B53EC102B00F080FE12
:101BA00041EC1B0B9FED4E0B53EC102B9DED0C0BE2
:101BB00051EC100B00F074FE53EC1B2B00F0DAFB21
:101BC00041EC100B4848784400EBC40090ED001B3A
:101BD00051EC100B53EC112B00F0CCFB41EC1B0B28
:101BE000384600F00AFECDE9080153EC1B2B51ECFE
:101BF0001A0B00F0BFFB41EC100B3C48784400EBA3
:101C0000C40090ED00CB51EC100B53EC1C2B00F0FA
:101C1000B1FB9DED081B53EC112B00F0ABFB0690C4
:101C2000CDE906519DED080B53EC102B9DED060BF5
:101C300051EC100B01F040F853EC1C2B01F03CF878
:101C400053EC1A2B01F038F853EC1B2B00F05CFF1F
:101C500041EC100B9DED261B53EC102B8DED001B62
:101C600000959DED260B51EC100B00F019FE9DED3B
:101C7000000B41EC1A0B53EC102B9DED260B51EC95
:101C8000100B01F019F89DED061B53EC112B2FE002
:101C9000000000604715F73FFE822B654715F73FB0
:101CA00044DF5DF80BAE543E0000000000004043EE
:101CB0008E9803007AB60B001A1600004816000032
:101CC0005215000000000000000000000000084065
:101CD000000000E009C7EE3FFD033ADC09C7EE3F14
:101CE000F5015B14E02F3EBEDE13000098130000E8
:101CF00000F0D6FD53EC1A2B00F03CFB9DED060BDB
:101D000041EC1A0B53EC102B9DED000B51EC100B1A
:101D100000F0C6FDCDE90C019DED0C0B51EC1A0B4A
:101D200053EC102B00F026FBCDE902010C46AA492A
:101D30008C422FDB611A084318D19DED0C0B53EC3C
:101D4000102B9DED020B51EC100B00F0B5FF41EC98
:101D50001B0B9FEDA30B51EC1A0B53EC102B00F057
:101D600009FB53EC1B2B00F099FE2DD20220FEF74D
:101D700038FC00F021FA10EE901A18EE900A8DED62
:101D8000020B8DED008B61F31E0003909DED020BA5
:101D9000FFF7BEBB944A24F00041914214D393490B
:101DA000214408437FF4EFAC9DED0C0B53EC102B5A
:101DB0009DED020B51EC100B00F07EFF53EC1A2B43
:101DC00000F06CFE7FF6DFAC24F000408849894AC1
:101DD000002601EB205182422BDA481C4FF480117F
:101DE00021FA00F02044844AC0F30A517A44A1F257
:101DF000FF3192ED000B814A8DED080BCA4020EABD
:101E00000202C0F3130040F48010C1F1140120FA63
:101E100001F60992002CB8BF76429DED080B53ECF9
:101E2000102B9DED0C0B51EC100B00F045FFCDE994
:101E30000C019DED0C0B51EC1A0B53EC102B00F028
:101E400099FA9FED6F0B0890CDE9085153EC102BD8
:101E50009DED080B51EC100B00F022FD41EC1B0B2B
:101E60009FED690B53EC102B9DED080B51EC100B03
:101E700000F016FD9DED0C0B41EC1C0B53EC102BF0
:101E80009DED080B51EC100B00F016FF53EC1A2BD4
:101E900000F03AFE9FED5E1B53EC112B00F000FDAD
:101EA00053EC1C2B00F066FA41EC1A0B51EC1B0BA7
:101EB00053EC1A2B00F05EFACDE902019DED020B06
:101EC00053EC1B2B51EC100B00F0F6FE53EC1A2BCD
:101ED00000F01AFE9DED020B41EC1A0B53EC102B97
:101EE00051EC100B00F0DCFCCDE908014A489DEDF7
:101EF000080B0521784400F0AFF89DED081B51EC6C
:101F0000100B53EC112B00F0CBFC9DED021B53EC9E
:101F1000112B00F0F9FDCDE906019DED020B53EC0C
:101F20001A2B51EC100B00F0BBFC53EC1A2B00F0F9
:101F300021FA9FED3B0B41EC1A0B53EC102B9DED5E
:101F4000060B51EC100B00F0B7FE9DED060B41ECBB
:101F50001B0B53EC102B9DED020B51EC100B00F002
:101F60009FFC53EC1B2B00F0C1FA53EC1A2B00F032
:101F7000A3FE9DED021B53EC112B00F09DFE53ECD4
:101F8000192B00F0C1FDCDE9020101EB065001154E
:101F90000029C8BF039015DC9DED020B324651ECC1
:101FA000100B00F0AAFFFFF7FFF9042808BF00F0AC
:101FB00013F932469DED020B51EC100B00F09DFF22
:101FC000CDE902019DED020B51EC180B53EC102BE7
:101FD00000F066FCFFF73ABB0000904000000000F4
:101FE000FE822B654715973C00CC904000346F3F34
:101FF00001FCFFFF0000E03F20120000FFFF0F0088
:1020000000000000432EE63F396CA80C615C20BE46
:10201000EF39FAFE422EE63FF0100000000000000B
:102020000000000000000040BDEC088BBDEC06CBBA
:10203000FFF720BABDEC088BBDEC06CBFFF758BA12
:10204000BDEC088BBDEC06CBFFF765BABDEC088B89
:10205000BDEC06CBFFF76DBB70B504462DED028BD2
:102060004D1E00EBC500B0EE408AF0EE608A90EDA8
:10207000000B35F0060017D053EC182B51EC100B69
:1020800000F00EFC41EC100B6D1E04EBC50090ED52
:10209000001B51EC100B53EC112B00F06BF941ECD1
:1020A000100B35F00600E7D1022D36D0042D1CD0E0
:1020B000062D1CBFBDEC028B70BD53EC182B51ECF0
:1020C000100B00F0EDFB94ED0A1B53EC112B00F00C
:1020D00051F953EC182B00F0E3FB94ED081B53EC83
:1020E000112B00F047F941EC100B53EC182B51EC7D
:1020F000100B00F0D5FB94ED061B53EC112B00F0F8
:1021000039F953EC182B00F0CBFB94ED040B53EC96
:10211000102B00F02FF941EC100B53EC182B51EC65
:10212000100B00F0BDFB94ED021B53EC112B00F0E3
:1021300021F953EC182B00F0B3FB94ED001B53EC8A
:10214000112B00F017F9BDEC028B41EC100B70BDA8
:102150009FED070B10B553EC102B9FED070B51ECC7
:10216000100B00F0C3F941EC100B10BD0000000093
:102170000000000000000000000000000000F03F30
:1021800010B553EC112B51EC100B00F0F3F841ECAF
:10219000100B10BD000000009FED050B10B553ECB7
:1021A000102B51EC100B00F0A1F941EC100B10BDFD
:1021B00000000000000000009FED050B10B553EC7F
:1021C000102B51EC100B00F06BFB41EC100B10BD11
:1021D00000000000000000709FED050B10B553ECEF
:1021E000102B51EC100B00F05BFB41EC100B10BD01
:1021F000000000000000001082B0CDE9000121F0D5
:10220000004001909DED000B02B051EC100B7047A7
:102210000146024850F82100704700007800002075
:1022200010B572B6FEF774FEFEF74EFBFEF7AEFB7E
:102230000748FEF769FBFEF79DFF62B6002403E046
:10224000FEF7F2FB00B900E0FAE700BF002010BD86
:1022500000127A0000B52DED048B83B041EC190B10
:1022600000F05EFC41EC180B18EE100A18EE901A04
:102270008DED008B002818BF0120084320F000409E
:10228000C0F17F6000F1E040C00F14D019EE101AC9
:1022900019EE900A8DED009B002918BF012108431B
:1022A00020F00040C0F17F6000F1E040C00F04BFAB
:1022B0000120FEF796F951EC180B03B0BDEC048B2E
:1022C00000BD00000FB54FF08041496B9DF80C2018
:1022D00001AB43F822109DF80C10012918D11249C6
:1022E0000968B1F57A7F13DADDE90121891A5022F4
:1022F000B1FBF2F20D490C4B1B6841F823200A494F
:102300000968491C084A116000214FF0804251625F
:102310009DF80C1081F001018DF80C1001A90EC977
:1023200080E80E000FBD00000000002078000020B3
:1023300010B500290AD00878002807D0054878444D
:10234000FEF7F6F9002801D0002010BD02487844BD
:1023500010BD0000B60D0000AE0D000081F0004180
:10236000704780F00040704721F00041704720F036
:102370000040704710B591EA030F48BF83F0004357
:1023800000F1A284841A71EB030C05D2121943EBFD
:102390000C03001B61EB0C01DFF824E14FEA115440
:1023A000A4EB135C1EEA430F18BF9EEA445F73D090
:1023B00023EA0E03DCF1200E21EA045143F48013DA
:1023C00032D322FA0CFE10EB0E0023FA0CFE41EB86
:1023D0000E01CCF1200E03FA0EFE10EB0E0051F1AF
:1023E0000001B1F5801FCCF1200E32D201EB045177
:1023F00012FA0EF2BDE8104058BF7047401C38BFBB
:102400005FEA420218BF7047002814BF20F00100A5
:1024100041F100014FEA410313F5001F38BF704737
:10242000A1F1C04100F034BB012A43EB0302ACF13F
:10243000200CDCF11F0E32BF4FF0000E23FA0CF31C
:1024400010EB030041EB0451B4EB115FD0D0A1EBD2
:10245000045101F5801149085FEA300001EB045195
:102460000ED350F1000038BF12FA0EFE08D1BDE8BD
:102470001040C9E7401C38BF5FEA4202CAD1C3E737
:10248000BDE810404FEA410313F5001F38BF704705
:10249000A1F1C04100F0FCBA9EEA445F08D011EA05
:1024A0005E0FBDE8104004BF01F0004100207047FE
:1024B000BDE8104070B500F09DFA00BF64FBBE3E61
:1024C0000000E0FF02494FF0000000F0E4BC00BF54
:1024D0000000F87F491058BFC1F140415B1058BF60
:1024E000C3F140438B42EFF3008070472DE9C041B8
:1024F00030B4DFF8A0C23CEA111418BF3CEA131450
:1025000000F0EC8081EA03051CEA111444EAD5745A
:1025100018BF1CEA131500F0C780A4EB05044FF0A8
:10252000004545EAC12145EAC32341EA505143EA47
:10253000525304F17F74994204F500344FEAC020ED
:102540004FEAC22208BF904200F09C804FEA136518
:102550000FF24016765D4FEA134506FB05F7C7F10B
:10256000807706FB07F74FEAD737A7FB0368764269
:10257000C8F58038A7FB06CE38BFA8F1010807FBD5
:1025800008E64FF0000EA6FB028CE6FB03CEDCF162
:10259000000CCEF1004E38BFAEF1010EA6FB0C5878
:1025A0004FF000074FF00005E6FB0E87A1FB08C6C1
:1025B000A0FB07CE16EB0E0645F10005E1FB076513
:1025C00015F1E04E7EBFA4F580345FEA46066D410A
:1025D00016F1800745F100054FEA17274FEA066616
:1025E00047EA0567A6F1DE46B6F1805F4FEA15259A
:1025F0001FD9384624F0010C05EBC471BCF1FE6F05
:1026000001EB0C1102D8F0BCBDE8008124425CBF94
:1026100001F5801E9EEAC47F02D4F0BCBDE80081B3
:10262000244238D4F0BCA1F1C041BDE8004100F023
:102630002FBA4FEAD22242EA43524FEAD323A7FBF2
:1026400002864FEAD02040EA415007FB03661EEAAB
:102650000E0F4FEAD12105FB026658BFA6EB0056CC
:10266000B6EB00564FEA520E4EEAC37E18EB0E0E42
:1026700056EB530EBDD518EB02085E417F1C55F199
:102680000005B6E74FF480154FF000074FF0000645
:102690004FF00008ADE7F0BC4FF0000001F1C04181
:1026A00001F00041BDE8008111EA0C1F0CEA13158E
:1026B00000D00CE013EA0C1F00F025804FF0000062
:1026C000F0BC81EA030101F00041BDE80081F0BCEB
:1026D000BDE8004181EA030100F0DAB9F0BCBDE8D1
:1026E000004170B500F086F9097EFC3E00F007B8A5
:1026F00081EA03014FF0000001F00041704781EAD8
:10270000030100F0C5B9F0BCBDE800414FF0000086
:1027100021497047FFFDFBF9F7F5F4F2F0EEEDEB20
:10272000E9E8E6E4E3E1E0DEDDDBDAD8D7D5D4D3CF
:10273000D1D0CFCDCCCBCAC8C7C6C5C4C2C1C0BF1B
:10274000BEBDBCBBBAB9B8B7B6B5B4B3B2B1B0AF21
:10275000AEADACABAAA9A8A8A7A6A5A4A3A3A2A105
:10276000A09F9F9E9D9C9C9B9A99999897979695C0
:1027700095949393929191908F8F8E8E8D8C8C8B5C
:102780008B8A8989888887878685858484838382E4
:10279000828181800000FF070000F87F4FEA41033B
:1027A0004FEA5353A3F58063D3F11E03C8BFD3F19F
:1027B000210C0CDD4FF0004242EAC12242EA5052A5
:1027C00032FA03FC8CEAE17CACEBE1707047102B31
:1027D000C4BF0020704703F5787CBCF1FF3F04D0F4
:1027E0006FF0004282EA2100704770B500F002F9F4
:1027F0004992248000207047F2E710F0004248BF61
:102800004042B0FA80F310FA03F10AD0C3F11D037D
:1028100003F580634FEA415002EB035202EBD121F2
:1028200070474FF00000704751EA030C17D41CF5B5
:10283000801F58BFBCF5801F00F10680994218BF69
:10284000704708BF9042704707D711F5801F58BFE7
:1028500013F5801F19D499427047894270471CF5BF
:10286000801F08D5BCF5801FF7D58B4218BF704775
:1028700008BF824270474FF4001C1CEB410F38BF69
:102880001CEB430F01D28B42704770B500F0B2F8D9
:10289000922449004FF000514FF08053FFF71ABEC9
:1028A000DFF848C170B51CEA111E1EBF1CEA1315E3
:1028B0009EEA0C0F95EA0C0F00F06F8081EA03048A
:1028C00023EA4C134EEAD47E21EA4C1141F48011E4
:1028D00043F48013AE44A1FB024CA0FB0365AEF1B0
:1028E0007F7E361955EB0C05A1FB034C4CF1000320
:1028F000A0FB021C16EB0C06654153F100030942D4
:1029000018BF46F0010613F4007F0BD14FEA0331E4
:102910004FEA0530340341EA155140EA16506FF092
:1029200003020AE04FEAC3214FEAC520F40241EA5C
:10293000555140EA56506FF0020202EB2E4201EB75
:10294000025585EACE710AD05FEA440C18BF24F024
:10295000004450F1000041F1000120EAD47040F23F
:10296000FE7C624500D270BDA84214BF4FF0804487
:102970004FF04044002E08BF0024BEF1806FA8BF76
:10298000A1F1C041BDE8704080F282804FF00000AC
:1029900001F1C04101F0004170479EEA0C0F0CEAC2
:1029A000131518BF95EA0C0F06D04FF0000081EA0E
:1029B000030E0EF0004170BD00F01CF88900013ECE
:1029C00000F007B800F009B84FEA430C5FEA5C5C1E
:1029D00008D081EA030100F05BB84FEA410C5FEADE
:1029E0005C5CF6D14FF00000014970470000FF0722
:1029F0000000F87F0EF1020E2EF0030E5EF8046B5D
:102A0000364205D4012A43EB030515F5001F12D801
:102A1000012841EB010C1CF5001F0CD80ED14FEA28
:102A2000D17C15F5001F0CEB4C0C0CF1020C08BF0F
:102A30004CEBD37C04E04FF0080C01E04FEAD37C70
:102A40000CEB4C0526FA05F606F00706B6F1040C69
:102A500006D20EEB860CBDE870404CF0010C6047CE
:102A6000DFE80CF0090B02024FF000414FF00000CC
:102A7000A1F5002170BD19461046012851EB010453
:102A800018BFD4F5001484BF002001F0004170BDD0
:102A90000808A0F500114FEA3101704753EA010C14
:102AA00017D41CF5801F58BFBCF5801F00F10680AD
:102AB0008B4218BF704708BF8242704707D713F593
:102AC000801F58BF11F5801F19D48B4270479B425D
:102AD00070471CF5801F08D5BCF5801FF7D59942BB
:102AE00018BF704708BF904270474FF4001C1CEBA2
:102AF000430F38BF1CEB410F01D2994270470FB40E
:102B00000CBC03BCFFF7C1BE91EA030F10B581F006
:102B100000413FF537AC83F0004300F0D5B800002A
:102B20002DE9F04101F5801CBCF5001FC0F2A98021
:102B30004FEA115C21EA0C510CF1FD0C41F48011BB
:102B40005FEA5C0C0CF5C07C01D34000494130A425
:102B5000890241EA905187028E0E0A0CA45D04FBA3
:102B600004F602FB06F6C6F14046A4FB0662F60D2B
:102B700046EA422606FB06F4A4FB01235242C3F1B7
:102B8000404338BF5B1EA6FB02420024E6FB032441
:102B9000D20B42EA4446A6FB0623A1FB02E2A3FBBA
:102BA00007E4E3FB61426442C2F1404E38BFAEF13C
:102BB000010EA6FB04234FF00002E6FB0E32A2FB3F
:102BC00003463400E2FB6264A1FB06E6A4FB07E8CF
:102BD000E4FB61687642C8F1405838BFA8F10108AB
:102BE000A2FB06E4A3FB08E5E2FB6854A1FB05E6B3
:102BF000A7FB04E8E1FB648618F1200556F1000606
:102C0000A809A8F11B08B10908F03F08B8F10A0F9C
:102C100040EA86601CD901EB0C51BDE8F08100BF91
:102C2000FCF5EEE8E2DDD8D3CFCBC7C3C0BDB9B663
:102C3000B4B1AEACA9A7A5A3A19F9D9B9A98969568
:102C40009392908F8D8C8B898887868584838281EF
:102C5000A0FB006800FB01F208EB4208B8EB8728F4
:102C600007D5341858EB0104D5D5401C51F10001AB
:102C7000D1E7341A78EB0104CDD4401E71F1000184
:102C8000C9E75FEA4C0C5FEA9C5C0DD105D34FF0BD
:102C9000000001F00041BDE8F081BDE8F04170B5F1
:102CA000FFF7A8FE6DDBFFBEBDE8F0414FF000006E
:102CB000004970470000F87F10B591EA030F48BF44
:102CC00083F000433FF55EAB841A71EB030C07D22F
:102CD00012198CF0004C43EB0C03001B61EB0C0150
:102CE000DFF8A4E14FEA1154A4EB135C1EEA430F92
:102CF00018BF9EEA445F00F0B08023EA6E035242A0
:102D000021EA0451C3EB6E0338BF5B1EDCF1200ED9
:102D100025D322FA0CFE10EB0E0043FA0CFE41EB19
:102D20000E01CCF1200E03FA0EFE10EB0E0051F155
:102D30000001CCF1200E29D412FA0EF201EB04515D
:102D4000BDE8104058BF7047401C1CBFB2F1004F97
:102D5000704700280CBF491C20F00100704712EB9F
:102D6000020E43EB030218BF4FF0010E4EEA42027F
:102D7000ACF1200CDCF11E0E54D943FA0CFE10EB22
:102D80000E0051F1FF31CCF11E0ED5D50EF1010E22
:102D900012FA0EFE404141EB010101EB445C5FEA97
:102DA0005C5C10D910EBDE7001EB045138BFBEF152
:102DB000004FBDE8104018BF704700280CBF491CE9
:102DC00020F00100704730D24FEAD42C11F50011E9
:102DD00024F400641BD0B1FA81F20B3AA41AA41EA9
:102DE000D2F12003914030FA03F31943904001EBF4
:102DF000CC71002C01EB0451BDE81040A8BF704716
:102E000001F1C0414FF0000001F000417047B0FAFD
:102E100080F310FA03F100D110BDE41A173C480505
:102E2000C90AE4E701EB045110BD491001EB04515C
:102E3000BDE810404FEA300002E04FF0000170475B
:102E40004A0008BF0042F8D0B2F5001F28BF704703
:102E500001F000414FF0000070479EEA445F07D048
:102E600011EA5E0FBDE8104004BF0021002070474A
:102E7000BDE8104070B5FFF7BDFD00BF40DFF63E76
:102E800083F00041104670470000E0FF4FF04070B3
:102E9000E1EE100A70470CF00F03092B08BF082061
:102EA00000F059800A2B0BD0082B18BF704708BFC1
:102EB0001CF0400F0AD04FF000004FF000017047A7
:102EC0001CF0400F18BF4FF0004070471CF0100F6F
:102ED00008D020F0704300F07F4242EAD3014FEA6D
:102EE0004370704700F0604021F07F4242EA0002E8
:102EF00001F07F4040EA727070474FF0FF0C4CF4D5
:102F0000E06C1CEA11531CBF9CEA030C9445C2BF41
:102F1000DA4201EB02517047002B0DD0BCF1000FDB
:102F20000FD0002A01F00041A4BF41F0E04141F080
:102F30007F614FF00000704701F000414FF000004A
:102F4000704750EA01334FF09B0C18BF4CF0806C77
:102F50007FF4B8AA70471CF4801F11D01CF4E02F36
:102F600003D06FEACC31490070474FF04050EFF387
:102F7000008222F0704242EA000282F30088704729
:102F80004FF0000070470000000000000000F03F1C
:102F9000000000000000F83F0000000000000000FA
:102FA0000000004003B8E23F000000000000000005
:102FB00006D0CF43EBFD4C3E033333333333E33F93
:102FC000FFAB6FDBB66DDB3F4D268F515555D53FBF
:102FD00001411DA96074D13F65DBC9934A86CD3F8D
:102FE000EF4E454A287ECA3F3E5555555555C53F7B
:102FF00093BDBE166CC166BF2CDE25AF6A56113F6D
:10300000F16BD2C541BDBBBED0A4BE726937663E6E
:10301000000000000000000054686520737973749C
:10302000656D2067656E65726174657320612068E7
:103030006973746F6772616D206F662074686520B4
:10304000706572696F64206F6620612072656672B8
:10305000656E636520636C6F636B2E200A0D000044
:10306000546F207573652074686520737973746577
:103070006D2C20656E7465722061206C6F776572AF
:1030800020626F756E6420696E746F2074686520AD
:103090007465726D696E616C2062656C6F77206F0C
:1030A000722068697420454E54455220746F206127
:1030B0006363657074207468652064656661756C0F
:1030C000742076616C7565206F66203935307573B4
:1030D0002E0A0D00043200080000002078000000D5
:1030E000C40100087C320008780000205819000054
:1030F000E00100081001000043000000F8FFFFFF9E
:1031000000404040404040404040414141414140FA
:1031100040404040404040404040404040404040AF
:10312000400502020202020202020202020202023E
:103130000220202020202020202020020202020243
:10314000020290909090909010101010101010109B
:1031500010101010101010101010101002020202A7
:1031600002028888888888880808080808080808EB
:1031700008080808080808080808080802020202E7
:1031800040000000000000000000000000000000FF
:10319000000000000000000000000000000000002F
:1031A000000000000000000000000000000000001F
:1031B000000000000000000000000000000000000F
:1031C00000000000000000000000000000000000FF
:1031D00000000000000000000000000000000000EF
:1031E00000000000000000000000000000000000DF
:1031F00000000000000000000000000000000000CF
:1032000000000000000000000000000021215468C0
:103210006520506F737420686173206661696C6506
:10322000642064756520746F206E6F2070756C73F8
:1032300065207365656E20696E203130306D7321B5
:10324000210D0A00576F756C6420596F75204C6909
:103250006B6520546F20526572756E20746865200E
:1032600050726F6772616D3F202859206F72204E37
:0C327000293A0D0A0000000000000000D8
:040000050800018965
:00000001FF
