:020000040800F2
:100000002017002029020008650200086702000886
:10001000690200086B0200086D0200080000000081
:100020000000000000000000000000006F02000857
:100030007102000800000000730200087502000849
:1000400077020008770200087702000877020008AC
:10005000770200087702000877020008770200089C
:10006000770200087702000877020008770200088C
:10007000770200087702000877020008770200087C
:10008000770200087702000877020008770200086C
:10009000770200087702000877020008770200085C
:1000A000770200087702000877020008770200084C
:1000B0001D08000877020008770200087702000890
:1000C000770200087702000877020008770200082C
:1000D000770200087702000877020008770200081C
:1000E000770200087702000877020008770200080C
:1000F00077020008770200087702000877020008FC
:1001000077020008770200087702000877020008EB
:1001100077020008770200087702000877020008DB
:1001200077020008770200087702000877020008CB
:1001300077020008770200087702000877020008BB
:1001400077020008770200087702000877020008AB
:10015000770200087702000877020008770200089B
:10016000770200087702000877020008770200088B
:1001700077020008770200087702000800000000FC
:10018000770200087702000800F002F800F03CF85F
:100190000AA090E8000C82448344AAF10107DA45E2
:1001A00001D100F031F8AFF2090EBAE80F0013F0F8
:1001B000010F18BFFB1A43F001031847480900005C
:1001C00068090000103A24BF78C878C1FAD85207ED
:1001D00024BF30C830C144BF04680C6070470000C1
:1001E0000023002400250026103A28BF78C1FBD840
:1001F000520728BF30C148BF0B6070471FB500F0E1
:100200007BFC1FBD10B510BD00F072F81146FFF762
:10021000F5FF00F021FC00F090F803B4FFF7F2FFC7
:1002200003BC00F097F8000016481749174B994295
:100230003CBF50F8042B41F8042BF8D314494FF07D
:1002400000028B4238BF43F8042BFAD3DFF8440096
:10025000016841F470010160BFF34F8FBFF36F8FEE
:100260000D480047FEE7FEE7FEE7FEE7FEE7FEE794
:10027000FEE7FEE7FEE7FEE708480949094A0A4BA0
:1002800070470000240B000800000020140100202B
:100290002017002088ED00E08901000820110020CF
:1002A00020170020201300202013002010B5431C2D
:1002B00002E010F8011B71B18107FAD14FF0013251
:1002C00002C88C1A8C4314EAC211F9D0C01A0A066B
:1002D00003D0C01E10BDC01A10BD0A0401D0801E7C
:1002E00010BD0902FCD0401E10BD7047704770471A
:1002F000754600F02BF8AE4605006946534620F0DF
:100300000700854618B020B5FFF7B6FFBDE82040CE
:100310004FF000064FF000074FF000084FF0000BC1
:1003200021F00701AC46ACE8C009ACE8C009ACE874
:10033000C009ACE8C0098D46704710B50446AFF35C
:1003400000802046BDE81040FFF767BF00487047B7
:10035000C010002001491820ABBEFEE726000200B5
:10036000704700000E48C06C40F001000C49C864A2
:100370004FF09040006820F003004FF0904108607B
:100380000846006840F0020008600846006A20F055
:100390000F0008620846006A40F0010008627047DA
:1003A0000010024010B504461E48806D40F0010068
:1003B0001C49886500F038F84FF08040006A20F052
:1003C00001004FF0804108620846C462806920F055
:1003D0000F0088610846806940F001008861084686
:1003E000806920F00A0088610846006840F0040037
:1003F00008600846C06840F00300C8600846006A0C
:1004000040F0010008621C20002809DB00F01F02F8
:10041000012191404209920002F1E022C2F800114C
:1004200000BF10BD001002402348C06C40F0120015
:100430002149C8646FF03000204908600846006810
:1004400040F0100008601D480830006820F03000BF
:100450001A49083108600846006840F0300008601A
:10046000081F006820F00400091F086013480C30C2
:10047000006820F0300011490C3108606FF4403002
:100480000F4908600846006840F48030086008465C
:10049000806820F4403088600846806840F440302E
:1004A00088600846406820F4807048600846C0684C
:1004B00020F44030C860704700100240000400483B
:1004C0000010004810B500F0D7F800BF0F480068D2
:1004D0000028FBD00D480068012806D114220CA189
:1004E000194800F099FA012010BD112217A11648F1
:1004F00000F092FA4FF08040006820F001004FF0C9
:100500008041086000F02EF8EEE7000004000020B3
:10051000504F535420746573742050617373656435
:100520002121204D6F76696E67206F6E746F206E8B
:100530006578742050726F6772616D2E2E2E2E2E8C
:100540002E2E0D0A0D0A0A00004400402121504FB2
:10055000535420484153204641494C454421210DE4
:100560000A0D0A0070B51D48FFF7A0FE05462A4691
:100570001A491B4800F050FA1A48FFF797FE054643
:100580002A461849164800F047FA154800F03AFA8A
:1005900004464E2C01D06E2C06D10E2212A110481A
:1005A00000F03AFA002070BD592C01D0792C0CD102
:1005B000142214A10A4800F02FFA00F049F8002094
:1005C00019490860FFF77EFFEDE7162217A10448DE
:1005D00000F022FA4FF0FF30E5E700000D000020A8
:1005E00000440040460000204578697474696E67D5
:1005F0002050726F6772616D2E2E2E2E2E2E0D0AD8
:100600000D0A0000526572756E6E696E672074681F
:100610006520504F535420746573742E2E2E2E2E49
:100620002E0D0A0D0A00000004000020496E7661BC
:100630006C696420526573706F6E736520576173C7
:1006400020456E74657265640D0A0D0A0000000095
:100650000348006820F0040001490860704700006A
:10066000140400480348006840F004000149086091
:1006700070470000140400480020064908604860E4
:1006800008724FF0804148620846006840F001005F
:1006900008607047B41000205E49096821F0070126
:1006A0005C4A11601146096841F0020111605A4923
:1006B000096841F48071584A116000BF56490968C1
:1006C00001F480610029F9D010205349496821F0D4
:1006D000F851514A51601146496841EA0061516040
:1006E0001146096821F08071116000BF4A4909680C
:1006F00001F00071B1F1007FF8D04749C96821F0DD
:100700000301454AD1601146C96841F00201D16038
:100710001146C96821F4FE4141F4A051D16011464F
:10072000C96821F0700141F01001D1601146C9681B
:1007300021F0C061D1601146C96841F08071D1607B
:100740001146096841F08071116000BF32490968A3
:1007500001F000710029F9D02F49896821F00301C7
:100760002D4A91601146896841F00301916000BFF4
:100770002949896801F00C010C29F9D126498968B9
:1007800021F0F001244A91601146896821F4E0616A
:1007900091601146896821F46051916011460968A1
:1007A00021F08061116000BF1B49096801F0806180
:1007B000B1F1806FF8D01849096921F4FE41164A59
:1007C00011611146096941F4C0511161114609696D
:1007D00041F4003111611146096941F48031116120
:1007E0001146096841F08061116000BF0A4909683B
:1007F00001F080610029F9D007498831096821F4A6
:100800004001054AC2F888101146096E41F40011F2
:100810001166704700200240001002400EB54FF0F4
:100820008040006900F0020002280CD114480EC874
:10083000684600F02BF912489DE80E000EC001201A
:10084000104908600FE04FF08040006900F001009F
:1008500048B1FFF707FF4FF08040006820F001002B
:100860004FF0804108604FF08040006920F00300A5
:100870004FF0804108614FF0FF30024908600EBD23
:10088000B4100020040000201A48C06C40F008009A
:100890001849C8641848006820F470501649086068
:1008A0000846006840F42050086013482030006873
:1008B00040F0EE601049203108600F4808300068B1
:1008C00040F470500C4908310860081D006820F49D
:1008D0007050091D08600846006840F4A050086088
:1008E0000548001D006820F060000349091D0860EC
:1008F0007047000000100240000C004800B50D4891
:10090000806D40F400300B4988650A4888300068E3
:1009100020F00C00C1F888000846D0F8880040F0AC
:100920000400C1F88800FFF7AFFF034800F010F89B
:1009300000BD000000100240004400406422424319
:100940000723B2FBF3F100BF4A1E111EFCD1704712
:10095000016821F001010160016821F010210160AE
:10096000016821F400410160416821F44051416077
:1009700042F28D01C160016841F00C0101601E4925
:1009800088421BD1016841F020010160016821F01B
:1009900040010160016821F010010160016821F04F
:1009A00080010160016821F480710160016821F01B
:1009B00040010160016821F0010101600F49884296
:1009C00009D1016A41F0400101620D49096841F015
:1009D000C0010B4A1160016841F00101016000BFD4
:1009E000C16901F400110029FAD000BFC16901F406
:1009F00080010029FAD07047004C004000440040BC
:100A000008380140014600BFC86900F020000028F6
:100A1000FAD0888CC0B27047F0B504460E4617462F
:100A200000250CE000BFE06900F080000028FAD04B
:100A3000705D20854FF49670FFF780FF6D1CBD42FE
:100A4000F0D300BFE06900F040000028FAD0E06970
:100A500020F04000E061F0BD10B572B6FFF71CFE5B
:100A6000FFF780FCFFF7E0FC0748FFF79BFCFFF770
:100A700045FF62B603E0FFF725FD00B900E0FAE7A5
:100A800000BF002010BD000000127A000FB54FF02B
:100A90008041496B9DF80C2001AB43F822109DF872
:100AA0000C10012918D112490968B1F57A7F13DABF
:100AB000DDE90121891A5022B1FBF2F20D490C4BFC
:100AC0001B6841F823200A490968491C084A11603B
:100AD00000214FF0804251629DF80C1081F001011D
:100AE0008DF80C1001A90EC980E80E000FBD0000A2
:100AF00000000020140100204FF04070E1EE100AC9
:100B000070470000240B00080000002014010000C2
:100B1000C4010008380C0008140100200C16000065
:100B2000E0010008000000000000000000000000DC
:100B30000020212154686520506F73742068617310
:100B4000206661696C65642064756520746F206E31
:100B50006F2070756C7365207365656E20696E20FB
:100B60003130306D7321210D0A0020576F756C6490
:100B700020596F75204C696B6520546F2052657247
:100B8000756E207468652050726F6772616D3F20CA
:100B90002859206F72204E293A0D0A002121205930
:100BA0006F75206172652063757272656E746C7901
:100BB000207573696E672074686520646566617569
:100BC0006C7420626F756E6473206F66202A2A2011
:100BD000393530206D6963726F7365636F6E64734E
:100BE00020262031303530206D6963726F73656364
:100BF0006F6E6473202A2A2021210D0A00576F7519
:100C00006C6420796F75206C696B6520746F20634C
:100C100068616E67652074686520626F756E6473C5
:100C20003F202859206F72204E29200D0A00000015
:080C3000B60300001A040000E5
:040000050800018965
:00000001FF
