:020000040800F2
:10000000B02900207D020008FB320008B12A000858
:10001000F932000839040008854200080000000099
:100020000000000000000000000000009D0100082A
:100030003B04000800000000F90100081D3800081A
:10004000970200089702000897020008970200082C
:1000500097020008970200083D0400089702000874
:10006000970200089702000897020008970200080C
:1000700097020008970200089702000897020008FC
:1000800097020008970200089702000897020008EC
:1000900097020008970200089702000897020008DC
:1000A00097020008970200089702000897020008CC
:1000B00097020008393900089702000897020008E3
:1000C00097020008970200089702000897020008AC
:1000D00025370008970200087942000897020008B7
:1000E000970200089702000897020008970200088C
:1000F000970200089702000897020008970200087C
:10010000970200089702000897020008970200086B
:10011000970200089702000897020008970200085B
:10012000970200089702000897020008970200084B
:10013000970200089702000897020008970200083B
:10014000970200089702000897020008970200082B
:10015000970200089702000897020008970200081B
:10016000970200089702000897020008970200080B
:10017000970200089702000897020008000000009C
:100180009702000897020008DFF80CD000F016F97B
:100190000048004725460008B02900202C4B19686C
:1001A000086800F05AB880F30988BFF36F8F4FF0EA
:1001B000000080F3118870470000000008480068C4
:1001C000006880F308884FF0000080F3148862B65E
:1001D00061B6BFF34F8FBFF36F8F00DF00BF00BF6B
:1001E00008ED00E0DFF80C00016841F470010160E7
:1001F000704700BF88ED00E0EFF30980BFF36F8F19
:10020000134B1A681EF0100F08BF20ED108A20E96A
:10021000F04F106009B44FF0500080F31188BFF325
:100220004F8FBFF36F8F04F09DFE4FF0000080F3FF
:10023000118809BC1968086800F014B81EF0100F86
:1002400008BF00F014B880F30988BFF36F8F7047C0
:1002500024000020EFF30580704730C8B0E8C04F9D
:10026000FFF7A1BF30C8B0E8C04FFFF7E7BFB0EC61
:10027000088AB0EC08CAFFF7E6BF000006488047CE
:1002800006480047FEE7FEE7FEE7FEE7FEE7FEE77B
:10029000FEE7FEE7FEE7FEE7F53800088901000803
:1002A0002DE9F05F0546002092469B4688460646AB
:1002B000814640241BE0284641464746224600F03E
:1002C0006CF853465A46C01A914110D3114618464D
:1002D000224600F053F82D1A67EB01084F462246DC
:1002E0000120002100F04AF817EB00094E41201EC2
:1002F000A4F10104DFDC484631462A46434600F0BB
:1003000000B830BCBDE8C09F40EA01039B0703D0A2
:1003100009E008C9121F08C0042AFAD203E011F844
:10032000013B00F8013B521EF9D27047D2B201E006
:1003300000F8012B491EFBD270470022F6E710B5EA
:1003400013460A4604461946FFF7F0FF204610BD43
:1003500030B50B46014600202022012409E021FA95
:1003600002F59D4205D303FA02F5491B04FA02F592
:100370002844151EA2F10102F1DC30BD202A04DB65
:10038000203A00FA02F1002070479140C2F12003A8
:1003900020FA03F3194390407047202A04DB203AE7
:1003A00021FA02F00021704721FA02F3D040C2F195
:1003B000200291400843194670470000064C074D43
:1003C00006E0E06840F0010394E807009847103425
:1003D000AC42F6D3FFF7DCFE5C5300087C53000808
:1003E00003490968096B002900D0084770470000DD
:1003F0008400002070B50E4C01250026A0688047BF
:10040000D42803D0A0688047D5280ED1094D41F2E9
:100410003F002C60216888472868816A30468847F9
:100420002868C16A102088470025284670BD000052
:100430008800002084000020FEE77047012000F0C3
:1004400005B970472DE9F041354C86B0E06C40F0BD
:100450001000E064E06C012500F0100000950590AC
:1004600001AA00260327DFF8BC8082E8E000694685
:10047000404600F0F7F801221146404600F0DBF953
:10048000E06C40F00400E064E06C009500F00400D3
:10049000059001AADFF8908082E8E00069464046B6
:1004A00000F0E0F801221146404600F0C4F9E06C8B
:1004B00040F00800E064E06C694600F00800059038
:1004C00080208DE8E100194D284600F0CBF801228C
:1004D0008021284600F0AFF9E06C40F00800E064AD
:1004E000E06C694600F0080005900420CDE90006A4
:1004F0002846CDE9026700F0B5F8E06C40F0020054
:10050000E064E06C694600F002000590A0150090E0
:10051000074800F0A7F803F015F906B0BDE8F08130
:10052000001002400010004800080048000C00487D
:10053000000400482DE9F04114460546012A02D97D
:1005400041F0C00601E041F08006104F00228021FA
:10055000384600F070F90E480068016821F4444103
:100560000160304603F038F906E0002003F034F96A
:10057000641E05F8010BA4B2002CF6D13846BDE884
:10058000F0410122802100F056B90000000C004823
:10059000482500202DE9F041144605460E46012A63
:1005A00001D941F040060F4F00228021384600F06B
:1005B00042F90D480068016821F444410160304669
:1005C00003F00AF905E0287803F006F9641EA4B2E6
:1005D0006D1C002CF7D13846BDE8F0410122802186
:1005E00000F029B9000C00484825002010B590F80B
:1005F00025100024022903D00421C16301241AE03C
:1006000001680A6822F00E020A6001680A6822F096
:1006100001020A6090F84410036C01F01C020121F1
:1006200001FA02F25A6080F82510002180F82410A7
:10063000816B01B18847204610BD00004FF48071E6
:10064000014800F0F4B8000000100048044910B55B
:100650000A68024202D00860FFF7F0FF10BD0000F8
:10066000140401402DE9F84FDFF898B100234FF052
:10067000010C4FF0030A4FF00F090BF1040EB9E023
:100680000CFA03F4224070D04D68022D01D0122DD7
:100690000ED1DD0800EB8508D8F820505E07F70E74
:1006A00009FA07F6B5430E69BE402E43C8F820602C
:1006B00007685E0091F804800AFA06F508F003085E
:1006C000AF4308FA06F848EA0708C0F800804F6808
:1006D000012F05D0022F03D0112F01D0122F13D1DB
:1006E000D0F80880CF6828EA0508B74047EA08072D
:1006F0008760D0F804800F7928EA0408C7F3001750
:100700009F4047EA08074760D1F804806FEA08076E
:10071000BF0706D1C76AA743C8F3C0049C403C4347
:10072000C462C468AC438D68B5402543C5604C685D
:10073000E4005ED5344C256E45F001052566246E37
:1007400023F0030504F001040094304C2E19B46822
:100750009D072F0F09FA07F5AC43B0F1904F05D074
:100760002B4DA84204D101251CE042E0002519E0F0
:10077000284DA84201D1022514E0274DA84201D1FD
:1007800003250FE0254DA84201D104250AE0244DA0
:10079000A84201D1052505E0224DA84201D1062538
:1007A00000E00725BD402543B560DBF800405D460D
:1007B0004E689443F60300D514432C60DEF80040E5
:1007C00075464E689443B60300D514432C600D4D16
:1007D00008352C684E689443F60200D514432C600B
:1007E000084D0C352C684E689443B60200D514436E
:1007F0002C605B1C0A6832FA03F57FF441AF00F00D
:1008000013B8000000040140001002400000014045
:100810000004004800080048000C00480010004890
:10082000001400480018004818BCBDE8E08F426979
:100830004A40426170470AB18161704781627047E6
:1008400001480068704700001C00002090F841201B
:10085000202A24D190F84020012A20D0012280F8BB
:100860004020242280F841200268136823F001030D
:1008700013600268136823F48053136002681368DE
:100880000B43136001680A6842F001020A602021EC
:1008900080F84110002180F840100846704702207F
:1008A000704790F84120202A22D190F84020012A58
:1008B0001ED0012280F84020242280F841200268C6
:1008C000136823F0010313600268136823F4706354
:1008D00043EA0121116001680A6842F001020A60DE
:1008E000202180F84110002180F840100846704710
:1008F0000220704770B5040004D094F84100002530
:1009000010B106E0012070BD84F84050204600F090
:100910004DF8242084F841002068016821F001018D
:1009200001606068216820F070600861206881685B
:1009300021F400418160E0680128A06807D040F4FC
:10094000044021688860E068022803D006E040F493
:100950000040F6E721684FF4006048602068416875
:10096000114A114341602068C16821F40041C1600F
:10097000D4E904010843A16940EA01202168C86064
:10098000D4E907010843216808602068016841F044
:10099000010101606564202084F84100256384F82A
:1009A0004250002070BD00000080000210B586B0EB
:1009B000044614216846FFF7C0FC124920688842AB
:1009C0001ED1114CE06C40F00200E064E06C69461E
:1009D00000F002000590C02000901220019001203C
:1009E000029003200390042004900848FFF73AFE89
:1009F000A06D40F40010A065A06D00F400100590FB
:100A000006B010BD00540040001002400004004831
:100A100002480168491C0160704700001C0000206A
:100A2000094810B50168002441F480710160032079
:100A300000F08CF8002000F009F808B1012401E072
:100A400000F03EF8204610BD0020024000B50146EF
:100A500087B000221D2000F059F81D2000F04AF850
:100A60001348816D41F002018165806D05A900F098
:100A700002000690684600F0A1FD00F0BFFD0D49A0
:100A80000D4AB0FBF1F10D48491E0260416040F291
:100A9000E7320021C0E90321816001F04BFB10B176
:100AA000012007B000BD054801F08EFBF9E700000A
:100AB0000010024040420F0000040040800300206C
:100AC0000B4882B0016E41F001010166016E01F038
:100AD00001010091816D41F080518165806D00229E
:100AE00000F0805000900F21901E02B000F00EB870
:100AF0000010024000F01F020121914040098000D7
:100B000000F1E020C0F8001170470000F0B40E4B77
:100B10001B680C46C3F30223C3F10705042D00D95B
:100B20000425191D072901D2002300E0DB1E012640
:100B300006FA05F1491E214099409E40761E164056
:100B40003143F0BC02F0DABB0CED00E0064900F0E6
:100B5000070208684FF6FF03184040EA0220034AE4
:100B600010430860704700000CED00E00000FA053B
:100B70001649B0F5007F0868C0F3412009D002286B
:100B800005D0086820F4C06040F480600860002050
:100B900070470128FBD0086820F4C06040F4007062
:100BA00008600B483222006850430A4AB0FBF2F05A
:100BB000401C00E0401E4A69520501D50028F9D1C9
:100BC00048694005E3D503207047000000700040ED
:100BD0002000002040420F000248006800F4C0607E
:100BE00070470000007000400248016841F48071C5
:100BF0000160704700700040F8B50446FFF720FE22
:100C000006465CB194F83800012809D0012784F821
:100C1000387094F83900002520B10BE00120F8BDB0
:100C20000220F8BD84F83850204600F03DF841F22B
:100C30008830206420680168A2686FF0FF0321F407
:100C4000706103EB022211430160206C0090334677
:100C500000222021204602F061FBE8B921680A68E1
:100C60000F4B1A40237942EA0362E3681A430A6091
:100C7000D4E905121143226853680A4E3340268A8C
:100C800043EA06431943516021680A6842F00102B1
:100C90000A60E56384F8397084F83850F8BD0000C4
:100CA000EFFFFF00FEF8E0FF10B586B00446142108
:100CB0006846FFF742FB1349206888421FD112485B
:100CC000016D41F480710165016D01F48071059140
:100CD000C16C41F01001C164C06C694600F01000A5
:100CE00005904FF47C40009002200190002002907B
:100CF000032003900A2004900448FFF7B3FC06B0D9
:100D000010BD0000001000A00010024000100048BC
:100D10000248016841F00401016070470010024080
:100D20002DE9F05F06460020E14A4FF4807C4FF445
:100D300000444FF4FA454FF40079B6F5003F0DD06A
:100D4000D168F02701F00301DFF86883DA4B01294D
:100D500021D0022931D0032939D133E0D2F89010C3
:100D600001F4407161450AD049450ED0B1F5407F8C
:100D700003D11168890300D5D04800F0A3B9D2F897
:100D800090108907F9D52046F7E7D2F89410890723
:100D9000F3D52846F1E71168890718D511680907C6
:100DA00003D5116801F0F00103E0D2F8941007EACE
:100DB0001111090958F821100AE01168490506D5F2
:100DC000194605E01168890301D5BD4900E00021FD
:100DD000CB464FF4804E4FF400694FF4805A5E4585
:100DE0007DD02ADC102E7BD013DC012E79D0022E90
:100DF00078D0042E77D0082EBFD1D2F8881011F009
:100E0000C00171D0402970D0802915D0C029B4D13B
:100E1000B5E7202E6AD0402E69D0802E68D0664576
:100E2000ABD1D2F8881011F440315DD0B1F5803FDC
:100E30005BD0B1F5003FA0D130E1764579D00ADC36
:100E4000B6F5806F76D04E4528D0564528D0B6F5F9
:100E5000005F92D10AE0A6426DD0B6F5803F6BD01C
:100E6000B6F5802F02D0B6F5002F86D1D2F88830A3
:100E700003F04063B3F1806F3BD0B3F1006F1CD03F
:100E8000B3F1406F86D1116889077FF57DAF106897
:100E900000070AD5106800F0F0000AE0484600E0BC
:100EA000504600F012B902F05DBAD2F8940007EA99
:100EB0001010000958F820005FE713689B01FBD56C
:100EC000D368DB02F8D5D068C0F30210401CB1FB38
:100ED000F0F0D168C1F306214843D1681AE0B6E0CA
:100EE00043E01AE029E034E0A2E066E04AE094E062
:100EF0009FE013681B01DFD51369DB02DCD5D068E6
:100F0000C0F30210401CB1FBF0F01169C1F30621DF
:100F100048431169C1F341516FE0D2F8881011F0D4
:100F2000030176D0012948D002296CD00329C3D10E
:100F300025E735E09BE0A9E066E0D2F8881011F0E3
:100F40000C0175D004297ED008295CD00C29B3D1BE
:100F500015E7D2F8881011F0300169D0102972D04D
:100F6000202950D03029A7D109E7D2F8881011F4F0
:100F700040715DD0614566D0594544D0B1F5407FA0
:100F80009AD1FCE6D2F8881011F4406150D0B1F546
:100F9000806F58D0494536D0B1F5406F8CD1EEE620
:100FA000D2F8883003F04053B3F1805F06D0B3F13C
:100FB000005F12D0B3F1405FB9D144E01369DB01A7
:100FC00099D5D068C0F30210401CB1FBF0F0116954
:100FD000C1F30621484311690DE05369DB018AD54D
:100FE000D068C0F30210401CB1FBF0F05169C1F3AE
:100FF000062148435169C1F34161491C4900B0FBD6
:10100000F1F0BAE605E049E0D2F8880010F0004FB0
:1010100019D100F05FB800F003BBD2F8881011F4CA
:10102000405140D051450ED0B1F5005FE9D135E0D7
:1010300039E0D2F8881011F4404134D0714502D023
:10104000A142DED12AE000F04AB800F0FBBAD2F8A3
:10105000881011F4402126D0B1F5802F3FF495AED1
:10106000B1F5002F1AD0B1F5402FCAD187E6D2F8DA
:10107000881011F4401116D0B1F5801FEED0B1F5F3
:10108000001F0BD0B1F5401FBBD178E6D2F8881015
:1010900011F0804107D0B1F1804FB2D111684905FC
:1010A000AFD5184669E600F01FB800F0A7BA0000F7
:1010B00000100240C05200080024F40090D0030049
:1010C00000127A0030BCBDE8C09F30BCBDE8C05FF4
:1010D000FFF7E9BE30BCBDE8C05FFFF79CBF30BC86
:1010E000BDE8C05FFFF7B1BF30BCBDE8C05FFFF730
:1010F000DCBF00002DE9F84F044600270088E54DCD
:101100003E46010504F1200B1DD5606E78B1B0F5A7
:10111000800F11D0B0F5000F04D0B0F5400F22D0F1
:1011200001270FE0E86840F48030E8601BE0002110
:10113000201D02F07FF903E00021584602F010FA6A
:10114000070010D03E462088C00426D5A06EC0B14E
:10115000B0F1807F1AD0B0F1007F0DD0B0F1407FA8
:1011600019D0012718E0D5F88800616E20F44000FE
:101170000843C5F88800E6E7E86840F48030E86096
:1011800009E00021201D02F055F903E00021584636
:1011900002F0E6F90746F7B13E46206880033AD5EB
:1011A000A86D4FF00008C00009D4A86D40F0805031
:1011B000A865A86D4FF0010800F080500090DFF89E
:1011C000D8A2DAF8001041F48071CAF80010FFF7D5
:1011D00037FB814610E0D5F88800A16E20F0407002
:1011E0000843C5F88800D8E7FFF72AFBA0EB090001
:1011F000022801D9032705E0DAF80000C005F3D57D
:10120000002F7CD04FEA0706B8F1000F03D0A86D7D
:1012100020F08050A8652078C00707D0D5F8880056
:10122000A16B20F003000843C5F8880020788007F0
:1012300007D5D5F88800E16B20F00C000843C5F80D
:1012400088002078400707D5D5F88800216C20F069
:1012500030000843C5F888002078000707D5D5F886
:101260008800616C20F0C0000843C5F88800207831
:10127000C00607D5D5F88800A16C20F4407008435B
:10128000C5F888002078800607D5D5F88800E16C7D
:1012900020F440600843C5F888002088800507D501
:1012A000D5F88800E16D20F440200843C5F8880097
:1012B0002088400507D5D5F88800216E20F440101D
:1012C0000843C5F888002078400607D5D5F888007F
:1012D000216D20F440500843C5F8880020780006AE
:1012E00007D5D5F88800616D20F440400843C5F863
:1012F00088002088C00509D5D5F8880000E01CE0EA
:10130000A16D20F440300843C5F8880020884FF0D4
:10131000006780044FF080684FD5D5F88800E16EF3
:1013200020F040600843C5F88800E06EB8423CD128
:10133000E86840F48010E8603FE0D5F8900010F4D1
:10134000407015D0D4F88410814211D0D5F89000A7
:10135000D5F8901020F4407041F48031C5F8901019
:10136000D5F8901021F48031C5F89010C5F89000A0
:10137000C00710D0FFF764FA074641F2883906E04B
:10138000FFF75EFAC11B494501D903263CE7D5F8B2
:1013900090008007F4D5D5F89000D4F8841020F49C
:1013A00040700843C5F890002EE7404505D1012163
:1013B000201D02F03FF800B106462068000317D553
:1013C000D5F88800216F20F040600843C5F88800F8
:1013D000206FB84204D1E86840F48010E86007E06C
:1013E000404505D10121201D02F024F800B1064638
:1013F0002068400317D5D5F88800616F20F0406061
:101400000843C5F88800606FB84204D1E86840F42A
:101410008010E86007E0404505D10121201D02F061
:1014200009F800B10646208840041AD5D5F888008E
:10143000A16F20F040500843C5F88800A06FB0F1BC
:10144000805F03D0B0F1005F05D00AE00221201DCB
:1014500001F0F0FF03E00221584602F081F800B1EC
:1014600006462088000407D5D5F88800E16F20F0F3
:1014700080400843C5F888002068C00307D555F8A8
:10148000880FD4F8801020F00040084328603046D0
:1014900000F004B8001002400070004018BCBDE825
:1014A000E08F00002DE9F0470F46050058D03F4E71
:1014B000306800F00700B84209D2306820F0070019
:1014C00038433060306800F00700B84248D12878CF
:1014D000374CC0072CD06868032811D0022812D0DE
:1014E000216898B1490500293ADAA16821F0030181
:1014F0000143A160FFF7A4F9804641F2883910E06A
:1015000021688901EFE721688903ECE78907EAE7A9
:10151000FFF796F9A0EB0801494502D90320BDE881
:10152000F087A068696800F00C00B0EB810FEFD184
:101530002878800705D5A068A96820F0F000084346
:10154000A060306800F00700B8420BD9306820F086
:10155000070038433060306800F00700B84201D01F
:101560000120DCE72878400705D5A068E96820F469
:10157000E0600843A0602878000706D5A0682969C4
:1015800020F4605040EAC100A06000F05BF8A16860
:10159000084AC1F30311515C01F01F01C84006491C
:1015A0000860BDE8F0470020FFF750BA0020024075
:1015B00000100240B0520008200000200F220260FC
:1015C0000C4A936803F003034360936803F0F0034D
:1015D0008360936803F4E063C36092684FF4E06350
:1015E00003EAD20202610448006800F007000860C4
:1015F00070470000001002400020024005480649E4
:1016000000688968054AC1F30221515C01F01F019D
:10161000C84070472000002000100240F05200082F
:101620000548064900688968054AC1F3C221515C32
:1016300001F01F01C8407047200000200010024048
:10164000F052000870B52549002318468A68CC6816
:1016500012F00C0204F00306214C4FEA640509D095
:101660000C2A05D0042A26D0082A00D1284670BDAD
:10167000012E10D10B681B0704D4D1F89430C3F3AA
:10168000032302E00B68C3F30313164E56F823300E
:101690007AB10C2AEBD1C86800F00302C868C0F325
:1016A0000210401C022A08D0032A09D0B3FBF0F034
:1016B00008E0184670BD204670BDB4FBF0F001E0B4
:1016C000B5FBF0F0CA68C968C2F306225043C1F303
:1016D0004161491C4900B0FBF1F070BD00100240AF
:1016E0000024F400C05200082DE9F84305007CD026
:1016F000FD4CA06800F00C06E06800F003072878B5
:10170000C00661D576B10C2E01D1012F0AD0A8698F
:101710000028206878D040F001002060FFF790F8A2
:10172000804659E02068800702D5A8690028DED0ED
:10173000286A2168090703D5216801F0F00104E057
:10174000D4F89410F02202EA1111884215D901F060
:101750008BFF002849D1206840F0080020602068F5
:10176000296A20F0F000084320606068E96920F4ED
:101770007F4040EA0120606015E0206840F00800EA
:1017800020602068296A20F0F0000843206060682B
:10179000E96920F47F4040EA01206060286A01F096
:1017A00063FF0028D6D1FFF74DFFA168CF4AC1F3F0
:1017B0000311515C01F01F01C840CD4908600020B1
:1017C000FFF744F900287DD12FE000BFFFF738F87C
:1017D000A0EB0800022876D820688007F6D520689C
:1017E00040F008002060206801E0BBE00CE0296ABE
:1017F00020F0F000084320606068E96920F47F4031
:1018000040EA0120606010E020F001002060FFF756
:1018100017F8804606E000BFFFF712F8A0EB0800BB
:101820000228D8D820688007F6D42878C00740D08E
:10183000082E18D00C2E01D1032F14D06868B0F5F3
:10184000803F17D0B0F5A02F206817D020F480304B
:101850002060206820F4802020606868E0B1FEF7F6
:10186000EFFF804614E02068800322D568680028D6
:1018700078D01EE0206840F48030EDE740F480200E
:101880002060F7E7FEF7DCFFA0EB08006428A2D891
:1018900020688003F6D50CE0FEF7D2FF804605E015
:1018A000FEF7CEFFA0EB0800642894D820688003E0
:1018B000F6D4287880073BD5042E11D00C2E04D105
:1018C000022F01E036E1A1E00AD0E8680028206894
:1018D0001ED040F480702060FEF7B2FF07460CE097
:1018E000206840050CD5E8680028C1D008E000BF9A
:1018F000FEF7A6FFC01B022893D820684005F7D545
:101900006068297C20F0F85040EA016060600FE0D8
:1019100020F480702060FEF793FF074605E000BFCB
:10192000FEF78EFFC01B022870D820684005F7D450
:101930002878000729D568690028D4F8940012D0C7
:1019400040F00100C4F89400FEF77AFF074604E077
:10195000FEF776FFC01B022858D8D4F89400800701
:10196000F6D512E0EDE020F00100C4F89400FEF797
:1019700067FF074605E000BFFEF762FFC01B0228B5
:1019800044D8D4F894008007F6D42878400768D566
:10199000A06D0027C00008D4A06D40F08050A06565
:1019A000A06D012700F08050009052480168C905E1
:1019B00012D40168814641F480710160FEF740FF56
:1019C000804605E0FEF73CFFA0EB080002281DD88A
:1019D000D9F80000C005F5D5A868012817D005285A
:1019E000D4F8900018D020F00100C4F89000D4F88A
:1019F000900020F0040000BFC4F89000A86841F2F5
:101A00008839D0B1FEF71CFF804611E06BE0D4F8B6
:101A1000900040F00100EFE740F00400C4F89000AF
:101A2000F5E700BFFEF70CFFA0EB080149455AD8C7
:101A3000D4F890008007F5D50EE0FEF701FF804650
:101A400006E000BFFEF7FCFEA0EB0801494570D898
:101A5000D4F890008007F5D41FB1A06D20F080501D
:101A6000A065A86AF0B30C2E6BD00228206820F085
:101A70008070206004D0206810F0205F47D04AE0DA
:101A8000FEF7DEFE064604E0FEF7DAFE801B0228C3
:101A90004FD820688001F7D4286BE96A000110381C
:101AA0000843696BAA6B0902120941EA42410843E3
:101AB000A98F114A490802EB4151084395F840109B
:101AC0004908120102EB41610843E060206840F0E0
:101AD00080702060E06840F08070E060FEF7B0FE4B
:101AE000054610E02BE024E000100240B052000850
:101AF00020000020007000400000E0FFFEF7A0FE84
:101B0000401B022815D820688001F7D517E0E0684F
:101B100020F00300E060E0680B490840E060FEF759
:101B20008FFE054608E000BFFEF78AFE401B022834
:101B300002D90320BDE8F88320688001F4D4002096
:101B4000F8E70120F6E70000FFFFEEFE70B50400A5
:101B500003D06079002510B105E0012070BD25712A
:101B6000204600F00DF8022060712068016841F005
:101B70000401016001206071A560002070BD0000BB
:101B800008B500680649884208D10648C16C41F48E
:101B90008021C164C06C00F48020009008BD00006A
:101BA00000080650001002402DE9F04104000CD05E
:101BB00094F87D00002620B984F87C60204600F06F
:101BC000CDF8204601F08EFD10B10120BDE8F08176
:101BD000022084F87D00E06820B101280ED00228A0
:101BE0000ED00020A2684FF400612AB1012A09D06A
:101BF000022A0AD0032A0AD000250BE01020F1E7C0
:101C00002020EFE74FF4806504E00D4602E00D462A
:101C100040F001004D4B4D4A27682033974201D0D8
:101C20009F4202D1494F3F1F00E0494F3860E069B1
:101C3000E8B12068904201D0984201D1084601E005
:101C40004FF48050FFF76CF8E16900EB8000400032
:101C50004902B0FBF1F10A22B1FBF2F0B1FBF2F361
:101C600002FB13112062082901D9401C2062606820
:101C70004FF40071E8B3022864D0E06B012800D073
:101C8000002120680268334B1A400260226B6068B2
:101C90001043D4E90D231A4310430843616A2843D3
:101CA00008432169084361690843218C40EA0151D6
:101CB0002068026811430160206841684EF20F02FB
:101CC0009143416021684868A2691043D4E90A231E
:101CD0001A4310434860206881681F4A11408160A0
:101CE000A16C206D226C0843E16C521E1143084325
:101CF00000E027E0616C6FF0FF0202EB0121084376
:101D000021688B68184388602068C1684FF22003FF
:101D10001940C160D4E915010843E16D02EB0121CE
:101D2000B4F8602041EA024108432168CA681043C0
:101D3000C860C4F88060012084F87D0084F87C606D
:101D4000002043E7E06B01289AD09AE70454014051
:101D50000058014010C005FF0080F8FF2DE9F04F4A
:101D6000074600682749284C0026DFF8A0B0284D18
:101D700087B04FF002084FF0030A4FF00D09884278
:101D800021D1286838B9216E41F400112166216EF5
:101D900001F400110591401C28607420CDE9000871
:101DA000CDE9026A6946CDF810905846FEF75AFC14
:101DB0004FF400700090CDE90186CDE903696946D2
:101DC0005846FEF74FFC0F4938682031884216D13B
:101DD000286838B9216E41F400112166216E01F4A2
:101DE00000110591401C28608020CDE90008CDE954
:101DF000026A6946CDF810905846FEF733FC07B0EA
:101E000000F008B8045401400010024000100048DF
:101E10001800002030BCBDE8C08F704790F85D000E
:101E20007047000038B5016804464A688868C043B6
:101E3000430606D5C30704D1D3435B0601D4E16C46
:101E400005E0830708D4D3431B0605D4216D01B0F8
:101E50002046BDE830400847830603D5430601D538
:101E6000C30551D4D3439B064ED443060AD494F8F9
:101E70005D30032B49D0236E43F004032366CB6807
:101E80008B680093830609D4236E43F00103236615
:101E90008B6800930B6823F040030B60C00506D4E9
:101EA000206E40F008002066206880680090206E58
:101EB000002829D02068416821F0E001416001201C
:101EC00084F85D00900701D4D00722D020684168D3
:101ED00021F003014160114DA06D40B18563A06DFB
:101EE000FEF784FB18B1206E40F040002066606D64
:101EF000002809D08563606DFEF778FB002803D0C9
:101F0000206E40F04000206638BDC86888680090A8
:101F100038BD2046FFF781FF38BD0000313700088B
:101F20002DE9F041040005D00025A56294F85D007C
:101F300018B107E00120BDE8F08184F85C5020462C
:101F400000F044F8022384F85D302068016821F035
:101F500040010160E0684FF4E066B04201D9002121
:101F600001E04FF48051B0F5706F02D0B04200D064
:101F7000A562276B012227B9B04201D9236300E093
:101F80002263D4E901031843D4E9043633431843E8
:101F9000238B03F400731843E3691843236A18433F
:101FA000A36A184323681860636B606AA6691843C4
:101FB0000427E36807EA16463343184308432168B9
:101FC0004860256684F85D200020B4E710B586B02F
:101FD000044614216846FEF7B0F916492068884285
:101FE00026D11548816D41F480418165816D01F4F0
:101FF00080410591C16C41F00801C164C06C694623
:1020000000F0080005901A200090022001900020A6
:10201000029003200390052004900848FEF722FB5D
:10202000002205212420FEF771FD2420FEF762FD29
:1020300006B010BD0038004000100240000C0048FF
:10204000704770477047000030B590F83C20012A77
:102050003AD0012280F83C20CA688B6822F4407292
:102060001A434B6822F480621A430B6822F4006220
:102070001A430B6922F480521A434B6922F400522E
:102080001A438B6A22F480421A430B8B22F470228B
:1020900042EA03420D4D03680024AB4202D00C4DCE
:1020A000AB420CD18D8C22F4700242EA0552CD690C
:1020B00022F080722A43096A22F000720A435A64AD
:1020C00080F83C40002030BD022030BD002C014093
:1020D0000034014070B590F83C20012A24D001243E
:1020E00080F83C40022280F83D20026853689568E1
:1020F0000E4EB24202D00E4EB24203D123F470060D
:102100004B68334323F070060B688968334325F02E
:102110008005294353600268916080F83D400021AA
:1021200080F83C10084670BD022070BD002C0140B4
:102130000034014010B5040003D094F83D0010B104
:1021400007E0012010BD002084F83C00204600F08C
:102150000DF8022084F83D00211D206801F0F2FBFB
:10216000012084F83D00002010BD000008B5006883
:102170000649884208D10648016E41F400610166B3
:10218000006E00F40060009008BD0000002C0140CB
:1021900000100240022180F83D1001688B68094A56
:1021A0001340062B08D08B681340B3F5803F03D053
:1021B0000A6842F001020A60012180F83D10002007
:1021C00070470000070001000168CA6842F0010280
:1021D000CA600068826807490A40062A08D08268F7
:1021E0000A40B2F5803F03D0016841F0010101606F
:1021F000002070470700010070B5044690F83C00CD
:10220000012817D0012584F83C50022084F83D00B5
:1022100020688268324E324022F47F428260086831
:10222000502839D00DDC202855D005DC98B3102873
:1022300043D150E0022070BD30284CD040283CD122
:1022400041E0602830D070280CD0B0F5805F03D01A
:10225000B0F5005F31D112E020688168204A703209
:10226000114016E0CB68D1E90121206801F0D7FBCD
:1022700021688868304040F0770088601DE0CB68B6
:10228000D1E90121206801F0CAFB2068816841F48E
:102290008041816011E01EE0CA684968206801F051
:1022A00099FD5021206806E0CA684968206801F05D
:1022B000A2FD6021206801F0BCFB84F83D500020A5
:1022C00084F83C0070BDCA684968206801F082FD4E
:1022D00040212068EFE7226801461046EBE7000046
:1022E00088FFFEFF704770B50446006801694FF033
:1022F0000005C943890715D4C168C943890711D4AA
:10230000E91E01610120207720688069800720464E
:1023100002D0FFF7E7FF04E000F0D2F8204600F01B
:1023200080F9257720680169C943490717D4C16836
:10233000C943490713D46FF00401016102202077DB
:102340002068806910F4407F204602D0FFF7CAFF62
:1023500004E000F0B5F8204600F063F92577206826
:102360000169C943090716D4C168C943090712D4D2
:102370006FF008010161042020772068C0698007A0
:10238000204602D0FFF7AEFF04E000F099F82046A7
:1023900000F047F9257720680169C943C90617D4B9
:1023A000C168C943C90613D46FF010010161082048
:1023B00020772068C06910F4407F204602D0FFF7E4
:1023C00091FF04E000F07CF8204600F02AF9257720
:1023D00020680169C943C90708D1C168C943C90751
:1023E00004D1891E0161204600F054F9206801697A
:1023F000C943090609D4C168C943090605D46FF069
:10240000800101612046FFF71CFE20680169C94375
:10241000C90509D4C168C943090605D46FF48071A0
:1024200001612046FFF70CFE20680169C943490697
:1024300009D4C168C943490605D46FF04001016160
:10244000204600F052F920680169C94389060BD47F
:10245000C168C943890607D46FF020010161204695
:10246000BDE87040FFF7EEBD70BD000010B586B04E
:10247000044614216846FDF760FF0E492068884233
:1024800016D10D48C16C41F01001C164C06C6946A1
:1024900000F0100005904FF4C04000900220019021
:1024A000002002900390012004900448FEF7DAF81F
:1024B00006B010BD002C0140001002400010004882
:1024C000704770B5044690F83C000D4601280ED0C8
:1024D000012684F83C60022084F83D000C2A45D097
:1024E00007DC5AB1042A1BD0082A78D12CE002203C
:1024F00070BD102A4ED0142A71D15DE0206801F021
:10250000A1FA2068816941F0080181612068816930
:1025100021F004018161206881692A69114311E079
:10252000206801F0DDFA2068816941F40061816171
:102530002068816921F480618161206881692A694C
:1025400041EA022181614AE0206801F011FB206824
:10255000C16941F00801C1612068C16921F004012D
:10256000C1612068C1692A69114311E0206801F046
:1025700047FB2068C16941F40061C1612068C169FD
:1025800021F48061C1612068C1692A6941EA0221A0
:10259000C16124E0206801F06DFB2068416D41F0CD
:1025A000080141652068416D21F004014165206802
:1025B000416D2A69114311E0206801F093FB206806
:1025C000416D41F4006141652068416D21F48061F5
:1025D00041652068416D2A6941EA0221416584F81C
:1025E0003D60002084F83C0070BD10B5040003D0AD
:1025F00094F83D0010B107E0012010BD002084F8E0
:102600003C00204600F00CF8022084F83D00211D1B
:10261000206801F097F9012084F83D00002010BDEA
:102620007047704710B504460068012201F0EAF9CE
:102630001248216881420BD01148814208D01148CC
:10264000814205D01048814202D01048814203D116
:10265000486C40F400404864206882680C490A4095
:10266000062A08D082680A40B2F5803F03D001688C
:1026700041F001010160002010BD0000002C01406C
:102680000034014000400140004401400048014046
:102690000700010000680349884201D1FEF7B8B97C
:1026A000704700000004004070B5044690F83C00FC
:1026B000012818D0012584F83C50022084F83D0000
:1026C000204601F047FB2068C16821F04001C1604D
:1026D0002068C16821F48041C16084F83D50002029
:1026E00084F83C0070BD022070BD70477047704791
:1026F0002DE9F04102680446D0691168936810F032
:102700000F0F4FF000055BD003F0010601F4907746
:10271000374369D0C70707D0CF0505D50127176212
:10272000626F42F001026267820708D5DA0706D0BD
:10273000276802223A62626F42F00402626742072F
:1027400008D5DA0706D0236804221A62626F42F0C5
:102750000202626702070AD501F02002324306D066
:10276000236808221A62626F42F008026267626F91
:10277000002A32D0800605D5880603D5216E09B11E
:1027800020468847606F000703D4206880684006B1
:1027900025D5204601F0DDFB20688168490619D562
:1027A000816821F040018160E06E98B12049816329
:1027B000E06EFDF71BFF00280FD0E06E816B06E096
:1027C000860611D58E060FD5216E1EE02046BDE887
:1027D000F04108472046FFF78AFFBDE8F081204618
:1027E000FFF785FF6567F8E7C60209D55B0207D5E5
:1027F0004FF4801010622046BDE8F041FFF776BF2D
:10280000030605D50B0603D5616E0029DED1E4E78A
:102810004006E2D54806E0D51168204621F0400187
:102820001160202184F87110656600F040F9D4E74A
:102830003F3F000810B5040003D094F8710010B1B8
:1028400007E0012010BD002084F87000204600F051
:1028500027F8242084F871002068016821F0010124
:102860000160204601F086FB0128EBD0606A10B1C0
:10287000204601F0D2FA2068416821F4904141607D
:102880002068816821F02A0181602068016841F098
:10289000010101602046BDE8104001F022BB0000AC
:1028A00010B586B0044614216846FDF746FD16496A
:1028B0002068884226D11548816D41F40031816538
:1028C000816D01F400310591C16C41F00801C164D2
:1028D000C06C694600F0080005906020009002205E
:1028E00001900120029003200390072004900848E3
:1028F000FDF7B8FE002205212620FEF707F9262065
:10290000FEF7F8F806B010BD004400400010024089
:10291000000C00482DE9F84F044690F872009A46E2
:1029200016460D46202865D1EDB1E6B194F8700049
:1029300001285FD0012084F87000002767672220FB
:1029400084F872005434FDF77BFFA6808146E68050
:1029500054F84C0C4FF48058FF21543C404508D1AA
:10296000206918B10DE0012000F046B840F2FF10D8
:102970000DE07F2218B1B0F1805F05D009E0206939
:1029800050B9A4F85C1004E0206928B13F20A4F8F5
:102990005C00B4F85C601CE0A4F85C20F9E74B46EE
:1029A000002220212046CDF800A001F033FC08B120
:1029B0000320D9E7A068404501D12069A0B1206873
:1029C000808C304005F8010BB4F85A00401EA4F882
:1029D0005A00B4F85A000028E1D1202084F872008F
:1029E00084F870700020BFE72068808C304025F8A4
:1029F000020BE9E70220B7E718BCBDE8E08F2DE93C
:102A0000F843044690F871001F4616460D462028EC
:102A10004BD1C5B1BEB194F87000012845D001205A
:102A200084F870004FF00008C4F87480212084F806
:102A30007100FDF705FFA4F850608146A4F85260CC
:102A40004FF4805615E00120BDE8F8838021204630
:102A500001F0E0FBD8B9A068B04201D12069C0B153
:102A600015F8010B21680885B4F85200401EA4F83F
:102A70005200B4F852004B464FF000020097002875
:102A8000E4D14FF04001204601F0C4FB30B10320F7
:102A9000DAE735F8020BC0F30800E3E7202084F8FA
:102AA000710084F870800020CEE70220CCE77047E8
:102AB000FEE7704738B50446012222216846FDF73B
:102AC00039FD14B1012C05D00AE09DF8000000F09A
:102AD0007F0003E09DF8000000F0F7008DF8000093
:102AE000012222216846FDF755FD38BD38B5044660
:102AF000012222216846FDF71DFD14B1012C07D0EB
:102B00000EE09DF8000000F07F0040F0800005E03E
:102B10009DF8000000F0F70040F008008DF800007C
:102B2000012222216846FDF735FD38BD38B504463F
:102B3000012224216846FDF7FDFC9DF800000122DA
:102B400000F0EF0020438DF8000024216846FDF7D7
:102B500021FD38BD38B50446012221216846FDF724
:102B6000E9FC9DF80000012200F0C00020438DF830
:102B7000000021216846FDF70DFD38BD1CB5044657
:102B800000208DF800008DF80400012230216846F5
:102B9000FDF7D0FC0122222101A8FDF7CBFC9DF816
:102BA0000000012200F080008DF800009DF8040074
:102BB000302100F0DF0004438DF804406846FDF743
:102BC000E9FC0122222101A8FDF7E4FC1CBD38B577
:102BD000044600208DF80000FDF734FC8DF800401D
:102BE000012220216846FDF7D5FC200A8DF800005F
:102BF000012223216846FDF7CDFC38BD08B501222E
:102C00008DF8000020216846FDF7C4FC08BD08B51A
:102C1000FDF718FC01220F216846FDF78BFC9DF89B
:102C2000000008BD70B505462DED028B86B0002072
:102C300000900190029003908DF8100004469FEDE3
:102C4000288A0122232104A8FDF774FC06222821EA
:102C50006846FDF76FFC9DF8101068464B0602AA07
:102C60000DD400BF00EB440610F81430767803EB67
:102C7000062322F81430641C032CF3DB0BE000EB7A
:102C8000440310F814605B7803EB062322F8143039
:102C9000641C032CF3DB11F0300004D0102805D0A5
:102CA000202808D105E09FED0F8A04E09FED0E8AF1
:102CB00001E09FED0E8A002132F9110000EE100AAA
:102CC00005EB8100491CB8EEC00A032920EE080A72
:102CD00080ED000AF0DB06B0BDEC028B70BD000099
:102CE0000000000000000C4100008C4100008C42FC
:102CF00008B5012224216846FDF71CFC9DF8000060
:102D0000012240F080008DF8000024216846FDF784
:102D100041FC08BD30B587B01422144902A8FDF764
:102D2000F3FA002102A801F0C5FC11494861FDF742
:102D300061FB00240125CDE90054234664220DA146
:102D40000E4802F0B7F9CDE90054002364220CA12B
:102D50000D4802F0AFF90220CDE9000400236422FF
:102D60000AA10C4802F0A6F907B030BD9C52000839
:102D700000000020536572766F203100414B00083F
:102D8000536572766F203200C14B00084C65766542
:102D90006C000000CD4C00082DE9F04F87B01421E5
:102DA0006846FDF7CAFA9248C16C41F01001C1644F
:102DB000C16C01F010010591C16C41F00401C164C6
:102DC000C16C01F004010591C16C41F08001C16446
:102DD000C16C01F080010591C16C41F00101C16439
:102DE000C16C01F001010591C16C41F00201C164A7
:102DF000C16C01F002010591C16C41F00801C16490
:102E0000C06C002200F00800059040F209117948DA
:102E1000FDF711FD00220C217748FDF70CFD012282
:102E200051027648FDF707FD00224FF40061734818
:102E3000FDF701FD002280217148FDF7FCFC4FF0F9
:102E4000080A022601250024CDF800A00396CDE94A
:102E5000015469466748FDF705FCDFF8A88168035F
:102E6000CDE90008694602946448FDF7FBFB0720A2
:102E7000CDE90004694661480294FDF7F3FB4FF485
:102E8000FC700090CDE901644FF00B09CDE90349D6
:102E900069465A48FDF7E6FB03270096CDE9017421
:102EA00069464FF09040FDF7DDFB2D208DE8510085
:102EB00069464FF09040FDF7D5FB1020CDE90008A2
:102EC000694602944FF09040FDF7CCFB48F2C030C9
:102ED0000090CDE90164CDE9034969464FF0904087
:102EE000FDF7C0FB4FF233200090CDE90164CDE93E
:102EF000034969464048FDF7B5FB0420CDE90005CC
:102F0000CDE9025769463C48FDF7ACFB4FF4807BA6
:102F1000CDE900B5CDE9025769463648FDF7A2FB79
:102F20004FF45060CDE90007694602943248FDF73E
:102F300099FB3548CDF800B0CDE901046946304829
:102F4000FDF790FB4FF47E400090CDE90164CDE9A0
:102F5000034969462A48FDF785FB4FF4206000903D
:102F6000CDE90154694625480394FDF77BFB28030E
:102F7000CDE9000602940A20CDE9037069464FF0BE
:102F80009040FDF76FFB4FF4A050CDE90007694674
:102F900002941A48FDF766FB0520CDE90008694652
:102FA00002941748FDF75EFB8020CDE90005CDE9CE
:102FB000024769461248FDF755FBCDF800A0CDE960
:102FC000015469460C480394FDF74CFB0095CDE98C
:102FD0000154694607480394FDF744FB0096CDE988
:102FE000018469460348FDF73DFB07B000F00EB8C9
:102FF000001002400010004800040048000800488B
:10300000000C0048000012100000111030BCBDE898
:10301000C08F0000134810B511490160124941608A
:1030200000210122C0E90212016141618161C16197
:103030000162FDF75FFC08B1FDF703FA00210948C2
:10304000FDF704FC08B1FDF7FCF900210548FDF788
:1030500028FC002803D0BDE81040FDF7F2B910BDF0
:1030600000540040BC000020EC9C90100B4810B5B0
:1030700009490160FF210122C0E901120021C0E9D4
:10308000031241618161FDF7B7FD002803D0BDE85F
:103090001040FDF7D6B910BD001000A008010020B7
:1030A000074910B5054808600846FEF74FFD00289F
:1030B00003D0BDE81040FDF7C4B910BD00080650AC
:1030C0004C0100202DE9F0412548002423490463E8
:1030D000C0E900144026C0E90D64C4638460046143
:1030E00020494461C0E90641C46044628462082703
:1030F00007640125C462C0E91154C46404654465D1
:10310000C0E916450466FEF74FFD08B1FDF799F9D1
:103110001348124984302031016003214160C0E925
:103120000C468463C46304618461C0E90254446250
:1031300084620764C462C0E91154C46404654465D0
:10314000C0E916450466FEF72FFD002803D0BDE850
:10315000F041FDF776B9BDE8F0810000045401406C
:103160005C01002000EE0200124810B51049016019
:103170004FF48271416000214FF44072C0E90212A5
:103180004FF400720161C0E90512C16101620722BA
:103190004162C0E90A12016308214163FEF7C0FEE3
:1031A000002803D0BDE81040FDF74BB910BD00006A
:1031B000003800406402002010B59EB000241A942C
:1031C0001B941C94142112A81D94FDF7B6F81794B3
:1031D00018941C210BA81994FDF7AFF82C21684610
:1031E000FDF7ABF83448334901605021C0E90114C0
:1031F00044F62061C0E9031444618461FEF79AFF3C
:1032000008B1FDF71EF94FF480501A901AA92A4808
:10321000FEF7F2FF08B1FDF714F92748FFF7E5F9CB
:1032200008B1FDF70EF9129412A923481394FFF781
:103230003BFA08B1FDF705F91794189417A91E4831
:103240001994FEF747FF08B1FDF7FBF860200B90DB
:103250000520CDE90C040E940F94109408220BA9BC
:1032600015481194FFF72DF908B1FDF7EAF80C2283
:103270000BA91148FFF725F908B1FDF7E2F8009412
:103280004FF40050CDE904400194029403940003EC
:103290000694CDE907400994694607480A94FEF769
:1032A000D3FE08B1FDF7CDF80348FFF7DFF81EB0F5
:1032B00010BD0000002C0140C80200200D4810B5D0
:1032C0000B4901604FF416514160002181600C22CE
:1032D000C160C0E904128161C16101624162FFF70E
:1032E000A9FA002803D0BDE81040FDF7AAB810BD28
:1032F0000044004008030020FEE770470907090E5C
:10330000002806DA00F00F0000F1E02080F8141D1C
:10331000704700F1E02080F8001470472DE9F0417B
:10332000984616460F460446069D08E0681C06D0DF
:10333000FDF786FAA0EB0800A8420AD84DB1206834
:103340008068384000D00120B042EFD10020BDE8B5
:10335000F081042084F83900E06B40F00100E06364
:103360000120F4E710B503460020304C304AB3F595
:10337000006F03D0B3F5805F09D03FE0D2F888300A
:1033800003F44003B3F5400F08D1204610BDD2F836
:10339000883003F04073B3F1407FF6D0B3F5000FEF
:1033A0001AD0B3F1007F17D043B3B3F5800F02D02A
:1033B000B3F1807FEAD15369DB03E7D5D068C0F36E
:1033C0000210401CB1FBF0F35069C0F306215069B4
:1033D000800329D511200DE0D368DB03D6D5D06852
:1033E000C0F30210401CB1FBF0F3D068C0F306211B
:1033F000D068EDE74B43B3FBF0F010BD1369DB037E
:10340000FBD5D068C0F30210401CB1FBF0F310698B
:103410001169C0F30620890301D5112100E00721BD
:103420004343B3FBF1F010BD0720E3E768FF1F0043
:10343000001002402DE9F041444C05468846E06802
:103440000026810728680DD0E16801F00301814260
:1034500016D1A8B1E0686968C0F30210401C884228
:103460000ED120E0012804D0022805D0032807D17E
:1034700008E02168890701E021684905002907DB88
:1034800001265FE02168890302D421684903F5E73A
:10349000E1686A686FF00F0321F0730103EB021219
:1034A00011430143E160206820F080602060FDF757
:1034B000C7F9074605E000BFFDF7C2F9C01B0228A7
:1034C00037D820680001F7D4B8F1000F18D0B8F150
:1034D000010F1ED0287D4FF07E41400801EB406077
:1034E000A96840EA01202169194A11400843206176
:1034F000206840F080602060FDF7A2F907461AE0DE
:10350000A868E9680002090940EA41402169114AB6
:10351000EBE7288A1049400801EB4050A96840EACF
:10352000012021690D4AE0E7FDF78AF9C01B022856
:1035300001D9032606E020680001F5D52069A969B4
:10354000084320613046BDE8F081000000100240D1
:10355000FF80FFF9FF80FDFF0000E0FFFF809FFF7D
:103560002DE9F0413D4C06468846E068002581077C
:1035700030680DD0E16801F00301814216D1A8B195
:10358000E0687168C0F30210401C88420ED120E050
:10359000012804D0022805D0032807D108E02168BB
:1035A000890701E021684905002907DB012551E071
:1035B0002168890302D421684903F5E7E16872684C
:1035C0006FF00F0321F0730103EB0212114301436B
:1035D000E160206820F080502060FDF731F9074657
:1035E00005E000BFFDF72CF9C01B022829D8206890
:1035F0008000F7D4B8F1000F15D0307C4FF07E4139
:10360000400801EB4060B16840EA01206169144A5A
:10361000114008436061206840F080502060FDF751
:103620000FF907460FE0B068F1680002090940EAA7
:10363000414061690B4AEBE7FDF702F9C01B022824
:1036400001D9032506E020688000F5D5606971691D
:10365000084360612846BDE8F08100000010024088
:10366000FF80FFF9FF80FDFFF8B51C4D06460024E2
:10367000A86DC00002D5FDF7AFFA0DE0A86D40F0CF
:103680008050A865A86D00F080500090FDF7A4FA66
:10369000A96D21F08051A965B0F5007F04D0802E7E
:1036A00007D94FF003040AE0802E08D9A02E01D8D4
:1036B00004E001D1022402E0702E00D10124084868
:1036C000016821F0070121430160006800F0070054
:1036D000A04201D00120F8BD0020F8BD001002403A
:1036E0000020024010B50E4941F6583203680968BF
:1036F000B1FBF2F189001C68002224F480341C60C4
:1037000031B103681B68491EDB03F9D4104610BDB4
:1037100050F8801F41F0400101600322F6E70000ED
:10372000200000200148FEF77DBB0000640200205D
:1037300010B5806A0021A0F84610C187FEF76DFB26
:1037400010BD000000B587B01F48FEF767FB0028DA
:1037500038D11D481D49072201601021C161002197
:10376000816041610161C0E90A121202C260016216
:103770004FF40072826141624FF4827242601448D9
:10378000826D42F480428265826D02F4804205922D
:10379000C26C42F00802C264C06C00F008000590E0
:1037A0001A2000900220CDE9010103900520049029
:1037B00069460848FCF756FF07B003485DF804EB7C
:1037C000FEF7AEBB07B000BD482500200038004022
:1037D00000100240000C00480D490A68136843F0CD
:1037E000400313600A6893689B07FCD5107309684F
:1037F0008868C007FCD0087B8A6812F4C05FFBD1E0
:103800008A681206FCD40A6822F040020A607047F7
:1038100048250020012000F041FFFBE710B55020B3
:1038200080F31188BFF34F8FBFF36F8F01F070FCEF
:1038300018B104494FF080500860002080F31188CF
:1038400010BD000004ED00E0F0B5B9B0442122A89D
:10385000FCF773FD142133A8FCF76FFD882168463F
:10386000FCF76BFDFDF7C0F9204850F8901F21F0E0
:103870001801016014200125002424952290CDE92F
:10388000285402266020CDE92C652A90282007279D
:10389000CDE92E50CDE93076329622A8FDF724FFEF
:1038A0000F2033900320CDE934043694042133A84B
:1038B0003794FDF7F7FD0F9414940D481994009078
:1038C000A8061D901820CDE9025001954FF48810EC
:1038D000CDE90660CDE904766846FDF70BFC680289
:1038E000FDF746F9FDF714FA39B0F0BD00100240BB
:1038F000420804000D48016841F4700101600C4861
:10390000016841F001010160002181600268094BFA
:103910001A4002608214C260026822F480220260AF
:1039200081610249C00380390860704788ED00E07A
:1039300000100240FFFFF6EA0148FEF7D4BC000089
:10394000800300202DE9F0470268264B264D274EC4
:10395000274F284C4FF0804A984209D0504507D055
:10396000A84205D0B04203D0B84201D0A04204D151
:1039700022F0700C4A6842EA0C02DFF87CC0DFF8E3
:103980007C80DFF87C9098420FD050450DD0A84243
:103990000BD0B04209D0B84207D0A04205D0604554
:1039A00003D0404501D0484503D122F44075CA6890
:1039B0002A434D6922F080022A4302608A68C2626B
:1039C0000A688262984207D0A04205D0604503D0C1
:1039D000404501D0484501D1096901630121416198
:1039E000BDE8F087002C01400004004000080040C2
:1039F000000C004000340140004001400044014000
:103A00000048014010B501F01F030121046A9940EC
:103A10008C430462016A9A401143016210BD10B5E3
:103A2000846842EA032224F47F440A4322438260EA
:103A300010BD826822F070020A4342F007018160E3
:103A4000704700002DE9F043026A22F00102026291
:103A5000056A436882691C4C25F0020522400C6807
:103A600022F0030214438A68194E2A43174D194F56
:103A7000DFF864C0DFF86490A84207D0B04205D0F8
:103A8000B84203D0604501D0484506D122F008086D
:103A9000CA6842EA080222F00402A84207D0B042F3
:103AA00005D0B84203D0604501D0484505D14D69E5
:103AB00023F440731D438B692B4343608461496841
:103AC00041630262BDE8F0838FFFFEFF002C0140DE
:103AD00000340140004001400044014000480140E2
:103AE000F0B5026A22F010020262056A4268836938
:103AF000194C1B4E23400C6823F4407343EA042402
:103B000025F020038D6843EA0513144DA84201D027
:103B1000B04206D1CF6823F0800343EA071323F0B5
:103B20004003A8420AD0B04208D00E4DA84205D0AA
:103B30000D4DA84202D00D4DA84207D14D6922F487
:103B4000406242EA85028D6942EA850242608461F0
:103B5000496881630362F0BDFF8FFFFE002C0140C6
:103B60000034014000400140004401400048014051
:103B7000F0B5026A22F480720262056A4368C26983
:103B8000194C1B4E22400C6822F00302144325F40A
:103B900000728D6842EA0522144DA84201D0B0425D
:103BA00006D1CF6822F4006242EA072222F4806242
:103BB000A8420AD0B04208D00E4DA84205D00E4D02
:103BC000A84202D00D4DA84207D14D6923F44053BD
:103BD00043EA05138D6943EA05134360C4614968EC
:103BE000C1630262F0BD00008FFFFEFF002C0140A8
:103BF00000340140004001400044014000480140C1
:103C000030B5026A22F480520262046A4268C369D3
:103C1000124D24F400542B400D6823F4407343EA02
:103C200005238D6844EA05340D4DA8420BD00D4D97
:103C3000A84208D00C4DA84205D00C4DA84202D095
:103C40000B4DA84204D14D6922F4804242EA85120C
:103C50004260C36149680164046230BDFF8FFFFEAA
:103C6000002C01400034014000400140004401406C
:103C70000048014030B5026A22F480320262046AD0
:103C80004268436D114D2B400D681D4324F40033F1
:103C90000C8943EA04430E4CA0420BD00D4CA042C9
:103CA00008D00D4CA04205D00C4CA04202D00C4CC8
:103CB000A04204D14C6922F4803242EA04224260DC
:103CC000456549688165036230BD00008FFFFEFFD6
:103CD000002C0140003401400040014000440140FC
:103CE0000048014030B5026A22F480120262046A80
:103CF0004268436D114D24F400142B400D6843EAD3
:103D000005230D8944EA05540D4DA8420BD00D4DF5
:103D1000A84208D00C4DA84205D00C4DA84202D0B4
:103D20000B4DA84204D14D6922F4802242EA85223B
:103D3000426043654968C165046230BDFF8FFFFE84
:103D4000002C01400034014000400140004401408B
:103D50000048014030B40468A26822F070034A6849
:103D60001A431B4B1A400B681343A3604A6812F0B6
:103D70000F0F1FD11211082A1CD2DFE802F01B1B03
:103D80001B1B0B1D23040B69D1E90221006830BC09
:103D9000FFF745BE0268136A146A24F00104146236
:103DA00002689469096924F0F00444EA0111916100
:103DB0000068036230BC70470A698968006830BCDB
:103DC00000F008B80A698968006830BC00F013B8D0
:103DD000F8FFFEFF10B5036A046A24F001040462D0
:103DE000846924F0F00444EA021423F00A020A432E
:103DF0008461026210BD10B5036A23F010030362F0
:103E00008369046A23F4704343EA023224F0A00376
:103E100043EA01118261016210BD90F82410C907C4
:103E200006D001684A68836A22F400321A434A6065
:103E300090F82410890706D501684A68C36A22F4FD
:103E400080321A434A6090F82410490706D5016869
:103E50004A68036B22F480221A434A6090F82410C7
:103E6000090706D501684A68436B22F400421A43E9
:103E70004A6090F82410C90606D501688A68836BE9
:103E800022F480521A438A6090F82410890606D5DD
:103E900001688A68C36B22F400521A438A6090F862
:103EA0002410490611D501684A68036C22F4801277
:103EB0001A434A60016CB1F5801F06D101684A6857
:103EC000436C22F4C0021A434A6090F82410090699
:103ED00006D501684A68806C22F4002202434A60D9
:103EE0007047F8B5002604464667FCF7A9FC05466E
:103EF000206800686FF07E47000708D52B46002237
:103F00004FF400112046009700F084F960B9206852
:103F1000006840070AD52B4600224FF48001204656
:103F2000009700F077F908B10320F8BD202084F84D
:103F3000710084F8720084F870600020F8BD10B53C
:103F4000806A0021A0F85A10A0F85210FEF7CFFBAB
:103F500010BD01680A6822F490720A6001688A68DC
:103F600022F001028A60202180F87210002101668F
:103F7000704700002DE9F04104460168806823691C
:103F8000E669184363691025002733431843954AAF
:103F90000B68954E334003430B6020684168E3682B
:103FA00021F44051194341602168A069914201D038
:103FB000236A18438B6823F4306303438B608B4B75
:103FC00021688B4899420DD1D0F8880010F0030089
:103FD00006D001285AD0022856D0032859D157E0DC
:103FE000012556E0834B99420BD1D0F8880010F0A0
:103FF0000C0047D0042849D0082845D00C2848D1C7
:1040000046E07D4B99420BD1D0F8880010F030008B
:1040100038D010283AD0202836D0302839D137E08F
:10402000764B99420BD1D0F8880010F0C00029D00F
:1040300040282BD0802827D0C0282AD128E0704BD8
:1040400099420ED1D0F8880010F440701AD0B0F523
:10405000807F1BD0B0F5007F16D0B0F5407F18D11F
:1040600016E0914215D1D0F8880010F4406009D0D4
:10407000B0F5806F0AD0B0F5006F05D0B0F5406F95
:1040800007D105E0002504E0022502E0042500E058
:1040900008255C4B00264FF4004091423DD135B1DC
:1040A000022D07D0042D07D0082D10D107E0FDF711
:1040B000A5FA03E0184602E0FDF7C4FAA8B3626867
:1040C00002EB4201814202D8B0EB023F01D9012745
:1040D00075E0DFF834815DB1022D0CD0042D13D0D2
:1040E000082DF4D150082905401846F1000105E0DB
:1040F000FDF784FA0AE050084449F5E70023FCF78D
:10410000CFF8A0F5407156E0FDF79CFA6268010E09
:104110000302500818187141F0E7E1694FF6EF7893
:1041200081422FD1092DD2D200E048E0DFE805F02E
:1041300006092005230505052600C8E7FDF75EFAF8
:1041400001E0FDF76DFA4100D4F8040001EB5001E5
:10415000B1FBF0F080B2A0F110014145B7D84FF6A5
:10416000F0710140C0F3420001432068C16026E0C5
:1041700027496068EAE7FDF765FAE4E74FF4803124
:104180006068E3E7092DA2D2DFE805F006091E0505
:104190002205050525009AE7FDF730FA01E0FDF755
:1041A0003FFA0146606801EB500100BFB1FBF0F03F
:1041B00080B2A0F11001414589D82168C860266607
:1041C00038466666BDE8F081606803EB5001EDE7B4
:1041D000FDF738FAE5E7616800EB5100B0FBF1F05C
:1041E000E6E7000000800040F369FFEF003801407F
:1041F000001002400044004000480040004C0040D5
:10420000005000400024F400FFFC0F00000024F4E4
:104210000048E8012DE9F041984617460E4604464D
:10422000069D1DE0681C1BD02DB1FCF709FBA0EB1F
:104230000800A84214D92068016821F4D0710160F7
:104240002068816821F001018160202084F87100DC
:1042500084F87200002084F870000320BDE8F0812B
:104260002068C06936EA000004D00020B842D9D0E6
:104270000020F3E70120F9E70148FEF739BA000012
:1042800008030020FEE700000FB4084B10B504A996
:1042900002AA039800F01CF8044602A9002000F0CE
:1042A000BBF9204610BC5DF814FB0000194600085D
:1042B00002E008C8121F08C1002AFAD170477047EF
:1042C000002001E001C1121F002AFBD1704700004D
:1042D0002DE9FF4F8BB088460546002606E02528CD
:1042E0000BD0DDE90D1290476D1C761C2878002854
:1042F000F5D10FB0304600F063B90024A146A246C4
:104300000122AE4900E0044315F8013F203B02FAC8
:1043100003F00842F7D128782A2810D06FF02F0236
:104320002878A0F13001092915D809EB890102EBA1
:10433000410144F0020400EB01096D1CF0E758F85C
:10434000041B5FEA010903D544F40054C9F10009D4
:1043500044F002046D1C28782E2817D115F8010F9F
:1043600044F004042A280ED06FF02F022878A0F120
:10437000300109290AD80AEB8A0102EB410100EB5E
:10438000010A6D1CF2E758F804AB6D1C28786C2804
:104390000FD006DC4C2817D068280DD06A2814D11D
:1043A00004E0742810D07A280FD10DE044F40014F2
:1043B0000AE044F4801401E044F440146978814236
:1043C00002D104F580146D1C6D1C2878692865D015
:1043D00006DC00288DD0632827D0642806D15DE054
:1043E0006E2808D073282AD0752877D0DDE90D1201
:1043F0009047761CE0E0C4F30250022809D003285D
:104400000DD0D8F8001004280DD00E6008F1040873
:10441000D2E0D8F80010F217C1E90062F6E7D8F848
:1044200000100E80F2E70E70F0E718F8041B8DF80C
:10443000001000208DF80100EB46012003E058F841
:1044400004BB4FF0FF3061074FF0000701D40AE0D2
:104450007F1C57450DDA8742FADB1BF8071000294D
:10446000F6D106E07F1C8742FCDB1BF80710002911
:10447000F8D1DDE90D23A9EB07008146214600F0C4
:10448000B4F83044C61904E0DDE90D121BF8010B45
:1044900090477F1EF8D22146484688E058F8040B22
:1044A000C4F302514FF00A0B032900D100B20429D2
:1044B00000D140B2002802DA40422D2102E021055D
:1044C00005D52B218DF82410012104E006E0E10739
:1044D00010D02021F6E708AF089113E058F8040B3C
:1044E000C4F302514FF00A0B032900D180B2042912
:1044F00000D1C0B20021EEE75946FBF729FF303169
:1045000007F8011D0028F7D1ADEB070000F1200BE3
:10451000600702D524F4803401E04FF0010ADA4547
:1045200002DDAAEB0B0000E00020824600EB0B014D
:1045300008980144A9EB01000A90E00306D4DDE9E4
:104540000D2321460A9800F050F806444FF0000968
:1045500008E009A911F80900DDE90D12904709F1F9
:104560000109761C08998945F3DBE0030CD5DDE9E8
:104570000D2321460A9800F038F8064404E0DDE9EE
:104580000D1230209047761CBAF10001AAF1010A01
:10459000F5DC05E0DDE90D1217F8010B9047761CFC
:1045A000BBF10001ABF1010BF4DC0A982146DDE917
:1045B0000D2300F008F806446D1C97E60928010059
:1045C00030BCBDE8C08F2DE9F041044600251E46F1
:1045D0001746880404D405E039462020B0476D1CF6
:1045E000641EF9D52846BDE8F0812DE9F041044666
:1045F00000251E469046C80301D5302700E020273D
:10460000880404D505E041463846B0476D1C641E59
:10461000F9D52846BDE8F0810A68531C0B6010707C
:1046200070470000FCF7FCF9FFF70EF9FEF7B4FB4A
:10463000FEF7F0FCFEF71AFDFEF744FDFEF794FDD1
:10464000FEF73CFEFEF7B8FDFEF72AFD0E48FDF72B
:10465000A1FD08210C48FDF7E5FF0C210A48FDF7F4
:10466000E1FF0A48016841F40021016000220F21A6
:104670000620FCF74BFA0620FCF73CFAFEF74AFB53
:1046800000F013F8FEE70000C80200200804014013
:1046900001460020842900D0C81C704710B500B91D
:1046A000012000F0FDFB002010BD10B500F01EFC45
:1046B000002010BD3EB504460D46B0F90800FFF7D6
:1046C000E7FF02A9CDE90001208A2B4682B2D4E996
:1046D000001000F0EFFC012801D000203EBD029840
:1046E0003EBD00002DE9F041184C0F4605466669B5
:1046F0002068001D00F010FA38B9206890F82C10DE
:1047000001208840A1698143A161681C07D137B1AC
:104710002168BDE8F0410E48091D00F041BB20684A
:104720003544B5424560216805D2A068BDE8F04136
:10473000091D00F01DBB6068091D00F019FB206B0E
:10474000854200D22563BDE8F081000024000020EE
:104750009C0400202DE9F041054600F02DFB2E4C75
:104760002069401C206120682C4F10B1E06940B3E3
:104770002DE025602069012829D1002606EB86005E
:1047800007EB800000F0E6FA761C072EF6D32348EC
:104790008C3000F0DFFA2148A03000F0DBFA1F482F
:1047A000B43000F0D7FA1D48C83000F0D3FA1B48E7
:1047B000DC3000F0CFFA19488C3060601430A06013
:1047C00005E02068E96AC06A884200D82560E06A8E
:1047D000401CE0626864E96A0120A26988401043D5
:1047E000A06101EB810007EB8000291D00F0D8FAE1
:1047F00000F002FBE06900280CD02068E96AC06A7A
:10480000884207D206494FF080500860BFF34F8FAF
:10481000BFF36F8FBDE8F08124000020C0030020AB
:1048200004ED00E010B50446006B00F0F9FA2046F4
:10483000BDE8104000F0F4BA10484FF400514207B0
:1048400006D0C01D0D4920F00700411AC1F50051E6
:104850000B4A00230144C2E900030839103A21F051
:10486000070111604B600B600B1AC0E900139360E5
:104870004FF000405360D06070470000B00400204B
:1048800070000020144E154CA6F1C8074FF0805858
:10489000DFF84C9012E000BF00F08EFAF068C568B7
:1048A000281D00F039F92069401E2061E068401E93
:1048B000E06000F0A1FA2846FFF7B4FFE0680028A6
:1048C000EAD138680128F9D9C9F80080BFF34F8FC1
:1048D000BFF36F8FF2E7000088040020240000205F
:1048E00004ED00E02DE9F0470E46DDE909841746A6
:1048F000824691009946089DA522206BFBF716FD84
:104900006FF00301206B01EB8701084420F00707DB
:10491000780707D0502080F31188BFF34F8FBFF383
:104920006F8FFEE72218315C82F83410315C11B1D0
:10493000401C1028F6D3002684F84360072D00D3CE
:104940000625E562C4E91356201D00F00EFA04F1B5
:10495000180000F00AFA2461C5F107006462A06142
:10496000666584F858604A465146384600F0BEF8FD
:104970002060B8F1000F01D0C8F80040BDE8F08712
:1049800030B5114900E011460A688242FBD34B68FA
:104990005C18844203D14068184448600846436864
:1049A0001C18944209D1084C103C2468A24209D03A
:1049B00052681A4442600A6812680260814200D05C
:1049C000086030BD0460F9E77000002006484168C7
:1049D000096829B14168C968C968496801637047B5
:1049E0004FF0FF31FAE7000024000020084840683B
:1049F000401C4FF0500080F3118804D0BFF34F8F5C
:104A0000BFF36F8FFEE7BFF34F8FBFF36F8FFEE7EC
:104A1000780000202DE9F0410546002700F09AFAC1
:104A2000314E306808B9FFF707FFF06805424BD1F7
:104A3000C5B3083568070ED005F00700C0F10800BF
:104A40000544680707D0502080F31188BFF34F8FCB
:104A5000BFF36F8FFEE72DB37068854234D82248CC
:104A6000103001460C6801E020460C466168A942FE
:104A700002D221680029F7D131688C4224D007681E
:104A80002168016060680837411B10290FD960193F
:104A9000420708D0502080F31188BFF34F8FBFF337
:104AA0006F8FFEE710E041606560FFF769FF6168A6
:104AB0007068401A7060B268904200D2B060F068CE
:104AC00001430020C4E9000100F086FB780707D00D
:104AD000502080F31188BFF34F8FBFF36F8FFEE735
:104AE0003846BDE8F08100006000002010B5031FCB
:104AF0004FF080741C601B1F21F001011960191F09
:104B0000044B0B6014390A60091F6FF0020244382D
:104B10000A6010BDED490008D0E9013201699A60D0
:104B2000D0E901235A604A68824201D182684A6012
:104B3000002202610868401E086008687047000093
:104B40002DED028B88B00020059006909FED198A0C
:104B5000194E1A4F04900090019004AD6C4640F23B
:104B6000DC58029004A8FBF73BFC002005EB800119
:104B700054F8202091ED000AC0EE080ABDEEE00ACC
:104B800010EE101A114444F82010401C0328EDDBED
:104B90000298404201D5002002E0404500DD404639
:104BA00000F5FA70B0603968C863642000F078F9E5
:104BB000D8E7000000007A4400000020C80200206E
:104BC000A0B000263746324DDFF8C8804FF0060906
:104BD000314C4BE094ED010A94ED031AA268F8EE13
:104BE000400AB8EE400A60EE810AFCEEE00A10EEE0
:104BF000901AD4ED040A8A4220EE200ABCEEC00AC4
:104C000010EE100A09D9824207D2686940F4807018
:104C100068612078401C207006E0686920F480708C
:104C200068616078401C6070D8F800004146C0B2EE
:104C30004A4601E00868C0B2B0FBF2F302FB13037E
:104C4000B342F7D0B0FBF2F109FB1106C6EB061038
:104C500000EB80004FF4FA7101EB80000F496060B7
:104C60000968086460887F1C00F01AF90B2FB1DB1B
:104C7000637822780AA16846521EFFF705FB82B2CC
:104C80004FF47A7369461048FDF7B9FE6420EBE7EC
:104C9000001000480808065000000020C80200204C
:104CA00047414D45204F56455220202048495453F6
:104CB000203D2025642020204D4953534553203D5D
:104CC0002025640D0000000008030020A2B01B484E
:104CD00000684FF4FA76C5B21948066000241949F5
:104CE0006846FFF7D1FA82B277003B46694616481C
:104CF000FDF785FE0620B5FBF0F100FB1150C0EB7F
:104D00000010124900EB800006EB8000104D486057
:104D10003B46012220A90C48FDF7FCFD9DF88010C0
:104D2000312909D0322907D0332905D0012CEFD100
:104D3000284600F0B5F8EBE70124F9E7080806502B
:104D4000402C0140F8520008080300200000002019
:104D500000E1F50500F108014FF0FF32C0E9011252
:104D6000C16001610021016070470021016170474D
:104D700030B50B685A1C02D000F1080202E002694B
:104D800004E02246546825689D42FAD953684B6076
:104D900099608A60516008610168491C016030BDFA
:104DA00042684A6093688B609368596091600861BB
:104DB0000168491C01607047502080F31188BFF3DF
:104DC0004F8FBFF36F8F0A494868401C4860012825
:104DD0000CD10848006810F0FF0F07D0502080F376
:104DE0001188BFF34F8FBFF36F8FFEE7704700004E
:104DF0007800002004ED00E00849486828B1401E12
:104E0000486001D180F311887047502080F31188E9
:104E1000BFF34F8FBFF36F8FFEE7000078000020D5
:104E200070B5002827D0144DA0F108046168E86827
:104E3000014207D1502080F31188BFF34F8FBFF399
:104E40006F8FFEE722683AB1502080F31188BFF3DC
:104E50004F8FBFF36F8FFEE78143616000F07AF8F8
:104E600060686968084468602046FFF789FDBDE80E
:104E7000704000F0B1B970BD600000204FF0E0203C
:104E800000210161816105494FF47A720968B1FB23
:104E9000F2F1491E416107210161704720000020A5
:104EA00010B5020014D00F48806B38B1502080F349
:104EB0001188BFF34F8FBFF36F8FFEE700F04AF802
:104EC00000211046FFF70EFC00F086F9002807D1FC
:104ED00005494FF080500860BFF34F8FBFF36F8FCD
:104EE00010BD00002400002004ED00E01CB51548B2
:104EF0000024CDE900402346802213A1144800F08D
:104F0000D9F8012809D0401C1AD1502080F311880B
:104F1000BFF34F8FBFF36F8FFEE7502080F31188F0
:104F2000BFF34F8FBFF36F8F06484FF0FF31343818
:104F300001630121C1614461BDE81C4000F040B83B
:104F40001CBD00005800002049444C4500000000F2
:104F5000854800080248816B491C81637047000046
:104F6000240000201448816B11B101214162704777
:104F7000002141628169B1FA81F1C1F11F0101EBA8
:104F800081020E4951F822306BB101EB820101F12F
:104F900008034A6852684A609A4201D152684A60DE
:104FA000D16801607047502080F31188BFF34F8FA4
:104FB000BFF36F8FFEE7000024000020C003002035
:104FC0001CB537480168374A914207D1502080F319
:104FD0001188BFF34F8FBFF36F8FFEE70068314931
:104FE000491E884207D1502080F31188BFF34F8FAC
:104FF000BFF36F8FFEE72C4908780190FF200870FF
:1050000008788DF800009DF800009DF8002000F061
:10501000F000904207D0502080F31188BFF34F8FEB
:10502000BFF36F8FFEE79DF80000204B00F05000AB
:1050300018700720986005E09DF8002052008DF858
:105040000020401E9DF800201206F5D49860032829
:1050500007D0502080F31188BFF34F8FBFF36F8FBD
:10506000FEE74FF440709860019808700C482030BB
:10507000016841F470010160016841F07041016014
:10508000FFF7FCFE00205860FBF7ACF80848016809
:1050900041F040410160FBF791F800201CBD000089
:1050A00000ED00E071C20F4100E400E07800002054
:1050B00034EF00E02DE9FF5F8346DDE90E87994676
:1050C00016468A469000FFF7A5FC05001AD05C2022
:1050D000FFF7A0FC040012D025630021CDE90241B6
:1050E000CDE900874B46324651465846FFF7FAFB5A
:1050F0002046FFF72FFB012004B000F006B8284639
:10510000FFF78EFE4FF0FF30F6E730BCBDE8C09FE2
:105110002DE9F0412E4C0027A06B40B1206A401CC5
:105120002062606A00B101273846BDE8F0816669F7
:10513000761C666113D16068006838B1502080F336
:105140001188BFF34F8FBFF36F8FFEE76068A168D0
:105150006160A060A06A401CA062FFF737FC206B72
:10516000DFF87080864209D36068006880B16068AB
:10517000C068C568686886420DD220632068C06A2E
:1051800000EB800158F821000128CAD90127C8E79F
:105190004FF0FF30F1E7281DFFF7BEFCA86A18B1F9
:1051A00005F11800FFF7B8FCE86A0121A269814007
:1051B0001143A16100EB800108EB8100291DFFF77D
:1051C000EFFDE86A2168C96A8842CDD30127CBE7A1
:1051D00024000020C00300202DE9F0472C4D0024BE
:1051E0002746A86B38B1FFF7E7FDA86B401EA86300
:1051F000A86B40B146E0502080F31188BFF34F8F79
:10520000BFF36F8FFEE72969224E0120D1B3A6F1CB
:10521000B40980463068E8B1F068C46804F1180049
:10522000FFF77AFC201DFFF777FCE06AAA6908FA0D
:1052300000F11143A96100EB800109EB8100211D00
:10524000FFF7AEFDE06A2968C96A8842E2D3C5F873
:105250002480DFE70CB1FFF7B9FB2C6A44B1464666
:10526000FFF756FF00B16E62641EF9D1002028627C
:10527000686A38B10849012738070860BFF34F8FC3
:10528000BFF36F8FFFF7B8FD3846BDE8F087000029
:10529000240000207404002004ED00E050530008B6
:1052A0001538000800000000000000008000000029
:1052B00000000000000000000102030406070809C6
:1052C000A0860100400D0300801A060000350C0086
:1052D00040420F0080841E0000093D0000127A0049
:1052E0000024F40000366E010048E801006CDC0286
:1052F000000000000102030457656C636F6D6520B8
:10530000546F204779726F204368617365200A0AE1
:105310000D20205069636B20206C6576656C204FF2
:10532000662044696666756C7479200A0A0D4561C9
:10533000737920310A0A0D4E6F726D616C20320A4A
:105340000A0D45787065727420330A0A0D0000005A
:1053500064656661756C745461736B007C530008FE
:1053600000000020BC000000B042000838540008D3
:10537000BC000020F4280000C04200080000881390
:10538000F4010000F40100003333733F6666863F8A
:1053900000000000000000000000000000093D00C7
:1053A00000000000000000000000000000000000FD
:1053B00000000000000000000000000000000000ED
:1053C00000000000000000000000000000000000DD
:1053D00000000000000000000000000000000000CD
:1053E00000000000000000000000000000000000BD
:1053F0000000000000000000AAAAAAAA0000000005
:1054000000000000CF2B0008B32A00080F2C000872
:10541000F12C0008FD2B00087D2B0008ED2A000868
:10542000B52A00080000000000000000552B00080D
:085430002D2B0008252C0008BB
:040000050800018965
:00000001FF
