:020000040800F2
:10000000B0060020410200087D0200087F020008BF
:100010008102000883020008850200080000000039
:10002000000000000000000000000000870200083F
:1000300089020008000000008B0200088D02000801
:100040008F0200088F0200088F0200088F0200084C
:100050008F0200088F0200088F0200088F0200083C
:100060008F0200088F0200088F0200088F0200082C
:100070008F0200088F0200088F0200088F0200081C
:100080008F0200088F0200088F0200088F0200080C
:100090008F0200088F0200088F0200088F020008FC
:1000A0008F0200088F0200088F0200088F020008EC
:1000B0008F020008D50900088F0200088F0200088F
:1000C0008F0200088F0200088F0200088F020008CC
:1000D0008F0200088F0200088F0200088F020008BC
:1000E0008F0200088F0200088F0200088F020008AC
:1000F0008F0200088F0200088F0200088F0200089C
:100100008F0200088F0200088F0200088F0200088B
:100110008F0200088F0200088F0200088F0200087B
:100120008F0200088F0200088F0200088F0200086B
:100130008F0200088F0200088F0200088F0200085B
:100140008F0200088F0200088F0200088F0200084B
:100150008F0200088F0200088F0200088F0200083B
:100160008F0200088F0200088F0200088F0200082B
:100170008F0200088F0200088F02000800000000B4
:100180008F0200088F02000800F002F800F049F822
:100190000AA090E8000C82448344AAF10107DA45E2
:1001A00001D100F03EF8AFF2090EBAE80F0013F0EB
:1001B000010F18BFFB1A43F0010318478411000018
:1001C000A4110000103A24BF78C878C1FAD85207A9
:1001D00024BF30C830C144BF04680C6070470000C1
:1001E0000023002400250026103A28BF78C1FBD840
:1001F000520728BF30C148BF0B6070471FB501F0E0
:1002000027F89DE8030000F0E1F800F041F9040050
:100210000020002101F006F8401C60601FBD10B5F1
:1002200010BD00F05BF91146FFF7E8FF00F048FF52
:1002300000F079F903B4FFF7F2FF03BC00F0EAF92C
:1002400016481749174B99423CBF50F8042B41F808
:10025000042BF8D314494FF000028B4238BF43F807
:10026000042BFAD3DFF84400016841F47001016007
:10027000BFF34F8FBFF36F8F0D480047FEE7FEE7D8
:10028000FEE7FEE7FEE7FEE7FEE7FEE7FEE7FEE746
:1002900008480949094A0A4B7047000070140008D1
:1002A0000000002044000020B006002088ED00E09F
:1002B00089010008B0000020B0060020B002002034
:1002C000B002002070B5064600F064F8056806F13B
:1002D0000B0020F00704B4429CBF002070BD2B46E9
:1002E0006A68BAB11068A04210D304F108018842CC
:1002F0003CBF5068586007D35168101941601168BD
:10030000091B016058601460101D70BD13465268CF
:10031000002AE7D12146284600F044F80028DED123
:1003200070BD10B5044600F02DF80068005D0007B0
:1003300004D5DF2C02D0A4F1200010BD204610BD52
:1003400010B5431C02E010F8011B71B18107FAD10E
:100350004FF0013202C88C1A8C4314EAC211F9D052
:10036000C01A0A0603D0C01E10BDC01A10BD0A0470
:1003700001D0801E10BD0902FCD0401E10BD704788
:100380007047704710B500F083F8001D10BD00BF26
:10039000950E0000004870475800002070477047D5
:1003A0007047704738B504460A4600206946AFF3E7
:1003B0000080002808BF38BD02460099204600F0A2
:1003C0006BF8012038BD012000F080B8F8B5AFF31C
:1003D0000080054600200C46102000BF0646A819E4
:1003E000A0420DD9324669460020AFF300800700D5
:1003F00008BF00F06BF80098A04218BF0546C4196A
:10040000FFF7C8FF05600746F01D20F007004619FA
:10041000284600F00AF8B44208BFF8BDA21B3146D6
:100420003868BDE8F84000F037B800210160C0E945
:10043000011070471020704770B50446051FFFF784
:10044000A9FF0068002C14BF446870BD002C18BFC1
:10045000AC423CBF20466468F8D301680A18AA423F
:1004600018BF456003D12A68054611440160286819
:100470004119A1421CBF6C6070BD61686960216850
:100480000844286070BD00000048704750000020FC
:100490000048704770000020034640688C460028E2
:1004A00018BF88423CBF03464068F8D31868184418
:1004B000884207D00CF1030020F00700001D411A0C
:1004C000521A0146081D0A60FFF7B6BF10B500F0CA
:1004D00039F8BDE8104000F02FB870477546FFF7B7
:1004E000D3FFAE4605006946534620F00700854617
:1004F00018B020B5FFF7CCFEBDE820404FF0000655
:100500004FF000074FF000084FF0000B21F00701FB
:10051000AC46ACE8C009ACE8C009ACE8C009ACE83E
:10052000C0098D46704710B50446AFF300802046E1
:10053000BDE81040FFF77EBE002801D000F06AB889
:100540007047000010B5012805D0002103A000F07D
:1005500067F8012010BD09A1F8E700005349475290
:10056000544D454D3A204F7574206F662068656183
:1005700070206D656D6F7279000000003A2048654B
:100580006170206D656D6F727920636F7272757026
:10059000746564004FF0013C50F8042B51F8043BA3
:1005A0009A4221D1A2EB0C03934313EACC1317D147
:1005B00050F8042B51F8043B9A4215D1A2EB0C03DE
:1005C000934313EACC130BD150F8042B51F8043B9E
:1005D0009A4209D1A2EB0C03934313EACC13DBD06C
:1005E0004FF00000704700BFD01A01BAB1FA81F194
:1005F00001F0180122FA01F0CB40C1F12001DBB279
:10060000C0B2C01A2CFA01F3D11A914311EAC311F6
:10061000E6D1704701491820ABBEFEE72600020074
:1006200070B505460C460A2000E06D1C00F011F87C
:1006300035B128780028F8D102E0641C00F009F8F0
:1006400014B120780028F8D1BDE870400A20AFF33B
:10065000008008B569468DF800000320ABBE08BDD8
:100660000348406920F480700149486170470000E8
:10067000001000480348406940F480700149486117
:1006800070470000001000481348C06C40F00100A3
:100690001149C8644FF09040006800204FF090412D
:1006A00008600846006840F00200086008460068DC
:1006B00040F0080008600846006A20F00F00086259
:1006C0000846006A40F0010008620846006A40F0EF
:1006D0001000086270470000001002402348806D3F
:1006E00040F00100214988658804006A20F011006B
:1006F000890408620846006820F001000860084686
:10070000806920F0030088610846806920F4407009
:100710008861C820C8620520486388634FF4FA5096
:1007200088620006806940F0080088610846806998
:1007300040F4006088610846806940F0600088618C
:100740000846806940F4C04088610846006A40F06D
:10075000010008620846006A40F01000086208467E
:10076000006840F00100086070470000001002407F
:100770002348C06C40F012002149C8646FF030007B
:10078000204908600846006840F0100008601D48D5
:100790000830006820F030001A4908310860084627
:1007A000006840F030000860081F006820F0040076
:1007B000091F086013480C30006820F03000114910
:1007C0000C3108606FF440300F490860084600683B
:1007D00040F4803008600846806820F4403088602B
:1007E0000846806840F4403088600846406820F43D
:1007F000807048600846C06820F44030C860704788
:1008000000100240000400480010004870B5044683
:100810002046FFF795FD05462A462146014800F08F
:1008200023FA70BD004400400348006820F0040033
:10083000014908607047000014040048034800683C
:1008400040F00400014908607047000014040048AB
:100850005E49096821F007015C4A11601146096888
:1008600041F0020111605A49096841F48071584A07
:10087000116000BF5649096801F480610029F9D070
:1008800010205349496821F0F851514A51601146EE
:10089000496841EA006151601146096821F08071A0
:1008A000116000BF4A49096801F00071B1F1007F91
:1008B000F8D04749C96821F00301454AD160114683
:1008C000C96841F00201D1601146C96821F4FE41B6
:1008D00041F4A051D1601146C96821F0700141F086
:1008E0001001D1601146C96821F0C061D160114684
:1008F000C96841F08071D1601146096841F080718A
:10090000116000BF3249096801F000710029F9D077
:100910002F49896821F003012D4A916011468968A9
:1009200041F00301916000BF2949896801F00C0181
:100930000C29F9D12649896821F0F001244A9160F7
:100940001146896821F4E06191601146896821F4BB
:10095000605191601146096821F08061116000BF0B
:100960001B49096801F08061B1F1806FF8D0184926
:10097000096921F4FE41164A11611146096941F4E1
:10098000C05111611146096941F4003111611146EC
:10099000096941F4803111611146096841F08061B3
:1009A000116000BF0A49096801F080610029F9D08F
:1009B00007498831096821F44001054AC2F88810C6
:1009C0001146096E41F40011116670470020024083
:1009D0000010024010B50A48006800F0010038B16C
:1009E0000848006800F042FA0748006800F03EFA44
:1009F0000348006820F001000149086010BD0000B4
:100A0000100400403C000020400000202F48806D72
:100A100040F002002D4988650846C06C40F0040093
:100A2000C8642B48006820F0400029490860284825
:100A30002030006840F040002549203108602548FA
:100A4000006820F01100234908602248203800681F
:100A500020F001001F49203908604FF448701D49FB
:100A60000C3108604FF4FA50091F08601D2000285F
:100A700009DB00F01F02012191404209920002F1BE
:100A8000E022C2F8001100BF12480C38006840F0A4
:100A9000010010490C3908600E482038006840F009
:100AA00004000C49203908600A481438006840F0F6
:100AB000010008491439086006482038006840F0F1
:100AC000010004492039086070470000001002400E
:100AD00000080048200400401A48C06C40F008009C
:100AE0001849C8641848006820F470501649086016
:100AF0000846006840F42050086013482030006821
:100B000040F0EE601049203108600F48083000685E
:100B100040F470500C4908310860081D006820F44A
:100B20007050091D08600846006840F4A050086035
:100B30000548001D006820F060000349091D086099
:100B40007047000000100240000C004800B50D483E
:100B5000806D40F400300B4988650A488830006891
:100B600020F00C00C1F888000846D0F8880040F05A
:100B70000400C1F88800FFF7AFFF034800F010F849
:100B800000BD0000001002400044004064224243C7
:100B90000723B2FBF3F100BF4A1E111EFCD17047C0
:100BA000016821F001010160016821F0102101605C
:100BB000016821F400410160416821F44051416025
:100BC00042F28D01C160016841F00C0101601E49D3
:100BD00088421BD1016841F020010160016821F0C9
:100BE00040010160016821F010010160016821F0FD
:100BF00080010160016821F480710160016821F0C9
:100C000040010160016821F0010101600F49884243
:100C100009D1016A41F0400101620D49096841F0C2
:100C2000C0010B4A1160016841F00101016000BF81
:100C3000C16901F400110029FAD000BFC16901F4B3
:100C400080010029FAD07047004C00400044004069
:100C500008380140014600BFC86900F020000028A4
:100C6000FAD0888CC0B27047F0B504460E461746DD
:100C700000250CE000BFE06900F080000028FAD0F9
:100C8000705D20854FF49670FFF780FF6D1CBD42AC
:100C9000F0D300BFE06900F040000028FAD0E0691E
:100CA00020F04000E061F0BD017B032902D0017B10
:100CB000022900D170470168497C02681170002147
:100CC000017300BFF6E770B505460E461820FFF722
:100CD000F9FA04463146284600F009F82060002061
:100CE000A0600120207120736061204670BD70B546
:100CF00006460D461820FFF7E5FA04464FF0FF3090
:100D0000E06000202074607425706560A6606061FA
:100D1000204670BD38B5002447480021016041607D
:100D2000018146A0FFF772FD302000900FE044489B
:100D3000FFF790FF0090012269464148FFF794FFBA
:100D40009DF80000FFF7EDFA3B490855641C9DF83B
:100D500000000D28EBD13BA0FFF758FDA01E36493F
:100D6000085C582867D008460078422804D13648E5
:100D7000006800F043FA2AE02F480078502804D198
:100D80003148006800F01DFA21E02B480078432824
:100D900004D12D480068FFF787FF18E02648007847
:100DA0004E2814D024480078522804D126480068E0
:100DB00000F0C7F90BE0204800784C2804D1224805
:100DC000006800F0A5F902E020A0FFF71FFD1A4817
:100DD0004078422804D12448006800F00FFA2AE045
:100DE00015484078502804D11F48006800F0E9F900
:100DF00021E011484078432804D11B480068FFF7E0
:100E000053FF18E00C4840784E2814D00A48407828
:100E1000522804D11448006800F093F90BE006480A
:100E200040784C2804D11048006800F071F902E0C5
:100E300006A0FFF7EBFC38BD440000203E00000098
:100E4000004400400A0D00003C0000204F7665720F
:100E500072696465204E6F7420417661696C6162CD
:100E60006C650A0D00000000400000202DE9F041F3
:100E7000044600F0B9F8206800F0B2F9064606F022
:100E8000E00806F01F05FF2E03D14FF0FF30BDE84C
:100E9000F081B8F1400F42D006DCB8F1000F7AD0F3
:100EA000B8F1200F78D106E0B8F1800F66D0B8F124
:100EB000A00FF7D171E0052D03DD02202073C01EC5
:100EC000E5E7A0682F1A606980F001006061002FDB
:100ED0000EDD2946204600F04CF96169A0680844FF
:100EE000A06020680078401E216808700020CEE7CE
:100EF000002F0EDA2946204600F03BF96169A06810
:100F0000401AA06020680078401E21680870002008
:100F1000BDE72946204600F02CF90020B7E7002D58
:100F200012DD2068C06800280EDA20680078401EB4
:100F300021680870681E2168C8602079012801D0E6
:100F4000012020710020A2E72068C06800280BDD86
:100F500020680078401E216808702068C068401E24
:100F60002168C860002092E70DB900208FE7206853
:100F7000C068401E2168C860002088E7206840697A
:100F8000401C216848612068007821680874206846
:100F9000C56000207BE71CE020E020684069012854
:100FA00003DD03202073001F71E72068C06800285C
:100FB0000DDB20684069401E216848612068007C84
:100FC000216808702068C068401E2168C860002041
:100FD0005DE7204600F017F9002058E70220207353
:100FE00000BF00BF002052E710B513480068007B27
:100FF00030B1012813D0022807D0032814D109E00A
:10100000FFF738FBFFF710FC13E0FFF717FCFFF7C3
:1010100027FB0EE0FFF712FCFFF72CFB09E0FFF7C0
:101020001FFBFFF701FC04E0FFF71AFBFFF7FCFBD7
:1010300000BF00BF10BD00003C00002010B572B61C
:10104000FFF706FCFFF794FBFFF780FDFFF7DEFCE0
:10105000FFF71AFBFFF742FB00F010F862B610BD75
:101060002DE9F04106460F46144639463046FFF753
:101070002AFE05462C612846BDE8F08110B5022203
:1010800013210648FFF7ECFF054908600122032100
:101090000448FFF7E5FF0449086010BD1400002074
:1010A00040000020380000203C0000200146087865
:1010B0004A68904201D1012070470020FCE70000FF
:1010C000FFF7BCFF06A0FFF7A1FB0F48FFF79EFB51
:1010D0000E48FFF79BFB01E0FFF71CFEFCE700005A
:1010E00057656C636F6D6520746F2074686520535D
:1010F0006572766F20436F6E74726F6C20737973B4
:1011000074656D0D0A0000005C120008D41200081E
:1011100010B50446207B01280BD1A068052808DA09
:10112000A068411C204600F024F8A068401CA06084
:1011300006E0A068052803D12046A16800F019F850
:1011400010BD10B50446207B01280BD1A0680028F3
:1011500008DDA068411E204600F00BF8A068401E84
:10116000A06005E0A06818B92046A16800F001F869
:1011700010BD0269012A10D19207126A22F0010201
:101180004FF080431A6201EB4102521D5A631A4626
:10119000126A42F001021A6212E00269022A0FD1B9
:1011A0005207126A22F010024FF080431A6201EBDC
:1011B0004102521D9A631A46126A42F010021A62E4
:1011C0007047017902290AD00168097802685174D0
:1011D000016809790268117001210173017170477A
:1011E00000B503461846FFF761FF08B1FF2000BDB8
:1011F0001978481C18709868405CF8E7002102686C
:10120000117001737047017902290AD001680979C8
:1012100002681170012101730021026851740121DB
:101220000171704710B500290AD00878002807D04E
:1012300005487844FFF7AEF9002801D0002010BD22
:101240000248784410BD00002E0100002601000075
:101250004FF04070E1EE100A7047000054686520BE
:1012600073797374656D2073696D756C74616E65E7
:101270006F75736C7920636F6E74726F6C7320740A
:10128000776F20736572766F732E0A0D4561636800
:1012900020736572766F20686173206120646564D5
:1012A00069636174656420636F6D6D616E64207342
:1012B000637269707420746861742068617320625D
:1012C00065656E207072656C6F616465642E0A0DD1
:1012D00000000000596F75206172652061626C65C5
:1012E00020746F2053544152542C20504155534583
:1012F0002C20616E6420434F4E54494E5545207456
:10130000686520657865637574696F6E2E0A0D4F88
:1013100072206D6F766520656974686572207365EB
:1013200072766F204C454654206F722052494748D0
:1013300054203120706F736974696F6E2E0A0D002E
:10134000701400080000002044000000C4010008E0
:10135000B4140008440000206C060000E0010008FE
:101360001001000043000000F8FFFFFF0040404074
:101370004040404040404141414141404040404068
:101380004040404040404040404040404005020214
:1013900002020202020202020202020202202020D3
:1013A000202020202020200202020202020290902F
:1013B000909090901010101010101010101010102D
:1013C0001010101010101010020202020202888881
:1013D000888888880808080808080808080808088D
:1013E0000808080808080808020202024000000075
:1013F00000000000000000000000000000000000ED
:1014000000000000000000000000000000000000DC
:1014100000000000000000000000000000000000CC
:1014200000000000000000000000000000000000BC
:1014300000000000000000000000000000000000AC
:10144000000000000000000000000000000000009C
:10145000000000000000000000000000000000008C
:10146000000000000000000000000000000000007C
:1014700020252023802124A0202240234022235FF6
:101480005F5F200025202523802124A020224023E7
:101490004022235F5F5F25202122232425202182F3
:1014A0008320A022A0230025202725000000000083
:0414B0000000000038
:040000050800018965
:00000001FF
