:020000040800F2
:1000000030160020310200086D0200086F0200085F
:100010007102000873020008750200080000000069
:10002000000000000000000000000000770200084F
:1000300079020008000000007B0200087D02000831
:100040007F0200087F0200087F0200087F0200088C
:100050007F0200087F0200087F0200087F0200087C
:100060007F0200087F0200087F0200087F0200086C
:100070007F0200087F0200087F0200087F0200085C
:100080007F0200087F0200087F0200087F0200084C
:100090007F0200087F0200087F0200087F0200083C
:1000A0007F0200087F0200087F0200087F0200082C
:1000B0001D0800087F0200087F0200087F02000878
:1000C0007F0200087F0200087F0200087F0200080C
:1000D0007F0200087F0200087F0200087F020008FC
:1000E0007F0200087F0200087F0200087F020008EC
:1000F0007F0200087F0200087F0200087F020008DC
:100100007F0200087F0200087F0200087F020008CB
:100110007F0200087F0200087F0200087F020008BB
:100120007F0200087F0200087F0200087F020008AB
:100130007F0200087F0200087F0200087F0200089B
:100140007F0200087F0200087F0200087F0200088B
:100150007F0200087F0200087F0200087F0200087B
:100160007F0200087F0200087F0200087F0200086B
:100170007F0200087F0200087F02000800000000E4
:100180007F0200087F02000800F002F800F041F84A
:100190000AA090E8000C82448344AAF10107DA45E2
:1001A00001D100F036F8AFF2090EBAE80F0013F0F3
:1001B000010F18BFFB1A43F001031847280900007C
:1001C00048090000103A24BF78C878C1FAD852070D
:1001D00024BF30C830C144BF04680C6070470000C1
:1001E0000023002400250026103A28BF78C1FBD840
:1001F000520728BF30C148BF0B607047642900F028
:10020000A380002070471FB500F066FC1FBD10B52D
:1002100010BD00F04EF91146FFF7F5FF00F000FCAD
:1002200000F06CF903B4FFF7F2FF03BC00F074F9BF
:1002300016481749174B99423CBF50F8042B41F818
:10024000042BF8D314494FF000028B4238BF43F817
:10025000042BFAD3DFF84400016841F47001016017
:10026000BFF34F8FBFF36F8F0D480047FEE7FEE7E8
:10027000FEE7FEE7FEE7FEE7FEE7FEE7FEE7FEE756
:1002800008480949094A0A4B70470000040B000856
:1002900000000020040000203016002088ED00E05F
:1002A0008901000830100020301600203012002094
:1002B000301200200FB41CB5084B06AA7B446946D7
:1002C0000090059800F0DDF804460020694600F033
:1002D000EBF820461CBC5DF814FB0000E9010000AF
:1002E0002DE9F0410E460446002020622046E168D8
:1002F000884730B3252805D0D4E901219047206AEA
:10030000401CF2E7E168204600278847050018D026
:10031000A5F14100192802D820354FF40067324674
:10032000294620462760FFF769FF40B1012804D025
:10033000F61D26F007060836D8E7361DD6E728460C
:10034000DAE7206ABDE8F0812DE9F0410646002495
:1003500010687529314616A510D0AFF3008000282B
:1003600002DA404213A507E031688A0701D512A5D9
:1003700002E0490704D511A5012401E0AFF3008094
:1003800000210A2206F1240709E0B0FBF2FCB0FBD1
:10039000F2F302FB1C00303078541846491C002848
:1003A000F3D123462A463046BDE8F04100F00BB8B1
:1003B000000000002D0000002B00000020000000C5
:1003C0007047704770472DE9F0470D4699469246B1
:1003D000044600F124080168880604D5E06921F08C
:1003E0001001216000E00120A84201DD471B00E070
:1003F0000027A1697A1902EB0900081AA061207888
:10040000C00602D42046AFF30080002608E0D4E9FD
:1004100001211AF806009047206A401C761C2062D1
:100420004E45F4DB2078C0060AD52046AFF30080A5
:1004300006E0D4E9012130209047206A401C206268
:10044000381EA7F10107F4DC07E0D4E9012118F810
:1004500005009047206A401C2062281EA5F1010576
:10046000F3DC2046AFF300802078000602D502209E
:10047000BDE8F0870120FBE701694A1C02610878AA
:10048000704700B58FB0CDE90131002105910549D4
:100490007944CDE9031011466846FFF721FF0FB0FC
:1004A00000BD0000E5FFFFFF0A6802F8010B0A60CB
:1004B0007047754600F02CF8AE4605006946534675
:1004C00020F00700854618B020B5FFF7D9FEBDE83B
:1004D00020404FF000064FF000074FF000084FF0AB
:1004E000000B21F00701AC46ACE8C009ACE8C0093C
:1004F000ACE8C009ACE8C0098D46704710B50446A9
:10050000AFF300802046BDE81040FFF78BBE00002F
:1005100000487047D00F002001491820ABBEFEE70D
:1005200026000200704700000E48C06C40F0010039
:100530000C49C8644FF09040006820F003004FF071
:10054000904108600846006840F0020008600846D4
:10055000006A20F00F0008620846006A40F00100BF
:10056000086270470010024001461B48806D40F051
:100570000100194A90659004006A20F0010092047D
:1005800010621046C162806920F00F009061104631
:10059000806940F0010090611046806920F00A00F7
:1005A00090611046C06840F00200D0601046006ABA
:1005B00040F001001062012050611C20002809DB7E
:1005C00000F01F0301229A4043099B0003F1E0233E
:1005D000C3F8002100BF7047001002402348C06CE0
:1005E00040F012002149C8646FF0300020490860D3
:1005F0000846006840F0100008601D480830006898
:1006000020F030001A49083108600846006840F0C0
:1006100030000860081F006820F00400091F08600F
:1006200013480C30006820F0300011490C3108608C
:100630006FF440300F4908600846006840F480308D
:1006400008600846806820F440308860084680686A
:1006500040F4403088600846406820F4807048606C
:100660000846C06820F44030C8607047001002405F
:100670000004004800100048002006490860486057
:1006800008724FF08040006840F001004FF0804158
:1006900008607047C40F00205E49096821F0070117
:1006A0005C4A11601146096841F0020111605A4923
:1006B000096841F48071584A116000BF56490968C1
:1006C00001F480610029F9D010205349496821F0D4
:1006D000F851514A51601146496841EA0061516040
:1006E0001146096821F08071116000BF4A4909680C
:1006F00001F00071B1F1007FF8D04749C96821F0DD
:100700000301454AD1601146C96841F00201D16038
:100710001146C96821F4FE4141F4A051D16011464F
:10072000C96821F0700141F01001D1601146C9681B
:1007300021F0C061D1601146C96841F08071D1607B
:100740001146096841F08071116000BF32490968A3
:1007500001F000710029F9D02F49896821F00301C7
:100760002D4A91601146896841F00301916000BFF4
:100770002949896801F00C010C29F9D126498968B9
:1007800021F0F001244A91601146896821F4E0616A
:1007900091601146896821F46051916011460968A1
:1007A00021F08061116000BF1B49096801F0806180
:1007B000B1F1806FF8D01849096921F4FE41164A59
:1007C00011611146096941F4C0511161114609696D
:1007D00041F4003111611146096941F48031116120
:1007E0001146096841F08061116000BF0A4909683B
:1007F00001F080610029F9D007498831096821F4A6
:100800004001054AC2F888101146096E41F40011F2
:100810001166704700200240001002400EB54FF0F4
:100820008040006900F00200022808D108480EC884
:10083000684600F01FF906489DE80E000EC04FF014
:100840008040006920F002004FF0804108610EBD39
:10085000C40F00201A48C06C40F008001849C86452
:100860001848006820F4705016490860084600686F
:1008700040F42050086013482030006840F0EE60DB
:100880001049203108600F480830006840F470506B
:100890000C4908310860081D006820F47050091DDB
:1008A00008600846006840F4A05008600548001D34
:1008B000006820F060000349091D086070470000CF
:1008C00000100240000C004800B50D48806D40F457
:1008D00000300B4988650A488830006820F00C0019
:1008E000C1F888000846D0F8880040F00400C1F83C
:1008F0008800FFF7AFFF034800F010F800BD0000CC
:100900000010024000440040642242430723B2FB2F
:10091000F3F100BF4A1E111EFCD17047016821F09F
:1009200001010160016821F010210160016821F4DA
:1009300000410160416821F44051416042F28D0163
:10094000C160016841F00C0101601E4988421BD161
:10095000016841F020010160016821F0400101605F
:10096000016821F010010160016821F0800101603F
:10097000016821F480710160016821F0400101608B
:10098000016821F0010101600F49884209D1016A23
:1009900041F0400101620D49096841F0C0010B4A74
:1009A0001160016841F00101016000BFC16901F4FB
:1009B00000110029FAD000BFC16901F480010029AB
:1009C000FAD07047004C0040004400400838014015
:1009D000F0B504460E46174600250CE000BFE0695E
:1009E00000F080000028FAD0705D20854FF49670EA
:1009F000FFF78AFF6D1CBD42F0D300BFE06900F035
:100A000040000028FAD0E06920F04000E061F0BD2D
:100A10000146024850F821007047000024000020E1
:100A200072B6FFF739FEFFF77FFDFFF7D7FD0C48E1
:100A3000FFF79AFDFFF748FF62B6FFF71DFE0EE0D5
:100A40000020FFF7E5FF05462A4606A10748FFF705
:100A500031FC0446224605490548FFF7B9FFEFE798
:100A600000127A0061203D20256409000400002066
:100A7000004400400FB54FF08041496B9DF80C20B9
:100A800001AB43F822109DF80C10012913D1DDE9C8
:100A90000121891A0D4AB2FBF1F10D4A0D4B1B6879
:100AA00042F823100B490968491C0A4A11600021C9
:100AB0004FF0804251629DF80C1081F001018DF8D9
:100AC0000C1001A90EC980E80E000FBD0064C4041B
:100AD00024000020000000204FF04070E1EE100ADA
:100AE00070470000040B0008000000200400000014
:100AF000C4010008080B0008040000202C160000A8
:080B0000E00100080000000004
:040000050800018965
:00000001FF
