:020000040800F2
:10000000B84400207D020008271D0008BB19000825
:10001000251D0008E1030008492A0008000000002F
:100020000000000000000000000000009D0100082A
:10003000E303000800000000F901000801200008A7
:10004000970200089702000897020008970200082C
:10005000970200089702000897020008970200081C
:10006000970200089702000897020008970200080C
:1000700097020008970200089702000897020008FC
:1000800097020008970200089702000897020008EC
:1000900097020008970200089702000897020008DC
:1000A000970200080521000897020008970200083F
:1000B0001121000897020008970200089702000823
:1000C00097020008970200089702000897020008AC
:1000D00097020008970200083D2A000897020008CE
:1000E000970200089702000897020008970200088C
:1000F000970200089702000897020008970200087C
:10010000970200089702000897020008970200086B
:10011000970200089702000897020008970200085B
:10012000970200089702000897020008970200084B
:10013000970200089702000897020008970200083B
:10014000970200089702000897020008970200082B
:10015000970200089702000897020008970200081B
:10016000970200089702000897020008970200080B
:10017000970200089702000897020008000000009C
:100180009702000897020008DFF80CD000F016F97B
:1001900000480047892E0008B84400202C4B1968FD
:1001A000086800F05AB880F30988BFF36F8F4FF0EA
:1001B000000080F3118870470000000008480068C4
:1001C000006880F308884FF0000080F3148862B65E
:1001D00061B6BFF34F8FBFF36F8F00DF00BF00BF6B
:1001E00008ED00E0DFF80C00016841F470010160E7
:1001F000704700BF88ED00E0EFF30980BFF36F8F19
:10020000134B1A681EF0100F08BF20ED108A20E96A
:10021000F04F106009B44FF0500080F31188BFF325
:100220004F8FBFF36F8F03F0EBFB4FF0000080F3B5
:10023000118809BC1968086800F014B81EF0100F86
:1002400008BF00F014B880F30988BFF36F8F7047C0
:1002500044000020EFF30580704730C8B0E8C04F7D
:10026000FFF7A1BF30C8B0E8C04FFFF7E7BFB0EC61
:10027000088AB0EC08CAFFF7E6BF000006488047CE
:1002800006480047FEE7FEE7FEE7FEE7FEE7FEE77B
:10029000FEE7FEE7FEE7FEE7C1200008890100084F
:1002A0002DE9F05F0546002092469B4688460646AB
:1002B000814640241BE0284641464746224600F03E
:1002C0006CF853465A46C01A914110D3114618464D
:1002D000224600F053F82D1A67EB01084F462246DC
:1002E0000120002100F04AF817EB00094E41201EC2
:1002F000A4F10104DFDC484631462A46434600F0BB
:1003000000B830BCBDE8C09F40EA01039B0703D0A2
:1003100009E008C9121F08C0042AFAD203E011F844
:10032000013B00F8013B521EF9D27047D2B201E006
:1003300000F8012B491EFBD270470022F6E710B5EA
:1003400013460A4604461946FFF7F0FF204610BD43
:1003500030B50B46014600202022012409E021FA95
:1003600002F59D4205D303FA02F5491B04FA02F592
:100370002844151EA2F10102F1DC30BD202A04DB65
:10038000203A00FA02F1002070479140C2F12003A8
:1003900020FA03F3194390407047202A04DB203AE7
:1003A00021FA02F00021704721FA02F3D040C2F195
:1003B000200291400843194670470000064C074D43
:1003C00006E0E06840F0010394E807009847103425
:1003D000AC42F6D3FFF7DCFEB0450008D04500087C
:1003E000FEE7704710B590F825100024022903D0CD
:1003F0000421C16301241AE001680A6822F00E0298
:100400000A6001680A6822F001020A6090F844104C
:10041000036C01F01C02012101FA02F25A6080F81B
:100420002510002180F82410816B01B188472046F7
:1004300010BD00002DE9F84FDFF898B100234FF010
:10044000010C4FF0030A4FF00F090BF1040EB9E055
:100450000CFA03F4224070D04D68022D01D0122D09
:100460000ED1DD0800EB8508D8F820505E07F70EA6
:1004700009FA07F6B5430E69BE402E43C8F820605E
:1004800007685E0091F804800AFA06F508F0030890
:10049000AF4308FA06F848EA0708C0F800804F683A
:1004A000012F05D0022F03D0112F01D0122F13D10D
:1004B000D0F80880CF6828EA0508B74047EA08075F
:1004C0008760D0F804800F7928EA0408C7F3001782
:1004D0009F4047EA08074760D1F804806FEA0807A1
:1004E000BF0706D1C76AA743C8F3C0049C403C437A
:1004F000C462C468AC438D68B5402543C5604C6890
:10050000E4005ED5344C256E45F001052566246E69
:1005100023F0030504F001040094304C2E19B46854
:100520009D072F0F09FA07F5AC43B0F1904F05D0A6
:100530002B4DA84204D101251CE042E0002519E022
:10054000284DA84201D1022514E0274DA84201D12F
:1005500003250FE0254DA84201D104250AE0244DD2
:10056000A84201D1052505E0224DA84201D106256A
:1005700000E00725BD402543B560DBF800405D463F
:100580004E689443F60300D514432C60DEF8004017
:1005900075464E689443B60300D514432C600D4D48
:1005A00008352C684E689443F60200D514432C603D
:1005B000084D0C352C684E689443B60200D51443A0
:1005C0002C605B1C0A6832FA03F57FF441AF00F03F
:1005D00013B8000000040140001002400000014078
:1005E0000004004800080048000C004800100048C3
:1005F000001400480018004818BCBDE8E08F0AB19C
:10060000816170478162704701480068704700004F
:100610003C00002002480168491C0160704700004E
:100620003C000020094810B50168002441F48071A5
:100630000160032000F08CF8002000F009F808B1F8
:10064000012401E000F03EF8204610BD00200240E9
:1006500000B5014687B00022192000F059F8192092
:1006600000F04AF81348016E41F400610166006E23
:1006700005A900F400600690684600F01BFB00F03E
:100680004BFB0D490D4AB0FBF1F10D48491E0260CC
:10069000416040F2E7320021C0E90321816000F0AF
:1006A00033FE10B1012007B000BD054800F064FE24
:1006B000F9E700000010024040420F00002C01400A
:1006C000740100200B4882B0016E41F00101016607
:1006D000016E01F001010091816D41F08051816551
:1006E000806D002200F0805000900F21901E02B01B
:1006F00000F00EB80010024000F01F0201219140EE
:100700004009800000F1E020C0F8001170470000AF
:10071000F0B40E4B1B680C46C3F30223C3F107056C
:10072000042D00D90425191D072901D2002300E05A
:10073000DB1E012606FA05F1491E214099409E4024
:10074000761E16403143F0BC01F0EEBA0CED00E02D
:10075000064900F0070208684FF6FF03184040EA18
:100760000220034A10430860704700000CED00E0CF
:100770000000FA051649B0F5007F0868C0F3412073
:1007800009D0022805D0086820F4C06040F48060D9
:100790000860002070470128FBD0086820F4C06082
:1007A00040F4007008600B483222006850430A4A47
:1007B000B0FBF2F0401C00E0401E4A69520501D532
:1007C0000028F9D148694005E3D5032070470000AF
:1007D000007000404000002040420F0002480068C6
:1007E00000F4C06070470000007000402DE9F84F31
:1007F000044600270088E54D3E46010504F1200B24
:100800001DD5606E78B1B0F5800F11D0B0F5000F36
:1008100004D0B0F5400F22D001270FE0E86840F483
:100820008030E8601BE00021201D01F08DFA03E01C
:100830000021584601F01EFB070010D03E462088DC
:10084000C00426D5A06EC0B1B0F1807F1AD0B0F13F
:10085000007F0DD0B0F1407F19D0012718E0D5F806
:100860008800616E20F440000843C5F88800E6E780
:10087000E86840F48030E86009E00021201D01F0C4
:1008800063FA03E00021584601F0F4FA0746F7B195
:100890003E46206880033AD5A86D4FF00008C0009E
:1008A00009D4A86D40F08050A865A86D4FF00108EC
:1008B00000F080500090DFF8D8A2DAF8001041F480
:1008C0008071CAF80010FFF79FFE814610E0D5F84E
:1008D0008800A16E20F040700843C5F88800D8E772
:1008E000FFF792FEA0EB0900022801D9032705E0DB
:1008F000DAF80000C005F3D5002F7CD04FEA0706D8
:10090000B8F1000F03D0A86D20F08050A8652078C2
:10091000C00707D0D5F88800A16B20F0030008437A
:10092000C5F888002078800707D5D5F88800E16BE6
:1009300020F00C000843C5F888002078400707D550
:10094000D5F88800216C20F030000843C5F88800F5
:100950002078000707D5D5F88800616C20F0C0002A
:100960000843C5F888002078C00607D5D5F8880068
:10097000A16C20F440700843C5F8880020788006F8
:1009800007D5D5F88800E16C20F440600843C5F82D
:1009900088002088800507D5D5F88800E16D20F40F
:1009A00040200843C5F888002088400507D5D5F8C1
:1009B0008800216E20F440100843C5F88800207894
:1009C000400607D5D5F88800216D20F44050084333
:1009D000C5F888002078000607D5D5F88800616D35
:1009E00020F440400843C5F888002088C00509D598
:1009F000D5F8880000E01CE0A16D20F440300843E9
:100A0000C5F8880020884FF0006780044FF08068A8
:100A10004FD5D5F88800E16E20F040600843C5F856
:100A20008800E06EB8423CD1E86840F48010E8608D
:100A30003FE0D5F8900010F4407015D0D4F8841041
:100A4000814211D0D5F89000D5F8901020F4407074
:100A500041F48031C5F89010D5F8901021F4803120
:100A6000C5F89010C5F89000C00710D0FFF7CCFD76
:100A7000074641F2883906E0FFF7C6FDC11B49452C
:100A800001D903263CE7D5F890008007F4D5D5F8C6
:100A90009000D4F8841020F440700843C5F890000A
:100AA0002EE7404505D10121201D01F04DF900B18F
:100AB00006462068000317D5D5F88800216F20F07E
:100AC00040600843C5F88800206FB84204D1E86848
:100AD00040F48010E86007E0404505D10121201D69
:100AE00001F032F900B106462068400317D5D5F869
:100AF0008800616F20F040600843C5F88800606F8F
:100B0000B84204D1E86840F48010E86007E040454E
:100B100005D10121201D01F017F900B106462088FA
:100B200040041AD5D5F88800A16F20F04050084342
:100B3000C5F88800A06FB0F1805F03D0B0F1005F0E
:100B400005D00AE00221201D01F0FEF803E0022199
:100B5000584601F08FF900B106462088000407D5F9
:100B6000D5F88800E16F20F080400843C5F8880080
:100B70002068C00307D555F8880FD4F8801020F0FE
:100B8000004008432860304600F004B800100240DE
:100B90000070004018BCBDE8E08F00002DE9F04770
:100BA0000F46050058D03F4E306800F00700B842AD
:100BB00009D2306820F0070038433060306800F018
:100BC0000700B84248D12878374CC0072CD0686855
:100BD000032811D0022812D0216898B149050029B4
:100BE0003ADAA16821F003010143A160FFF70CFD8F
:100BF000804641F2883910E021688901EFE72168D9
:100C00008903ECE78907EAE7FFF7FEFCA0EB0801A0
:100C1000494502D90320BDE8F087A068696800F063
:100C20000C00B0EB810FEFD12878800705D5A068C4
:100C3000A96820F0F0000843A060306800F00700C9
:100C4000B8420BD9306820F0070038433060306874
:100C500000F00700B84201D00120DCE72878400707
:100C600005D5A068E96820F4E0600843A060287812
:100C7000000706D5A068296920F4605040EAC10049
:100C8000A06000F05BF8A168084AC1F30311515C51
:100C900001F01F01C84006490860BDE8F047002088
:100CA000FFF7D6BC00200240001002405C4500085F
:100CB000400000200F2202600C4A936803F00303F7
:100CC0004360936803F0F0038360936803F4E06388
:100CD000C36092684FF4E06303EAD2020261044801
:100CE000006800F007000860704700000010024034
:100CF000002002400548064900688968054AC1F39A
:100D00000221515C01F01F01C840704740000020E3
:100D1000001002409C4500080548064900688968A3
:100D2000054AC1F3C221515C01F01F01C840704760
:100D300040000020001002409C45000870B5254985
:100D4000002318468A68CC6812F00C0204F00306EF
:100D5000214C4FEA640509D00C2A05D0042A26D07C
:100D6000082A00D1284670BD012E10D10B681B0740
:100D700004D4D1F89430C3F3032302E00B68C3F327
:100D80000313164E56F823307AB10C2AEBD1C868FB
:100D900000F00302C868C0F30210401C022A08D009
:100DA000032A09D0B3FBF0F008E0184670BD2046D6
:100DB00070BDB4FBF0F001E0B5FBF0F0CA68C968A3
:100DC000C2F306225043C1F34161491C4900B0FB04
:100DD000F1F070BD001002400024F4006C450008E2
:100DE0002DE9F84305007CD0FD4CA06800F00C060E
:100DF000E06800F003072878C00661D576B10C2EB4
:100E000001D1012F0AD0A8690028206878D040F0CD
:100E100001002060FFF7F8FB804659E0206880075A
:100E200002D5A8690028DED0286A2168090703D501
:100E3000216801F0F00104E0D4F89410F02202EAF5
:100E40001111884215D901F099F8002849D120687C
:100E500040F0080020602068296A20F0F000084374
:100E600020606068E96920F47F4040EA012060600A
:100E700015E0206840F0080020602068296A20F012
:100E8000F000084320606068E96920F47F4040EA90
:100E900001206060286A01F071F80028D6D1FFF7C0
:100EA0004DFFA168CF4AC1F30311515C01F01F014E
:100EB000C840CD4908600020FFF7CAFB00287DD15B
:100EC0002FE000BFFFF7A0FBA0EB0800022876D8B8
:100ED00020688007F6D5206840F008002060206870
:100EE00001E0BBE00CE0296A20F0F000084320603C
:100EF0006068E96920F47F4040EA0120606010E00A
:100F000020F001002060FFF77FFB804606E000BF75
:100F1000FFF77AFBA0EB08000228D8D820688007EA
:100F2000F6D42878C00740D0082E18D00C2E01D156
:100F3000032F14D06868B0F5803F17D0B0F5A02F0C
:100F4000206817D020F480302060206820F48020B2
:100F500020606868E0B1FFF757FB804614E0206826
:100F6000800322D56868002878D01EE0206840F40D
:100F70008030EDE740F480202060F7E7FFF744FB86
:100F8000A0EB08006428A2D820688003F6D50CE006
:100F9000FFF73AFB804605E0FFF736FBA0EB0800C1
:100FA000642894D820688003F6D4287880073BD53D
:100FB000042E11D00C2E04D1022F01E036E1A1E065
:100FC0000AD0E868002820681ED040F480702060B5
:100FD000FFF71AFB07460CE0206840050CD5E868CF
:100FE0000028C1D008E000BFFFF70EFBC01B02289D
:100FF00093D820684005F7D56068297C20F0F85028
:1010000040EA016060600FE020F480702060FFF72C
:10101000FBFA074605E000BFFFF7F6FAC01B0228FF
:1010200070D820684005F7D42878000729D568696A
:101030000028D4F8940012D040F00100C4F89400C5
:10104000FFF7E2FA074604E0FFF7DEFAC01B0228CA
:1010500058D8D4F894008007F6D512E0EDE020F0DF
:101060000100C4F89400FFF7CFFA074605E000BF7F
:10107000FFF7CAFAC01B022844D8D4F894008007AE
:10108000F6D42878400768D5A06D0027C00008D4A2
:10109000A06D40F08050A065A06D012700F0805049
:1010A000009052480168C90512D40168814641F494
:1010B00080710160FFF7A8FA804605E0FFF7A4FA07
:1010C000A0EB080002281DD8D9F80000C005F5D50E
:1010D000A868012817D00528D4F8900018D020F06F
:1010E0000100C4F89000D4F8900020F0040000BF84
:1010F000C4F89000A86841F28839D0B1FFF784FAAB
:10110000804611E06BE0D4F8900040F00100EFE77A
:1011100040F00400C4F89000F5E700BFFFF774FA50
:10112000A0EB080149455AD8D4F890008007F5D5BE
:101130000EE0FFF769FA804606E000BFFFF764FAA9
:10114000A0EB0801494570D8D4F890008007F5D489
:101150001FB1A06D20F08050A065A86AF0B30C2EDE
:101160006BD00228206820F08070206004D02068B6
:1011700010F0205F47D04AE0FFF746FA064604E049
:10118000FFF742FA801B02284FD820688001F7D46D
:10119000286BE96A000110380843696BAA6B0902E1
:1011A000120941EA42410843A98F114A490802EB5A
:1011B0004151084395F840104908120102EB416182
:1011C0000843E060206840F080702060E06840F0F4
:1011D0008070E060FFF718FA054610E02BE024E08D
:1011E000001002405C4500084000002000700040F4
:1011F0000000E0FFFFF708FA401B022815D820681E
:101200008001F7D517E0E06820F00300E060E068B7
:101210000B490840E060FFF7F7F9054608E000BF1A
:10122000FFF7F2F9401B022802D90320BDE8F8833A
:1012300020688001F4D40020F8E70120F6E70000E0
:10124000FFFFEEFE70B5040003D06079002510B1F9
:1012500005E0012070BD2571204600F00DF8022048
:1012600060712068016841F0040101600120607133
:10127000A560002070BD000008B5006806498842DE
:1012800008D10648C16C41F48021C164C06C00F4EF
:101290008020009008BD00000008065000100240A9
:1012A000704770477047000070B590F83C20012AE5
:1012B00024D0012480F83C40022280F83D200268BE
:1012C000536895680E4EB24202D00E4EB24203D120
:1012D00023F470064B68334323F070060B6889686B
:1012E000334325F08005294353600268916080F8FC
:1012F0003D40002180F83C10084670BD022070BDC2
:10130000002C01400034014010B5040003D094F8D3
:101310003D0010B107E0012010BD002084F83C0022
:10132000204600F00DF8022084F83D00211D2068C1
:1013300000F0F4FE012084F83D00002010BD000004
:1013400008B50068B0F1804F12D10A48816D41F0B4
:1013500001018165806D002200F0010000900521EF
:101360001C20FFF7D5F9BDE808401C20FFF7C4B9E1
:1013700008BD0000001002400168CA6842F0010286
:10138000CA600068826807490A40062A08D0826855
:101390000A40B2F5803F03D0016841F001010160CD
:1013A000002070470700010070B5044690F83C002B
:1013B000012817D0012584F83C50022084F83D0014
:1013C00020688268324E324022F47F428260086890
:1013D000502839D00DDC202855D005DC98B31028D2
:1013E00043D150E0022070BD30284CD040283CD181
:1013F00041E0602830D070280CD0B0F5805F03D079
:10140000B0F5005F31D112E020688168204A703267
:10141000114016E0CB68D1E90121206800F0DEFE22
:1014200021688868304040F0770088601DE0CB6814
:10143000D1E90121206800F0D1FE2068816841F4E3
:101440008041816011E01EE0CA684968206801F0AF
:101450005FF85021206806E0CA684968206801F0FA
:1014600068F86021206800F0C3FE84F83D50002039
:1014700084F83C0070BDCA684968206801F048F8EB
:1014800040212068EFE7226801461046EBE70000A4
:1014900088FFFEFF704770B50446006801694FF091
:1014A0000005C943890715D4C168C943890711D408
:1014B000E91E0161012020772068806980072046AD
:1014C00002D0FFF7E7FF04E000F0E0F8204600F06C
:1014D000FAF8257720680169C943490717D4C1681C
:1014E000C943490713D46FF004010161022020773A
:1014F0002068806910F4407F204602D0FFF7CAFFC1
:1015000004E000F0C3F8204600F0DDF825772068FD
:101510000169C943090716D4C168C943090712D430
:101520006FF008010161042020772068C0698007FE
:10153000204602D0FFF7AEFF04E000F0A7F82046F7
:1015400000F0C1F8257720680169C943C90617D49E
:10155000C168C943C90613D46FF0100101610820A6
:1015600020772068C06910F4407F204602D0FFF742
:1015700091FF04E000F08AF8204600F0A4F82577F7
:1015800020680169C943C90708D1C168C943C907AF
:1015900004D1891E0161204600F096F82068016997
:1015A000C943090609D4C168C943090605D46FF0C7
:1015B000800101612046FFF774FE20680169C9437C
:1015C000C90509D4C168C943090605D46FF48071FF
:1015D00001612046FFF764FE20680169C94349069E
:1015E00009D4C168C943490605D46FF040010161BF
:1015F000204600F073F820680169C94389060BD4BE
:10160000C168C943890607D46FF0200101612046F3
:10161000BDE87040FFF746BE70BD70B5044690F857
:101620003C0001280ED0012584F83C50022084F8AB
:101630003D000C2A19D007DC5AB1042A0DD0082A23
:101640001ED10EE0022070BD102A12D0142A17D12C
:1016500013E0206800F0D4FD12E0206800F01EFEC8
:101660000EE0206800F062FE0AE0206800F0A6FEAE
:1016700006E0206800F0DCFE02E0206800F010FFC9
:1016800084F83D50002084F83C0070BD704710B5D0
:10169000040003D094F83D0010B107E0012010BD14
:1016A000002084F83C00204600F00CF8022084F86A
:1016B0003D00211D206800F031FD012084F83D002F
:1016C000002010BD7047704700680349884201D16F
:1016D000FEF7A0BF70470000002C01407047704724
:1016E000704700002DE9F04102680446D069116896
:1016F000936810F00F0F4FF000055BD003F0010668
:1017000001F49077374369D0C70707D0CF0505D5D7
:1017100001271762626F42F001026267820708D5F3
:10172000DA0706D0276802223A62626F42F00402AA
:101730006267420708D5DA0706D0236804221A62D6
:10174000626F42F00202626702070AD501F02002CE
:10175000324306D0236808221A62626F42F0080200
:101760006267626F002A32D0800605D5880603D5ED
:10177000216E09B120468847606F000703D42068B6
:101780008068400625D5204600F0C6FF20688168A5
:10179000490619D5816821F040018160E06E98B159
:1017A00020498163E06EFEF71DFE00280FD0E06E39
:1017B000816B06E0860611D58E060FD5216E1EE0E0
:1017C0002046BDE8F04108472046FFF789FFBDE805
:1017D000F0812046FFF784FF6567F8E7C60209D568
:1017E0005B0207D54FF4801010622046BDE8F0413F
:1017F000FFF775BF030605D50B0603D5616E0029FB
:10180000DED1E4E74006E2D54806E0D5116820467F
:1018100021F040011160202184F87110656600F00C
:10182000CBF8D4E70527000810B5040003D094F8DE
:10183000710010B107E0012010BD002084F8700095
:10184000204600F027F8242084F871002068016801
:1018500021F001010160204600F06EFF0128EBD06D
:10186000606A10B1204600F0BBFE2068416821F498
:10187000904141602068816821F02A0181602068E0
:10188000016841F0010101602046BDE8104000F010
:101890000BBF000010B586B0044614216846FEF761
:1018A0004CFD16492068884226D11548816D41F4C7
:1018B00000318165816D01F400310591C16C41F009
:1018C0000801C164C06C694600F008000590602002
:1018D0000090022001900120029003200390072035
:1018E00004900848FEF7A6FD002205212620FEF7F9
:1018F0000FFF2620FEF700FF06B010BD0044004099
:1019000000100240000C00482DE9F843044690F80E
:1019100071001F4616460D4620284BD1C5B1BEB1F9
:1019200094F87000012845D0012084F870004FF031
:101930000008C4F87480212084F87100FEF764FE6A
:10194000A4F850608146A4F852604FF4805615E028
:101950000120BDE8F8838021204601F03DF8D8B988
:10196000A068B04201D12069C0B115F8010B21680F
:101970000885B4F85200401EA4F85200B4F8520092
:101980004B464FF0000200970028E4D14FF0400191
:10199000204601F021F830B10320DAE735F8020BD8
:1019A000C0F30800E3E7202084F8710084F8708019
:1019B0000020CEE70220CCE77047FEE72DE9F04F8C
:1019C00087B014216846FEF7B8FCA848C16C41F006
:1019D0001001C164C16C01F010010591C16C41F0AE
:1019E0000401C164C16C01F004010591C16C41F0B6
:1019F0008001C164C16C01F080010591C16C41F0AE
:101A00000101C164C16C01F001010591C16C41F09B
:101A10000201C164C16C01F002010591C16C41F089
:101A20000801C164C06C002200F00800059040F27B
:101A300009118F48FEF7E3FD00220C218D48FEF7C7
:101A4000DEFD012251028C48FEF7D9FD00224FF441
:101A500000618948FEF7D3FD002280218748FEF708
:101A6000CEFDF420009001A902200024032681E885
:101A700051000D20049069467D48FEF7DBFC0820EC
:101A80000125CDE900050220CDE9024069467848EC
:101A9000FEF7D0FC7A4F4FF41050CDE900076946AD
:101AA00002947548FEF7C6FC0720CDE9000469469C
:101AB00071480294FEF7BEFC4FF4FC7000900220C7
:101AC000CDE901044FF00B08CDE9034869466A48A7
:101AD000FEF7B0FC2F20CDE90004022002906946F9
:101AE000B802FEF7A7FC1020CDE900076946029472
:101AF000B802FEF79FFC48F2C07000900220CDE9CA
:101B00000104CDE903486946B802FEF793FC4FF2A1
:101B1000332000900220CDE90104CDE90348694655
:101B20005448FEF787FC4FF00409CDE90095CDE954
:101B3000025669464F48FEF77DFC2802CDE90005B4
:101B4000CDE9025669464A48FEF774FC68020090E7
:101B50000220CDE901040D20CDE903406946444847
:101B6000FEF768FC4FF47C40009001AA02204FF081
:101B70000A0A82E8510469463D48FEF75BFCB00260
:101B80004FF0120BCDE9000B02AA694682E8600211
:101B90003848FEF74FFC4FF47F4000900220CDE91B
:101BA0000104CDE9034869463448FEF743FC4FF48D
:101BB00020600090CDE9015469462F480394FEF758
:101BC00039FCF002009001AA022082E85104694623
:101BD000B802FEF72FFC4FF00508CDF80080CDE9E4
:101BE000017469462548FEF725FC1A20009001AAD9
:101BF000022082E8510169462048FEF71BFC802044
:101C0000CDE90005CDE9024669461C48FEF712FC05
:101C100008200090CDE90154694616480394FEF768
:101C200009FCC020CDE9000B02AA694682E86002E7
:101C30001048FEF7FFFB2802CDE900076946029431
:101C40000C48FEF7F7FB0095CDE9015469460848BA
:101C50000394FEF7EFFB0220CDE9000769460294EA
:101C60000348FEF7E7FB07B000F00CB80010024095
:101C7000001000480004004800080048000C00481C
:101C80000000121030BCBDE8C08F000010B58EB04F
:101C900000240794089409940A940B940C941C2132
:101CA00068460D94FEF749FB12484FF08041C0E9A9
:101CB00000148460C46004618461FFF725FB4FF465
:101CC0008050079007A90B48FFF76EFB0948FFF704
:101CD000DEFC0B940BA907480D94FFF7E5FA00947E
:101CE000019402940022694602480494FFF795FC8F
:101CF0000EB010BDBC0000200948084901604FF437
:101D000016514160002181600C22C160C0E90412BB
:101D10008161C16101624162FFF786BD00440040FC
:101D2000FC000020FEE770470907090E002806DACC
:101D300000F00F0000F1E02080F8141D704700F162
:101D4000E02080F8001470472DE9F041444C05462E
:101D50008846E0680026810728680DD0E16801F018
:101D60000301814216D1A8B1E0686968C0F302108E
:101D7000401C88420ED120E0012804D0022805D062
:101D8000032807D108E02168890701E02168490597
:101D9000002907DB01265FE02168890302D421685E
:101DA0004903F5E7E1686A686FF00F0321F07301FA
:101DB00003EB021211430143E160206820F08060D0
:101DC0002060FEF721FC074605E000BFFEF71CFC83
:101DD000C01B022837D820680001F7D4B8F1000FE3
:101DE00018D0B8F1010F1ED0287D4FF07E41400879
:101DF00001EB4060A96840EA01202169194A1140BD
:101E000008432061206840F080602060FEF7FCFB02
:101E100007461AE0A868E9680002090940EA41405B
:101E20002169114AEBE7288A1049400801EB40502C
:101E3000A96840EA012021690D4AE0E7FEF7E4FBCA
:101E4000C01B022801D9032606E020680001F5D551
:101E50002069A969084320613046BDE8F08100008F
:101E600000100240FF80FFF9FF80FDFF0000E0FF4F
:101E7000FF809FFF2DE9F0413D4C06468846E06813
:101E80000025810730680DD0E16801F0030181422F
:101E900016D1A8B1E0687168C0F30210401C8842F6
:101EA0000ED120E0012804D0022805D0032807D154
:101EB00008E02168890701E021684905002907DB5E
:101EC000012551E02168890302D421684903F5E71F
:101ED000E16872686FF00F0321F0730103EB0212E7
:101EE00011430143E160206820F080502060FEF73C
:101EF0008BFB074605E000BFFEF786FBC01B0228F0
:101F000029D820688000F7D4B8F1000F15D0307CB4
:101F10004FF07E41400801EB4060B16840EA01208B
:101F20006169144A114008436061206840F08050A4
:101F30002060FEF769FB07460FE0B068F168000219
:101F4000090940EA414061690B4AEBE7FEF75CFB97
:101F5000C01B022801D9032506E020688000F5D5C2
:101F600060697169084360612846BDE8F08100003E
:101F700000100240FF80FFF9FF80FDFFF8B51C4D07
:101F800006460024A86DC00002D5FEF727FC0DE030
:101F9000A86D40F08050A865A86D00F080500090BA
:101FA000FEF71CFCA96D21F08051A965B0F5007FFA
:101FB00004D0802E07D94FF003040AE0802E08D900
:101FC000A02E01D804E001D1022402E0702E00D13D
:101FD00001240848016821F00701214301600068DD
:101FE00000F00700A04201D00120F8BD0020F8BD9C
:101FF0000010024000200240012001F01BF8FBE726
:1020000010B5502080F31188BFF34F8FBFF36F8F4F
:1020100002F004F918B104494FF080500860002024
:1020200080F3118810BD000004ED00E02DE9F041BF
:10203000B8B0442122A8FEF780F9142133A8FEF796
:102040007CF988216846FEF778F901240025CDE95E
:1020500028454FF010080226CDF888806020CDE991
:102060002C642A9028200727CDE92E40CDE9307630
:10207000329622A8FEF7B4FE0F2033900320CDE95C
:1020800034053695042133A83795FEF787FD0B48B4
:102090000F95009040061D9001948011CDE90660D7
:1020A000CDE90476CDE902486846FEF79FFB600261
:1020B000FEF760FB38B0BDE8F081000002000400CC
:1020C0000D48016841F4700101600C48016841F05D
:1020D00001010160002181600268094B1A40026021
:1020E0008214C260026822F4802202608161024987
:1020F000C00380390860704788ED00E0001002409E
:10210000FFFFF6EA0148FFF7C6B90000740100209E
:102110000148FFF7C0B90000BC0000202DE9F047DE
:102120000268264B264D274E274F284C4FF0804AF9
:10213000984209D0504507D0A84205D0B04203D0FC
:10214000B84201D0A04204D122F0700C4A6842EAA1
:102150000C02DFF87CC0DFF87C80DFF87C909842CE
:102160000FD050450DD0A8420BD0B04209D0B84294
:1021700007D0A04205D0604503D0404501D0484576
:1021800003D122F44075CA682A434D6922F08002C7
:102190002A4302608A68C2620A688262984207D053
:1021A000A04205D0604503D0404501D0484501D14B
:1021B0000969016301214161BDE8F087002C0140FC
:1021C0000004004000080040000C004000340140C2
:1021D00000400140004401400048014010B58468BF
:1021E00042EA032224F47F440A432243826010BD62
:1021F000826822F070020A4342F007018160704752
:102200002DE9F043026A22F001020262056A436886
:1022100082691C4C25F0020522400C6822F0030262
:1022200014438A68194E2A43174D194FDFF864C0CA
:10223000DFF86490A84207D0B04205D0B84203D07E
:10224000604501D0484506D122F00808CA6842EA34
:10225000080222F00402A84207D0B04205D0B842DA
:1022600003D0604501D0484505D14D6923F4407342
:102270001D438B692B43436084614968416302625B
:10228000BDE8F0838FFFFEFF002C014000340140C9
:10229000004001400044014000480140F0B5026A9E
:1022A00022F010020262056A42688369194C1B4ED3
:1022B00023400C6823F4407343EA042425F02003F0
:1022C0008D6843EA0513144DA84201D0B04206D1EF
:1022D000CF6823F0800343EA071323F04003A842AA
:1022E0000AD0B04208D00E4DA84205D00D4DA842EC
:1022F00002D00D4DA84207D14D6922F4406242EA56
:1023000085028D6942EA8502426084614968816381
:102310000362F0BDFF8FFFFE002C0140003401403E
:10232000004001400044014000480140F0B5026A0D
:1023300022F480720262056A4368C269194C1B4E1E
:1023400022400C6822F00302144325F400728D68C9
:1023500042EA0522144DA84201D0B04206D1CF680E
:1023600022F4006242EA072222F48062A8420AD0E4
:10237000B04208D00E4DA84205D00E4DA84202D062
:102380000D4DA84207D14D6923F4405343EA05138C
:102390008D6943EA05134360C4614968C163026201
:1023A000F0BD00008FFFFEFF002C01400034014013
:1023B00000400140004401400048014030B5026A3D
:1023C00022F480520262046A4268C369124D24F406
:1023D00000542B400D6823F4407343EA05238D68B5
:1023E00044EA05340D4DA8420BD00D4DA84208D04B
:1023F0000C4DA84205D00C4DA84202D00B4DA8426E
:1024000004D14D6922F4804242EA85124260C361E0
:1024100049680164046230BDFF8FFFFE002C01405B
:1024200000340140004001400044014000480140A8
:1024300030B5026A22F480320262046A4268436D57
:10244000114D2B400D681D4324F400330C8943EAE1
:1024500004430E4CA0420BD00D4CA04208D00D4CB2
:10246000A04205D00C4CA04202D00C4CA04204D19A
:102470004C6922F4803242EA042242604565496890
:102480008165036230BD00008FFFFEFF002C01401C
:102490000034014000400140004401400048014038
:1024A00030B5026A22F480120262046A4268436D07
:1024B000114D24F400142B400D6843EA05230D89C7
:1024C00044EA05540D4DA8420BD00D4DA84208D04A
:1024D0000C4DA84205D00C4DA84202D00B4DA8428D
:1024E00004D14D6922F4802242EA8522426043658C
:1024F0004968C165046230BDFF8FFFFE002C0140BA
:1025000000340140004001400044014000480140C7
:1025100010B5036A046A24F001040462846924F09B
:10252000F00444EA021423F00A020A4384610262BE
:1025300010BD10B5036A23F0100303628369046AB7
:1025400023F4704343EA023224F0A00343EA01116A
:102550008261016210BD00001E48816D41F00201E0
:102560008165C16C41F00401C1641B48016821F020
:102570004001016018482030016841F040010160CD
:102580001648016821F011010160144820380168E3
:1025900021F001010160114A4EF660210C321160F8
:1025A000121F4FF4FA5111600C490C390A6842F0BD
:1025B00001020A60016841F0040101600749143911
:1025C0000A6842F001020A60016841F001010160FD
:1025D000704700000010024000080048200400403E
:1025E00090F82410C90706D001684A68836A22F46B
:1025F00000321A434A6090F82410890706D5016812
:102600004A68C36A22F480321A434A6090F8241060
:10261000490706D501684A68036B22F480221A43F1
:102620004A6090F82410090706D501684A68436B90
:1026300022F400421A434A6090F82410C90606D5D5
:1026400001688A68836B22F480521A438A6090F88A
:102650002410890606D501688A68C36B22F40052EB
:102660001A438A6090F82410490611D501684A6817
:10267000036C22F480121A434A60016CB1F5801F8A
:1026800006D101684A68436C22F4C0021A434A60CA
:1026900090F82410090606D501684A68806C22F477
:1026A000002202434A607047F8B500260446466798
:1026B000FDF7AAFF0546206800686FF07E47000717
:1026C00008D52B4600224FF400112046009700F059
:1026D00083F960B92068006840070AD52B460022BC
:1026E0004FF480012046009700F076F908B10320EE
:1026F000F8BD202084F8710084F8720084F87060BE
:102700000020F8BD10B5806A0021A0F85A10A0F88A
:102710005210FEF7E5FF10BD01680A6822F49072BE
:102720000A6001688A6822F001028A60202180F82C
:1027300072100021016670472DE9F04104460168DE
:1027400080682369E66918436369102500273343CD
:102750001843954A0B68954E334003430B6020683D
:102760004168E36821F44051194341602168A06940
:10277000914201D0236A18438B6823F430630343EA
:102780008B608B4B21688B4899420DD1D0F8880023
:1027900010F0030006D001285AD0022856D0032892
:1027A00059D157E0012556E0834B99420BD1D0F81F
:1027B000880010F00C0047D0042849D0082845D0E4
:1027C0000C2848D146E07D4B99420BD1D0F88800C7
:1027D00010F0300038D010283AD0202836D03028D9
:1027E00039D137E0764B99420BD1D0F8880010F000
:1027F000C00029D040282BD0802827D0C0282AD13B
:1028000028E0704B99420ED1D0F8880010F4407047
:102810001AD0B0F5807F1BD0B0F5007F16D0B0F590
:10282000407F18D116E0914215D1D0F8880010F4FD
:10283000406009D0B0F5806F0AD0B0F5006F05D0C8
:10284000B0F5406F07D105E0002504E0022502E065
:10285000042500E008255C4B00264FF4004091421F
:102860003DD135B1022D07D0042D07D0082D10D150
:1028700007E0FEF73FFA03E0184602E0FEF75EFAD3
:10288000A8B3626802EB4201814202D8B0EB023F7A
:1028900001D9012775E0DFF834815DB1022D0CD03C
:1028A000042D13D0082DF4D150082905401846F105
:1028B000000105E0FEF71EFA0AE050084449F5E77A
:1028C0000023FDF7EDFCA0F5407156E0FEF736FA67
:1028D0006268010E0302500818187141F0E7E169BF
:1028E0004FF6EF7881422FD1092DD2D200E048E097
:1028F000DFE805F006092005230505052600C8E7E1
:10290000FEF7F8F901E0FEF707FA4100D4F80400F9
:1029100001EB5001B1FBF0F080B2A0F11001414594
:10292000B7D84FF6F0710140C0F342000143206870
:10293000C16026E027496068EAE7FEF7FFF9E4E7AF
:102940004FF480316068E3E7092DA2D2DFE805F09B
:1029500006091E052205050525009AE7FEF7CAF9B6
:1029600001E0FEF7D9F90146606801EB500100BFB4
:10297000B1FBF0F080B2A0F11001414589D8216887
:10298000C860266638466666BDE8F081606803EB7D
:102990005001EDE7FEF7D2F9E5E7616800EB510081
:1029A000B0FBF1F0E6E7000000800040F369FFEFC4
:1029B0000038014000100240004400400048004040
:1029C000004C0040005000400024F400FFFC0F00C9
:1029D000000024F40048E8012DE9F041984617462C
:1029E0000E460446069D1DE0681C1BD02DB1FDF768
:1029F0000BFEA0EB0800A84214D92068016821F45E
:102A0000D07101602068816821F00101816020207F
:102A100084F8710084F87200002084F870000320AC
:102A2000BDE8F0812068C06936EA000004D00020CB
:102A3000B842D9D00020F3E70120F9E70148FEF7BA
:102A400051BE0000FC000020FEE700000FB4084B60
:102A500010B504A902AA039800F01CF8044602A9C4
:102A6000002000F0BBF9204610BC5DF814FB00000C
:102A7000DD2D000802E008C8121F08C1002AFAD1A3
:102A800070477047002001E001C1121F002AFBD1EE
:102A9000704700002DE9FF4F8BB0884605460026A1
:102AA00006E025280BD0DDE90D1290476D1C761C41
:102AB00028780028F5D10FB0304600F063B9002423
:102AC000A146A2460122AE4900E0044315F8013FA9
:102AD000203B02FA03F00842F7D128782A2810D0C8
:102AE0006FF02F022878A0F13001092915D809EBE1
:102AF000890102EB410144F0020400EB01096D1C65
:102B0000F0E758F8041B5FEA010903D544F40054C8
:102B1000C9F1000944F002046D1C28782E2817D151
:102B200015F8010F44F004042A280ED06FF02F028C
:102B30002878A0F1300109290AD80AEB8A0102EBB2
:102B4000410100EB010A6D1CF2E758F804AB6D1C63
:102B500028786C280FD006DC4C2817D068280DD0B8
:102B60006A2814D104E0742810D07A280FD10DE01F
:102B700044F400140AE044F4801401E044F44014E6
:102B80006978814202D104F580146D1C6D1C28788F
:102B9000692865D006DC00288DD0632827D06428FA
:102BA00006D15DE06E2808D073282AD0752877D02A
:102BB000DDE90D129047761CE0E0C4F302500228D4
:102BC00009D003280DD0D8F8001004280DD00E60CD
:102BD00008F10408D2E0D8F80010F217C1E9006249
:102BE000F6E7D8F800100E80F2E70E70F0E718F85C
:102BF000041B8DF8001000208DF80100EB46012029
:102C000003E058F804BB4FF0FF3061074FF00007B6
:102C100001D40AE07F1C57450DDA8742FADB1BF826
:102C200007100029F6D106E07F1C8742FCDB1BF869
:102C300007100029F8D1DDE90D23A9EB0700814633
:102C4000214600F0B4F83044C61904E0DDE90D1265
:102C50001BF8010B90477F1EF8D22146484688E0BA
:102C600058F8040BC4F302514FF00A0B032900D1AA
:102C700000B2042900D140B2002802DA40422D21DE
:102C800002E0210505D52B218DF82410012104E057
:102C900006E0E10710D02021F6E708AF089113E025
:102CA00058F8040BC4F302514FF00A0B032900D16A
:102CB00080B2042900D1C0B20021EEE75946FDF7E9
:102CC00047FB303107F8011D0028F7D1ADEB0700B5
:102CD00000F1200B600702D524F4803401E04FF0AE
:102CE000010ADA4502DDAAEB0B0000E00020824673
:102CF00000EB0B0108980144A9EB01000A90E003E6
:102D000006D4DDE90D2321460A9800F050F8064468
:102D10004FF0000908E009A911F80900DDE90D12DA
:102D2000904709F10109761C08998945F3DBE00316
:102D30000CD5DDE90D2321460A9800F038F8064449
:102D400004E0DDE90D1230209047761CBAF1000155
:102D5000AAF1010AF5DC05E0DDE90D1217F8010B17
:102D60009047761CBBF10001ABF1010BF4DC0A9833
:102D70002146DDE90D2300F008F806446D1C97E6B6
:102D80000928010030BCBDE8C08F2DE9F0410446A0
:102D900000251E461746880404D405E03946202045
:102DA000B0476D1C641EF9D52846BDE8F0812DE9B9
:102DB000F041044600251E469046C80301D5302741
:102DC00000E02027880404D505E041463846B04796
:102DD0006D1C641EF9D52846BDE8F0810A68531CB5
:102DE0000B601070704710B504461C2000F0ECF822
:102DF0000021C0E90041816001614161C1608161E0
:102E000010BD00000849002051F82020527B32B14B
:102E100051F8203000225A7351F820007047401CAE
:102E20000528F1DB70470000B4010020024A0121AF
:102E300052F8200041737047B401002070B500249F
:102E4000064E0125102000F0BFF80473457346F8C4
:102E50002400641C052CF5DB70BD0000B4010020CB
:102E600040687047806970478068704705484169CD
:102E700081F48071416100204FF47A71401C8842D6
:102E8000FCDB70470010004888B0FDF7CBFBFFF774
:102E9000CDF8FEF793FDFEF72FFF2F492D48086070
:102EA0000846FEF7CFF9FEF7F1FE00F09DFBFFF7B5
:102EB00053FB012000F0AEFE284C00250126E06007
:102EC000CDE900652B46642225A1274801F064F96D
:102ED000FFF7B4FFCDE900650023642223A1284851
:102EE00001F05AF90120FFF77EFF03462146022038
:102EF000CDE90001642223A1264801F04DF902200A
:102F0000FFF771FF0346211D0320CDE90001642274
:102F100021A1204801F040F90320FFF764FF034698
:102F200004F108010420CDE9000164221EA1194822
:102F300001F032F91422204902A8FDF7E5F9002139
:102F400002A800F086F8206100F07EF800F01CFD79
:102F5000FEE7000000080650AC0000200000002042
:102F60005461736B203100003D3800084375737461
:102F70006F6D65722047656E65726174696F6E0072
:102F80005536000854656C6C6572207461736B2053
:102F9000310000005D3A000854656C6C6572207465
:102FA00061736B203200000054656C6C6572207494
:102FB00061736B2033000000484500080146002083
:102FC000842900D0C81C7047F0B50B30154D20F097
:102FD00007010024144A0FE003688B420BD38B4295
:102FE00005D95E1A43184768C3E9006700E04368E3
:102FF000136002C004E0021D10680028ECD12046D6
:10300000002802D1286808B10020F0BD064A074810
:103010001060074A121A22F00702C0E900240120BA
:103020002860D7E7A8000020A4000020BC3E0020B4
:10303000B84000200A21B0FBF1F010B500B9012022
:1030400000F002FC002010BD10B500F09DFC002037
:1030500010BD3EB504460D46B0F90800FFF7AEFFBF
:1030600002A9CDE90001208A2B4682B2D4E90010E2
:1030700001F092F8012801D000203EBD02983EBD2B
:103080002DE9F041184C0F46054666692068001D81
:1030900000F0CCFA38B9206890F82C100120884054
:1030A000A1698143A161681C07D137B12168BDE8DE
:1030B000F0410E48091D00F041BB20683544B5427F
:1030C0004560216805D2A068BDE8F041091D00F007
:1030D0001DBB6068091D00F019FB206B854200D202
:1030E0002563BDE8F081000044000020A402002018
:1030F0002DE9F041054600F02DFB2E4C2069401CC7
:10310000206120682C4F10B1E06940B32DE02560AC
:103110002069012829D1002606EB860007EB8000F4
:1031200000F0E6FA761C072EF6D323488C3000F028
:10313000DFFA2148A03000F0DBFA1F48B43000F07D
:10314000D7FA1D48C83000F0D3FA1B48DC3000F035
:10315000CFFA19488C3060601430A06005E0206818
:10316000E96AC06A884200D82560E06A401CE062D3
:103170006864E96A0120A26988401043A06101EBFC
:10318000810007EB8000291D00F0D8FA00F002FB57
:10319000E06900280CD02068E96AC06A884207D23A
:1031A00006494FF080500860BFF34F8FBFF36F8F19
:1031B000BDE8F08144000020C801002004ED00E0DB
:1031C00030B4026C0B46002A0BD0C1681144C160B8
:1031D0004468A14201D30168C16030BC1846FDF7C4
:1031E00093B830BC70472DE9F041856B1746044613
:1031F0000026026C82B1C7B1E068FDF785F8E1688E
:10320000206C091AE1602268914202D26168081AB2
:10321000E060022F16D017E02068A8B9606801F0BE
:1032200061F80646002060600EE0A068FDF76CF8CB
:10323000216CA0680844A0606168884204D32068BB
:10324000A06001E005B16D1E6D1CA5633046BDE8B0
:10325000F08110B50446006B00F0B0FA2046BDE8DE
:10326000104000F0ABBA000010484FF47051420714
:1032700006D0C01D0D4920F00700411AC1F570515C
:103280000B4A00230144C2E900030839103A21F037
:10329000070111604B600B600B1AC0E900139360CB
:1032A0004FF000405360D06070470000B80200202B
:1032B00090000020144E154CA6F1C8074FF080581E
:1032C000DFF84C9012E000BF00F044FAF068C568E7
:1032D000281D00F0ABF92069401E2061E068401E07
:1032E000E06000F057FA2846FFF7B3FFE0680028D7
:1032F000EAD138680128F9D9C9F80080BFF34F8FA7
:10330000BFF36F8FF2E7000090020020440000201E
:1033100004ED00E02DE9F0470E46DDE9098417468B
:10332000824691009946089DA522206BFCF7FEFF7E
:103330006FF00301206B01EB8701084420F00707C1
:10334000780707D0502080F31188BFF34F8FBFF369
:103350006F8FFEE72218315C82F83410315C11B1B6
:10336000401C1028F6D3002684F84360072D00D3B4
:103370000625E562C4E91356201D00F0C4F904F1E6
:10338000180000F0C0F92461C5F107006462A06173
:10339000666584F858604A465146384600F00EF992
:1033A0002060B8F1000F01D0C8F80040BDE8F087F8
:1033B00030B5114900E011460A688242FBD34B68E0
:1033C0005C18844203D1406818444860084643684A
:1033D0001C18944209D1084C103C2468A24209D020
:1033E00052681A4442600A6812680260814200D042
:1033F000086030BD0460F9E79000002010B5044675
:1034000000F0A8F9A06B28B15FF0000400F0C2F949
:10341000204610BD0124F9E706484168096829B132
:103420004168C968C9684968016370474FF0FF3156
:10343000FAE700004400002008484068401C4FF0B4
:10344000500080F3118804D0BFF34F8FBFF36F8F0C
:10345000FEE7BFF34F8FBFF36F8FFEE798000020AA
:103460002DE9F041044600F075F994F9455004F156
:10347000240609E0606A48B1304600F0C9FF08B18F
:1034800000F010FA6D1E6DB2002DF3DC4FF0FF3628
:1034900084F8456000F07EF900F05CF994F944503E
:1034A00004F1100709E0206948B1384600F0B0FF88
:1034B00008B100F0F7F96D1E6DB2002DF3DC84F851
:1034C0004460BDE8F04100F065B900002DE9F0412D
:1034D0000546002700F08CFA314E306808B9FFF736
:1034E000C3FEF06805424BD1C5B3083568070ED05E
:1034F00005F00700C0F108000544680707D0502018
:1035000080F31188BFF34F8FBFF36F8FFEE72DB3AA
:103510007068854234D82248103001460C6801E0BA
:1035200020460C466168A94202D221680029F7D1E1
:1035300031688C4224D007682168016060680837D0
:10354000411B10290FD96019420708D0502080F381
:103550001188BFF34F8FBFF36F8FFEE710E041601C
:103560006560FFF725FF61687068401A7060B26897
:10357000904200D2B060F06801430020C4E900012D
:1035800000F080FF780707D0502080F31188BFF348
:103590004F8FBFF36F8FFEE73846BDE8F081000024
:1035A000800000200449086818B10868026D521CA8
:1035B00002650868704700004400002010B5031F32
:1035C0004FF080741C601B1F21F001011960191F4E
:1035D000044B0B6014390A60091F6FF00202443873
:1035E0000A6010BD3934000810B5002204213220D1
:1035F00000F022FB0149486010BD000014000020CB
:1036000070B5044680680D462844A0606068401C80
:10361000606000F0FDFD2061E168411A491B6161B5
:10362000E060A069814200D9A16170BDD0E901329A
:1036300001699A60D0E901235A604A68824201D147
:1036400082684A60002202610868401E08600868BB
:1036500070470000A2B01C4D686808B9FFF7C4FFAE
:103660001A4E50274FF02808DFF86490FFF7CAFB86
:1036700020903268B2FBF7F1B2FBF8F407FB11219E
:1036800008FB1424D9F800200260491D8160002342
:103690001A4620A90A34686800F03CFB0128E5D1ED
:1036A00009480CA108300268521C02606846FFF706
:1036B000CDF982B20C4B69460C48FEF725F920463D
:1036C00000F0C2F8D2E700001400002008080650FD
:1036D0002404004051756575652073697A65203D45
:1036E000202564200D000000A0860100FC000020C1
:1036F00000F108014FF0FF32C0E90112C160016121
:1037000000210160704700210161704730B50B68EE
:103710005A1C02D000F1080202E0026904E02246CD
:10372000546825689D42FAD953684B6099608A6055
:10373000516008610168491C016030BD42684A60FF
:1037400093688B6093685960916008610168491CB7
:1037500001607047502080F31188BFF34F8FBFF393
:103760006F8F0A494868401C486001280CD10848FE
:10377000006810F0FF0F07D0502080F31188BFF3CE
:103780004F8FBFF36F8FFEE7704700009800002057
:1037900004ED00E00849486828B1401E486001D1A6
:1037A00080F311887047502080F31188BFF34F8F4A
:1037B000BFF36F8FFEE700009800002070B500286F
:1037C00027D0144DA0F108046168E868014207D1D0
:1037D000502080F31188BFF34F8FBFF36F8FFEE748
:1037E00022683AB1502080F31188BFF34F8FBFF3A6
:1037F0006F8FFEE78143616000F0FAF860686968E6
:10380000084468602046FFF7D3FDBDE8704000F033
:1038100039BE70BD800000204FF0E0200021016122
:103820008161054964220968B1FBF2F1491E4161D9
:10383000072101617047000040000020FFF716FBE0
:10384000642000F001F8F9E710B5020014D00F4829
:10385000806B38B1502080F31188BFF34F8FBFF3D6
:103860006F8FFEE700F0C4F800211046FFF708FC58
:1038700000F008FE002807D105494FF0805008608D
:10388000BFF34F8FBFF36F8F10BD000044000020C7
:1038900004ED00E002498A6A0260496941607047AC
:1038A0004400002001490120486270474400002084
:1038B00010B50C4650B1094909681831FFF726FFC9
:1038C0002046BDE810400121FFF7DABB502080F30D
:1038D0001188BFF34F8FBFF36F8FFEE744000020C6
:1038E00070B504004BD0226DA2B1E06C884200D3C9
:1038F0000146E06A884242D0012A40D1204D2A6820
:1039000094420FD1502080F31188BFF34F8FBFF343
:103910006F8FFEE7502080F31188BFF34F8FBFF306
:103920006F8FFEE7E162A269002A02DBC1F10701A5
:10393000A161144E00EB8000616906EB80008142BA
:103940001DD1201DFFF772FE012150B9E06A00EB86
:10395000800256F8222022B9AA6901FA00F08243B7
:10396000AA61E06AAA6981401143A96100EB800065
:1039700006EB8000211DBDE87040FFF7DFBE70BD83
:1039800044000020C80100201CB515480024CDE9E2
:1039900000402346802213A1144800F0FDFB0128BB
:1039A00009D0401C1AD1502080F31188BFF34F8FEB
:1039B000BFF36F8FFEE7502080F31188BFF34F8F66
:1039C000BFF36F8F06484FF0FF3134380163012198
:1039D000C1614461BDE81C4000F0A2B81CBD0000FC
:1039E0007800002049444C4500000000B532000832
:1039F0000248816B491C816370470000440000202D
:103A00001448816B11B1012141627047002141626C
:103A10008169B1FA81F1C1F11F0101EB81020E4907
:103A200051F822306BB101EB820101F108034A68C1
:103A300052684A609A4201D152684A60D168016076
:103A40007047502080F31188BFF34F8FBFF36F8F03
:103A5000FEE7000044000020C801002008B52D4CFE
:103A60002D4E054660680028FCD00A22694600F009
:103A700001FA0128F6D10A21306800F097FA0128EE
:103A80003FD1244808300168491E0160234800687E
:103A900000990A68801A6422B0FBF2F0E269904251
:103AA00000D9E06189682846FFF7AAFD00982168DF
:103AB0008068884200D920602868012804D0022844
:103AC00011D0032817D112E02846FFF7C9F9E060AA
:103AD0002846FFF7C9F9616A084460622846FFF783
:103AE000C1F9206207E02846FFF7BAF920612846AD
:103AF000FFF7B6F9606100231A461946306800F0F6
:103B000009F90098007BFFF791F900988068FFF7AA
:103B10009BFEA7E7140000200C00002024040040B6
:103B20001CB537480168374A914207D1502080F3CD
:103B30001188BFF34F8FBFF36F8FFEE700683149E5
:103B4000491E884207D1502080F31188BFF34F8F60
:103B5000BFF36F8FFEE72C4908780190FF200870B3
:103B600008788DF800009DF800009DF8002000F016
:103B7000F000904207D0502080F31188BFF34F8FA0
:103B8000BFF36F8FFEE79DF80000204B00F0500060
:103B900018700720986005E09DF8002052008DF80D
:103BA0000020401E9DF800201206F5D498600328DE
:103BB00007D0502080F31188BFF34F8FBFF36F8F72
:103BC000FEE74FF440709860019808700C48203070
:103BD000016841F470010160016841F070410160C9
:103BE000FFF71AFE00205860FCF7FCFA084801684D
:103BF00041F040410160FCF7E1FA00201CBD0000EB
:103C000000ED00E071C20F4100E400E098000020E8
:103C100034EF00E010B502460021012000F00CF85E
:103C2000041E07D00021416001600B460A46C160B6
:103C300000F070F8204610BD2DE9F04117460E4601
:103C4000050016D0EEB105FB06F05030FFF73EFC44
:103C500004000CD004F15000AEB12060C4E90F564E
:103C60002046012100F012F8204684F84C70BDE88F
:103C7000F081502080F31188BFF34F8FBFF36F8F17
:103C8000FEE70020E1E72460E8E7000070B50D469C
:103C9000040025D0FFF75EFDD4E90F20216802FB68
:103CA000001161600021A1632168A1600A46D4E986
:103CB0000F01401E00FB0121E16021464FF0FF3063
:103CC00001F8440F487004F110008DB1FFF710FDAA
:103CD00004F12400FFF70CFDFFF75CFD012070BD2F
:103CE000502080F31188BFF34F8FBFF36F8FFEE733
:103CF00021690029F0D000F08BFB0028ECD00449AA
:103D00004FF080500860BFF34F8FBFF36F8FE3E732
:103D100004ED00E02DE9FF4782B01D468A464FF0D2
:103D20000008040003D0BAF1000F08D011E05020C1
:103D300080F31188BFF34F8FBFF36F8FFEE7206CC6
:103D400038B1502080F31188BFF34F8FBFF36F8FCE
:103D5000FEE7022D0AD1E06B012807D0502080F346
:103D60001188BFF34F8FBFF36F8FFEE700F042FA69
:103D70003F4F4FF000094FF0805648B9049838B1D2
:103D8000502080F31188BFF34F8FBFF36F8FFEE792
:103D9000FFF7E0FCA06BE16B884207D3022D05D052
:103DA0000498D0B1B8F1000F1AD01EE02A4651464F
:103DB0002046FFF718FA616A19B104F1240000F0F7
:103DC00027FB20B13E60BFF34F8FBFF36F8FFFF72C
:103DD000E1FC012006B0BDE8F087FFF7DBFC22E044
:103DE0006846FFF757FD4FF00108FFF7D3FCFFF7D8
:103DF000FFFDFFF7AFFC94F94400401C01D184F8AB
:103E0000449094F94500401C01D184F84590FFF797
:103E1000C1FC04A9684600F085F930B12046FFF7DF
:103E20001FFB00F02FFB0020D4E7FFF793FCA06BF3
:103E3000E16B884213D1FFF7ADFC04F11000049947
:103E4000FFF736FD2046FFF70BFB00F01BFB0028B9
:103E50009ED13E60BFF34F8FBFF36F8F98E7FFF7A0
:103E600099FC2046FFF7FCFA00F00CFB90E70000FD
:103E700004ED00E02DE9F747002683B08A460400F0
:103E800003D0BAF1000F08D011E0502080F3118860
:103E9000BFF34F8FBFF36F8FFEE7206C38B1502018
:103EA00080F31188BFF34F8FBFF36F8FFEE700F0F1
:103EB000A1F9DFF8F4804FF000094FF0805748B9BE
:103EC000059838B1502080F31188BFF34F8FBFF3AE
:103ED0006F8FFEE7FFF73EFCA56BC5B1514620464C
:103EE000FFF76EF96D1EA563206950B104F1100053
:103EF00000F08EFA28B1C8F80070BFF34F8FBFF3FF
:103F00006F8FFFF747FC012006B0BDE8F0870598EA
:103F100008B11EB106E0FFF73DFC27E06846FFF759
:103F2000B9FC0126FFF736FCFFF762FDFFF712FC34
:103F300094F94400401C01D184F8449094F9450060
:103F4000401C01D184F84590FFF724FC05A9684680
:103F500000F0E8F8002820460AD0FFF781FA00F0C8
:103F600091FA2046FFF74AFA0028B3D00020CBE7A9
:103F7000FFF744FA90B104F124000599FFF798FC8B
:103F80002046FFF76DFA00F07DFA0028A2D1C8F8AC
:103F90000070BFF34F8FBFF36F8F9BE72046FFF793
:103FA0005FFA00F06FFA95E704ED00E02DE9F343C6
:103FB000002683B00400354609D0206C78B150202B
:103FC00080F31188BFF34F8FBFF36F8FFEE7502050
:103FD00080F31188BFF34F8FBFF36F8FFEE700F0C0
:103FE00009F9DFF83C814FF000094FF0805748B9DC
:103FF000049838B1502080F31188BFF34F8FBFF37E
:104000006F8FFEE7FFF7A6FBA06BC8B1401EA06351
:10401000206810B9FFF7C6FA6060206950B104F15A
:10402000100000F0F5F928B1C8F80070BFF34F8F09
:10403000BFF36F8FFFF7AEFB012005B0BDE8F08343
:10404000049808B166B10FE03DB1502080F31188AB
:10405000BFF34F8FBFF36F8FFEE7FFF79BFB5DE072
:104060006846FFF717FC0126FFF794FBFFF7C0FC3B
:10407000FFF770FB94F94400401C01D184F8449090
:1040800094F94500401C01D184F84590FFF782FB6C
:1040900004A9684600F046F80028204612D0FFF731
:1040A000DFF900F0EFF92046FFF7A8F90028A9D0C2
:1040B0009DB3FFF74FFB606A50B3206B0068C0F1FF
:1040C000070126E0FFF79AF9E0B1206838B9FFF759
:1040D00041FB606800F052F90546FFF75BFB04F115
:1040E00024000499FFF7E4FB2046FFF7B9F900F03C
:1040F000C9F9002886D1C8F80070BFF34F8FBFF30D
:104100006F8F7FE72046FFF7ABF900F0BBF979E747
:1041100000216068FFF7E4FB9FE7FFE700208CE7E2
:1041200004ED00E02DE9F0410C46050011D0C4B1CA
:10413000FFF710FB174B5A696E682068911B471CEC
:1041400017D02F689B6A9F4219D0964217D8012436
:1041500010E0502080F31188BFF34F8FBFF36F8FB3
:10416000FEE7502080F31188BFF34F8FBFF36F8FAE
:10417000FEE70024FFF70EFB2046BDE8F0818842F1
:1041800005D9401A20602846FFF784FBF1E700209C
:104190002060DCE7440000202DE9FF5F8346DDE975
:1041A0000E87994616468A469000FFF78FF905005C
:1041B0001AD05C20FFF78AF9040012D02563002191
:1041C000CDE90241CDE900874B463246514658467B
:1041D000FFF7A0F82046FEF78BFF012004B000F0A7
:1041E00006B82846FFF7EAFA4FF0FF30F6E730BC92
:1041F000BDE8C09F0548C16919B1806B18B10020A6
:1042000070470120704702207047000044000020E2
:104210000148406970470000440000202DE9F0414A
:104220002E4C0027A06B40B1206A401C2062606ABF
:1042300000B101273846BDE8F0816669761C6661E9
:1042400013D16068006838B1502080F31188BFF343
:104250004F8FBFF36F8FFEE76068A1686160A06059
:10426000A06A401CA062FFF7D7F8206BDFF87080CF
:10427000864209D36068006880B16068C068C5681C
:10428000686886420DD220632068C06A00EB800116
:1042900058F821000128CAD90127C8E74FF0FF309C
:1042A000F1E7281DFFF7C2F9A86A18B105F1180057
:1042B000FFF7BCF9E86A0121A26981401143A161BD
:1042C00000EB800108EB8100291DFFF737FAE86A4F
:1042D0002168C96A8842CDD30127CBE7440000207A
:1042E000C801002070B504004FF0000140D0214DFE
:1042F0002868844207D0502080F31188BFF34F8F85
:10430000BFF36F8FFEE7206D38B1401E2065E36C70
:10431000E26A9A422CD040B12AE0502080F3118802
:10432000BFF34F8FBFF36F8FFEE7201DFFF77EF9BE
:10433000114A012150B9E06A00EB800352F82330A2
:1043400023B9AB6901FA00F08343AB61E06CE06232
:10435000C0F10700A061E06AAB6981401943A9611F
:1043600000EB800002EB8000211DFFF7E7F901213F
:10437000084670BD44000020C801002070B504004C
:104380004FF0000038D0204DE16A2A68D26A91428D
:1043900033D2A069002804DB2868C06AC0F1070096
:1043A000A0611A4E01EB8101606906EB8101884230
:1043B0001ED1201DFFF73AF9012150B9E06A00EB48
:1043C000800256F8222022B9AA6901FA00F082433D
:1043D000AA612868C06AE062AA6981401143A961A4
:1043E00000EB800006EB8000211DFFF7A7F902E03B
:1043F0002868C06AE062012070BDE16C2A68D26A58
:104400009142F8D370BD000044000020C801002094
:104410002DE9F041C068C468ACB104F1180007464A
:10442000FFF704F9154DA86B0126A0B139461448D1
:10443000FFF784F9E06A2968C96A88421CD901201B
:104440006E62BDE8F081502080F31188BFF34F8F7A
:10445000BFF36F8FFEE7201DFFF7E8F8E16AAA6956
:1044600006FA01F01043A86101EB81000449B43958
:1044700001EB8000211DDBE70020E2E74400002083
:104480007C0200202DE9F0472C4D00242746A86B24
:1044900038B1FFF75FF9A86B401EA863A86B40B165
:1044A00046E0502080F31188BFF34F8FBFF36F8F2A
:1044B000FEE72969224E0120D1B3A6F1B409804656
:1044C0003068E8B1F068C46804F11800FFF7AEF88E
:1044D000201DFFF7ABF8E06AAA6908FA00F1114362
:1044E000A96100EB800109EB8100211DFFF726F98E
:1044F000E06A2968C96A8842E2D3C5F82480DFE708
:104500000CB1FEF789FF2C6A44B14646FFF786FEE0
:1045100000B16E62641EF9D100202862686A38B169
:104520000849012738070860BFF34F8FBFF36F8F2B
:10453000FFF730F93846BDE8F0870000440000205E
:104540007C02002004ED00E0A4450008F91F0008EB
:1045500000000000000000008000000000000000DB
:10456000000000000102030406070809A0860100FC
:10457000400D0300801A060000350C0040420F0079
:1045800080841E0000093D0000127A000024F4001F
:1045900000366E010048E801006CDC0200000000FB
:1045A0000102030464656661756C745461736B0089
:1045B000D045000800000020AC000000742A00086C
:1045C0007C460008AC0000200C440000842A00084F
:1045D00000000000000000000000000000000000DB
:1045E00000000000000000000000000000000000CB
:1045F00000000000000000000000000000000000BB
:1046000000000000000000000000000000000000AA
:1046100000093D0000000000000000000000000054
:10462000000000000000000000000000000000008A
:10463000000000000000000000000000000000007A
:10464000000000000000000000000000000000006A
:10465000000000000000000000000000000000005A
:10466000000000000000000000000000AAAAAAAAA2
:0C4670000000000000000000000000003E
:040000050800018965
:00000001FF
